:020000040800F2
:10000000700400200D020008150200081702000805
:10001000190200081B0200081D0200080000000071
:100020000000000000000000000000001F020008A7
:10003000210200080000000023020008FB15000850
:1000400027020008270200082702000827020008EC
:1000500027020008270200082702000827020008DC
:1000600027020008270200082702000827020008CC
:1000700027020008270200082702000827020008BC
:1000800027020008270200082702000827020008AC
:10009000270200082702000827020008270200089C
:1000A000270200082702000827020008270200088C
:1000B000270200082702000827020008270200087C
:1000C000270200082702000827020008270200086C
:1000D000270200082702000827020008270200085C
:1000E000270200082702000827020008270200084C
:1000F000270200082702000827020008270200083C
:10010000270200082702000827020008270200082B
:10011000270200082702000827020008270200081B
:10012000270200082702000827020008270200080B
:1001300027020008270200082702000827020008FB
:1001400027020008270200082702000827020008EB
:1001500027020008270200082702000827020008DB
:1001600027020008270200082702000827020008CB
:1001700027020008270200082702000800000000EC
:1001800027020008270200082702000827020008AB
:10019000270200082702000827020008270200089B
:1001A000270200082702000827020008270200088B
:1001B000270200082702000827020008270200087B
:1001C000270200082702000800000000270200089C
:1001D000270200082702000827020008270200085B
:1001E000270200082702000827020008270200084B
:1001F0002702000827020008DFF80CD000F018F8EA
:10020000004800470D17000870040020064880478A
:1002100006480047FEE7FEE7FEE7FEE7FEE7FEE7EB
:10022000FEE7FEE7FEE7FEE799160008F901000881
:10023000064C074D06E0E06840F0010394E8070033
:1002400098471034AC42F6D3FFF7DAFF681700087E
:100250008817000831B500F0FFF8044600F0FCF8FC
:100260000099001B8842F9D338BD00002DE9F84FF2
:10027000DFF89CE100224FF001084FF0030B4FF034
:100280000F0A00BF0B6808FA02F42340A34271D1A1
:100290004D68022D01D0122D0FD1D5080E695707D8
:1002A00000EB8505A9462D6AFF0E0AFA07FCBE4041
:1002B00025EA0C052E43C9F820600F795500066821
:1002C0000BFA05FC07F0030726EA0C06AF4037439C
:1002D00007604E68012E05D0022E03D0112E01D0EA
:1002E000122E0ED18668CF6826EA0C06AF4037433F
:1002F000876046680F79A643C7F3001797403743D6
:100300004760C4688E6824EA0C04AE402643C66089
:100310004C68E40075D53F4C256845F48045256060
:10032000246822F00306950704F4804400943A4CB4
:100330002D0F2644D6F80848DFF8E0C00AFA05F782
:10034000604524EA070401D100272EE0344FB8426B
:1003500001D1012729E0334FB84201D1022724E01F
:10036000314FB84201D103271FE0304FB84202D1CC
:1003700004271AE045E02E4FB84201D1052714E0CA
:100380002C4FB84201D106270FE02B4FB84201D1C4
:1003900007270AE0294FB84201D1082705E0284F76
:1003A000B84201D1092700E00A27AF40274375462C
:1003B000C6F808784E68DEF80040F60324EA030425
:1003C00000D51C43124E2C60361D4D683468AD03B9
:1003D00024EA030400D51C430D4F346008374D68F0
:1003E0003C68ED0224EA030400D51C43084D3C6040
:1003F0000C354E682C68B60224EA030400D51C4371
:100400002C60521C102AFFF43DAFBDE8F88F0000AD
:10041000003C0140443802400030014000000240EE
:100420000004024000080240000C0240001002409C
:100430000014024000180240001C0240002002404C
:10044000002402400069084000D0012070470AB132
:10045000816170470904FBE70148006870470000AC
:100460000000002002480168491C0160704700003C
:1004700000000020032010B500F068F8002000F014
:1004800005F800F017F8002010BD0000084910B56D
:1004900004464FF47A700968B1FBF0F000F022FED8
:1004A00000222146501E00F031F8002010BD00004F
:1004B00004000020032010B500F048F800226FF07F
:1004C0000B00114600F022F800226FF00A001146DE
:1004D00000F01CF800226FF00900114600F016F839
:1004E0000022501F114600F011F80022101F114683
:1004F00000F00CF80022901E114600F007F80022D0
:10050000BDE81040501E1146AFF300800E4BF0B412
:100510001B680D46C3F30223C3F10706042E00D95E
:100520000426191D072901D2002300E0DB1E012447
:1005300004FA06F19C40491E2940641E994014406B
:100540002143F0BC00F054BF0CED00E0064900F080
:10055000070210B54FF6FF040868044B204040EA3C
:1005600002201843086010BD0CED00E00000FA0501
:100570002DE9F047DFF84C8105460E46D8F800001B
:1005800000F00F00B0420CD2D8F8001021F00F019B
:100590003143C8F80010D8F8000000F00F00B04256
:1005A00065D12878484C800705D5A968206820F0D7
:1005B000F000084320602878C00747D042496868A7
:1005C0000839012816D00968022816D089070029A1
:1005D0004DDA216821F0030101432160FFF73CFF60
:1005E0006968074641F2883001290FD00229814607
:1005F00019D027E009688903E9E78901E7E700BF27
:10060000FFF72AFFC11B494501D918E08146206840
:10061000C0F381000128F3D118E000BFFFF71CFFF1
:10062000C11B49450BD82068C0F381000228F5D1D1
:100630000CE000BFFFF710FFC11B494502D90320A2
:10064000BDE8F087206810F00C0FF3D1D8F8001047
:10065000404601F00F01B1420BD9016821F00F01B2
:1006600031430160006800F00F00B04201D001206A
:10067000E6E72878400705D5E968206820F4E050CF
:10068000084320602878000706D52869216821F4EE
:10069000604141EAC000206000F022F82168F022A9
:1006A00092FAA2F201F0F001B2FA82F2D140074AC6
:1006B000515CC840064908600020FFF7E7FE0020B3
:1006C000BEE70000003C024008380240581700080E
:1006D000040000200148006870470000040000206A
:1006E0001D4930B51D48096811F00C011AD01C4B8A
:1006F000042916D0082915D1174947F6C072091FD9
:100700000C680D6804F03F046D020CD50D68B3FB56
:10071000F4F092FAA2F31540B3FA83F2D54068439D
:100720000BE0184630BD0B68B0FBF4F092FAA2F46F
:100730001340B4FA84F2D340584309684FF440326E
:1007400092FAA2F201F44031B2FA82F2D140491C8D
:100750004900B0FBF1F030BD083802400024F4003D
:1007600040787D012DE9F84FDFF860930546007869
:100770000027A9F1040AAAF10404C0074CD0D9F853
:1007800000104846C1F38101012908D00068C0F378
:10079000810002280AD1DAF80000400206D520685C
:1007A000800339D56868002870D035E06868B0F5F6
:1007B000803F0BD010B1B0F5A02F11D0206820F4ED
:1007C00080302060206820F4802002E0206840F41F
:1007D00080302060686890B1FFF73EFE06460AE070
:1007E000206840F480202060F0E700BFFFF734FE6F
:1007F000801B642876D820688003F7D50CE0FFF7CB
:100800002BFE064605E000BFFFF726FE801B64288E
:10081000F0D820688003F7D42878800746D5D9F827
:10082000001048464FF0F80811F00C0F08D000688F
:10083000C0F3810002280AD1DAF80000400206D491
:100840002068800716D5E86801281FD112E0E86803
:10085000002820681BD040F001002060FFF7FCFD5D
:10086000064604E0FFF7F8FD801B0228C2D8206886
:100870008007F7D52869226898FAA8F1B1FA81F1C2
:10088000884022F0F801014321600FE01BE120F0D5
:1008900001002060FFF7E0FD064604E0FFF7DCFD05
:1008A000801B0228A6D820688007F7D42878000784
:1008B00029D5864869696C3000298046016812D0C4
:1008C00041F001010160FFF7C7FD064605E000BFEA
:1008D000FFF7C2FD801B022804D8D8F8000080076B
:1008E000F6D510E089E021F001010160FFF7B4FDC9
:1008F000064604E0FFF7B0FD801B02287DD8D8F83B
:1009000000008007F6D4287840076BD5DFF8BC815B
:1009100008F13808D8F80000C0000BD4D8F800104F
:1009200041F08051C8F80010D8F80000012700F00D
:100930008050009066480168C90512D4016883465A
:1009400041F480710160FFF787FD064605E000BFB6
:10095000FFF782FD801B64284FD8DBF80000C0053C
:10096000F6D55A4EA868683601280AD008B105287D
:1009700011D0306820F001003060306820F00400B1
:1009800002E0306840F001003060A868A0B1FFF7D5
:1009900063FD83460CE0306840F004003060F0E70F
:1009A000FFF75AFDA0EB0B0141F28830814224D8B9
:1009B00030688007F4D50EE0FFF74EFD834607E070
:1009C000FFF74AFDA0EB0B0141F28830814272D85B
:1009D00030688007F4D42FB1D8F8001021F080518E
:1009E000C8F80010A869E8B3D9F80010C1F3810174
:1009F000022968D00228206800E05CE020F08070C6
:100A0000206003D0FFF728FD054657E0FFF724FDDF
:100A1000064604E0FFF720FD801B02284BD8206823
:100A20008001F7D447F6C0704FF0FF37D5E90912BF
:100A300090FAA0F34FF44036D5E9070C96FAA6F6E3
:100A400007EB5202B3FA83F34FF07067B6FA86F8F9
:100A5000994097FAA7F702FA08F24FF0E04640EA09
:100A60000C0000E02DE01143D5E90B3296FAA6F513
:100A7000B7FA87F7B5FA85F5BB400843AA40184393
:100A80001043CAF80000206840F080702060FFF733
:100A9000E3FC054605E000BFFFF7DEFC401B022833
:100AA00009D820688001F7D50BE000BFFFF7D4FC20
:100AB000401B022802D90320BDE8F88F206880017E
:100AC000F4D40020F8E70120F6E7000008380240DF
:100AD000007000402DE9F047040005D094F85D0057
:100AE0000025A56218B107E00120BDE8F087204687
:100AF00084F85C5000F050F8022284F85D204FF436
:100B0000E0632068016821F040010160E0689842DC
:100B100001D9002101E04FF48051B0F5706F02D08F
:100B2000984200D0A5624FF00109266B2EB9984279
:100B300001D9226301E0C4F83090D4E90468D4E913
:100B40000102278B46EA0806A36A104307F40078DF
:100B500030432668D4E907C240EA080040EA0C00A6
:100B6000CC460427104318433060D4F81880666BD5
:100B7000606AE26807EA1847236830433A43104343
:100B8000084358602068C16921F40061C16125668D
:100B900084F85DC00020A8E7F0B5006887B0104970
:100BA00088421AD10F48016841F480510160006801
:100BB00002240025694600F480500590032605278D
:100BC00060208DE8F1000848FFF750FB802069465F
:100BD0008DE8F1000548FFF749FB07B0F0BD0000C4
:100BE000003001404438024000000240000C024046
:100BF0002DE9F84F0446406898460D46B0F5827FCF
:100C000017464FF004094FF0000601D1A06890B1DB
:100C100094F85C0001281AD04FF0010B84F85CB006
:100C2000FFF71AFC009094F85D004FF0000A0128CD
:100C30000FD002268FE084F85D9013462A462046A6
:100C40001146CDF8008000F02BF9BDE8F88F0220A6
:100C5000FBE7002D7ED0002F7CD0E16884F85D900A
:100C6000C4F860A04FF4E062C4F838A09142256453
:100C7000A4F83CA0C4F84CA0C4F850A0A4F8447058
:100C8000A4F84670A4F83EA02068416802D921F477
:100C9000805101E041F480514160A068B0F5004FFF
:100CA00004D12068016821F4804101602068016856
:100CB000490603D4016841F040010160E0689042B8
:100CC00019D939E020688168C90708D0007B05F888
:100CD000010BB4F84600401EA4F846000BE0B8F142
:100CE000000F26D0B8F1FF3F05D0FFF7B5FB009904
:100CF000411A41451DD2B4F846000028E2D11FE058
:100D000020688168C90708D0C06825F8020BB4F8CC
:100D10004600401EA4F846000EE0B8F1000F08D0CF
:100D2000B8F1FF3F08D0FFF797FB0099411A414502
:100D300002D303260FE00DE0B4F846000028DFD10F
:100D4000009A4146204600F064FB08B1202020664E
:100D5000206E00B1012684F85DB0304684F85CA0B6
:100D600073E72DE9F84F044690F85C00002698469A
:100D7000012817460D460DD04FF0010A84F85CA0FB
:100D8000FFF76AFB834694F85D00B146012804D062
:100D900002267FE00220BDE8F88F002D79D0002FD9
:100DA00077D0A2680321A563A78784F85D10C4F8F3
:100DB0006090E787C4F84090A4F84490A4F8469067
:100DC000B2F5004FC4F85090C4F84C9004D120689C
:100DD000016841F48041016020680168490603D43C
:100DE000016841F040010160E068B0F5E06F17D89C
:100DF0003CE020688168890706D535F8021BC16090
:100E0000E08F401EE0870BE0B8F1000F2CD0B8F166
:100E1000FF3F05D0FFF720FBA0EB0B01414523D29C
:100E2000E08F0028E5D124E02068816889070FD58C
:100E3000E18F012905D935F8021BC160E08F801EC2
:100E400004E015F8011B0173E08F401EE0870DE000
:100E5000B8F1000F08D0B8F1FF3F07D0FFF7FCFA58
:100E6000A0EB0B01414501D3032613E0E08F0028DE
:100E7000DAD15A464146204600F005FB08B1202051
:100E80002066A06818B92068C16880680090206E4C
:100E900000B1012684F85DA0304684F85C907AE7C2
:100EA0002DE9F05F0D4690F85C10002699460A9FE8
:100EB0000129924604464FF001080ED0012084F823
:100EC0005C00FFF7C9FA834694F85D006168012869
:100ED0000CD0B1F5827F07D102E00220BDE8F09F7F
:100EE000A16809B9042801D00226E6E0002D79D0D6
:100EF000BAF1000FFBD0B9F1000FF8D094F85D0003
:100F0000042802D0052084F85D00A4F84490002055
:100F1000A4F83C904FF4E061C4F840A0A563E268F7
:100F200020668A42E0642065A4F84690A4F83E90CA
:100F300003D8B4F84600012804D92068426822F496
:100F4000805203E02068426842F480524260206888
:100F50000268520603D4026842F040020260E06870
:100F6000884260683FD910B1E08F012832D12168F2
:100F700035F8020BC860E08F401EE0872AE000BF12
:100F8000B8F1000F0DD0E08F58B120688168890753
:100F900007D535F8022B4FF00008C260E08F401EE5
:100FA000E087B4F8460068B120688168C90709D0B5
:100FB000C0684FF001082AF8020BB4F84600401E42
:100FC000A4F84600781C05D0FFF746FAA0EB0B000A
:100FD000B8425ED2E08F0028D2D1B4F84600002893
:100FE000CED15FE068E010B1E08F012853D12168D5
:100FF00015F8010B0873E08F401EE0874BE000BF3F
:10100000B8F1000F16D0E08FA0B120688168890781
:1010100010D5E18F012905D935F8021BC160E08F99
:10102000801E04E015F8011B0173E08F401EE0876D
:101030004FF00008B4F8460018B320688168C9076B
:101040001FD0B4F84610012911D9C0682AF8020B44
:10105000B4F84600801EA4F84600B4F84600012803
:101060000DD82068416841F48051416007E0017B60
:101070000AF8011BB4F84600401EA4F846004FF0E1
:101080000108781C07D0FFF7E7F9A0EB0B00B84286
:1010900001D3032611E0E08F0028B1D1B4F8460057
:1010A0000028ADD15A463946204600F0ECF908B187
:1010B00020202066206E00B10126012084F85D000A
:1010C0000021304684F85C1008E704284FF0E02047
:1010D000016903D021F004010161704741F004016E
:1010E000FAE77047401EB0F1807F10B501D30120B0
:1010F00010BD4FF0E02460610F21601700F078F917
:101100000020A0610721216110BD10B5FFF7E9FFA4
:1011100010BD00002DE9F04F664887B0016841F02E
:1011200004010160016801F004010591016841F0CA
:1011300080010160016801F080010591016841F0C2
:1011400001010160016801F001010591016841F0B0
:1011500002010160016801F002010591016841F09E
:1011600008010160016801F008010591016841F082
:101170004001016000680122DFF83CA1042100F079
:10118000400005905046FFF762F9DFF830B10122C8
:101190004FF481415846FFF75AF94948002240214F
:1011A000FFF755F900244749DFF81C814FF4005937
:1011B000CDF80090CDE9011469464046FFF756F896
:1011C00002256946322002AACDE9000503264046E1
:1011D0000B2782E8D000FFF749F88220694602AA6F
:1011E000CDE90005504682E8D000FFF73FF84FF008
:1011F000010869460420CDE90245CDE900085046C2
:10120000FFF734F802AA6946584682E8D000CDE9D3
:101210000095FFF72BF8CDE9005469465846029433
:10122000FFF724F841F604015846CDE90018CDE94E
:1012300002456946FFF71AF830020294CDE900052D
:1012400007206946CDE903602048FFF70FF84021E9
:101250000091CDE901841A4869460394FFF706F826
:1012600080206946CDE9000415480294FEF7FEFF90
:101270004FF4E85000900A206946CDE90360CDE9BB
:1012800001545046FEF7F2FF28026946CDE90004FA
:1012900050460294FEF7EAFF4FF42050694602AA36
:1012A000CDE90005064882E8D000FEF7DFFF07B071
:1012B000BDE8F08F303802400000024000040240D8
:1012C000001802400000111000080240000C02400B
:1012D00070B50E4D4FF4E0630D4800214FF4827459
:1012E0006A15C0E9021301610723C0E90512C16153
:1012F00001624162C0E90A1301634163C0E900541D
:10130000FFF7E8FB002800D0FEE770BD0030014089
:101310000800002038B50D4C00F00F0040F08000B0
:1013200000228DF8000004212046FFF790F80848BD
:10133000002301226946FFF714FD01222046042103
:10134000FFF785F80A20FEF785FF38BD000402404C
:101350000800002038B5114C0546CD2002218DF83B
:1013600000002046FFF76EF8002815D10022204625
:101370000421FFF76CF80A48002301226946FFF7B1
:10138000F0FC0748012303222946FFF731FC012224
:1013900020460421FFF75BF838BD0000000402403E
:1013A0000800002013B582B00F4C00F01F00C021D0
:1013B00041EA40008DF80000002220460421FFF79A
:1013C00046F80A48002301226946FFF7CAFC07488D
:1013D0000023012203A9FFF7C4FC012220460421B7
:1013E000FFF735F81FBD0000000402400800002090
:1013F000090700284FEA116106DA00F00F0000F13A
:10140000E02080F8141D704700F1E02080F80014FF
:1014100070472DE9F843044640684FF4827615463C
:10142000B04289464FF400474FF4806809D1A06864
:10143000B84201D0404504D12068016821F0400144
:10144000016000224B4680212046009500F08FF875
:1014500080B96068B04214D1A068B84201D040455C
:101460000FD100224B464FF4C0612046009500F09A
:101470002EF830B1206E40F0200020660320BDE839
:10148000F8830020FBE7F8B515460E4604460B46E8
:101490004FF4C0510092002200F019F888B90022E0
:1014A000334680212046009500F061F848B90022BB
:1014B00033464FF4C0612046009500F008F800283C
:1014C00004D0206E40F0200020660320F8BD2DE9F6
:1014D000F8434FF4C0681D4617460E46DDF82090CD
:1014E00004463DE0464505D127B9007B8DF8000054
:1014F0009DF80000681C33D02DB1FEF7ADFFA0EBC6
:101500000900A8422CD32068416821F0E001416025
:101510006068B0F5827F0BD1A068B0F5004F02D0B3
:10152000B0F5806F04D12068016821F040010160AE
:10153000A06AB0F5005F0AD120684DF6FF7201681D
:10154000114001602068016841F4005101600121EF
:1015500084F85D10002084F85C000320BDE8F88367
:10156000206881683140B942BCD10020F6E72DE9FE
:10157000F0411D4616460F460446DDF8188035E05A
:10158000681C33D02DB1FEF767FFA0EB0800A8421E
:101590002CD32068416821F0E00141606068B0F51B
:1015A000827F0BD1A068B0F5004F02D0B0F5806FFC
:1015B00004D12068016821F040010160A06AB0F503
:1015C000005F0AD120684DF6FF720168114001608A
:1015D0002068016841F400510160012184F85D1028
:1015E000002084F85C000320BDE8F081206880685A
:1015F0003840B042C4D10020F6E710B5FEF732FF04
:10160000BDE81040FFF781BD214810B594B00168D6
:1016100041F080510160006800F0805012901D4838
:10162000016821F4404141F48041016000681022CA
:101630000024069400F44040129002200090012102
:101640006846CDE90312FFF78DF800B1FEE70F20E1
:101650004FF48051CDE90D040DA8CDE90F410021D3
:101660001194FEF785FF00B1FEE7FFF733F84FF462
:101670007A71B0FBF1F0FFF735FD0420FFF725FD8F
:101680000022501E1146FEF741FF14B010BD0000AD
:101690004038024000700040104A30B510481468CD
:1016A00000210F4B44F470041460083305680D4AA0
:1016B0000D4C45F00105056019600368051D1340D8
:1016C000074A03600C322C600568E305034C25F4DF
:1016D00080250560803C1160236030BD88ED00E00E
:1016E00000380240FFFFF6FE1030002402E008C878
:1016F000121F08C1002AFAD170477047002001E08C
:1017000001C1121F002AFBD17047000008B5FEF787
:10171000B1FEFFF779FFFFF7FDFCFFF7D9FD0D4C98
:10172000012211032046FEF792FE00222046E1141A
:10173000FEF78DFE0F210120FFF734FE0A21022063
:10174000FFF730FE0920FFF7E5FD6846FFF702FED0
:10175000F8E7000000040240000000000000000064
:10176000010203040607080988170008000000208A
:1017700008000000EC160008901700080800002080
:1017800068040000FC160008000000000024F400BB
:04000005080001F9F5
:00000001FF
