:020000040800F2
:10000000B00500200D0200081502000817020008C4
:10001000190200081B0200081D0200080000000071
:10002000000000000000000000000000DF210008C8
:100030002102000800000000F51F0008E12100086F
:1000400027020008270200082702000827020008EC
:1000500027020008270200082702000827020008DC
:1000600027020008270200082702000827020008CC
:1000700027020008270200082702000827020008BC
:1000800027020008270200082702000827020008AC
:10009000270200082702000827020008270200089C
:1000A000270200082702000827020008270200088C
:1000B000270200082702000827020008270200087C
:1000C000270200082702000827020008270200086C
:1000D000270200082702000827020008270200085C
:1000E000270200082702000827020008270200084C
:1000F000270200082702000827020008270200083C
:10010000270200082702000827020008270200082B
:10011000270200082702000827020008270200081B
:10012000270200082702000827020008270200080B
:1001300027020008270200082702000827020008FB
:1001400027020008270200082702000827020008EB
:1001500027020008270200082702000827020008DB
:1001600027020008270200082702000827020008CB
:1001700027020008270200082702000800000000EC
:1001800027020008270200082702000827020008AB
:10019000270200082702000827020008270200089B
:1001A000270200082702000827020008270200088B
:1001B000270200082702000827020008270200087B
:1001C000270200082702000800000000270200089C
:1001D000270200082702000827020008270200085B
:1001E000270200082702000827020008270200084B
:1001F0002702000827020008DFF80CD000F02AF8D8
:100200000048004755270008B005002006488047F1
:1002100006480047FEE7FEE7FEE7FEE7FEE7FEE7EB
:10022000FEE7FEE7FEE7FEE795220008F901000879
:1002300040EA01039B0703D009E008C9121F08C068
:10024000042AFAD203E011F8013B00F8013B521EE8
:10025000F9D27047064C074D06E0E06840F0010314
:1002600094E8070098471034AC42F6D3FFF7C8FF74
:10027000742A0008942A000831B500F0FFF80446FB
:1002800000F0FCF80099001B8842F9D338BD00004B
:100290002DE9F84FDFF89CE100224FF001084FF004
:1002A000030B4FF00F0A00BF0B6808FA02F423405B
:1002B000A34271D14D68022D01D0122D0FD1D50866
:1002C0000E69570700EB8505A9462D6AFF0E0AFA4D
:1002D00007FCBE4025EA0C052E43C9F820600F79C3
:1002E000550006680BFA05FC07F0030726EA0C0622
:1002F000AF40374307604E68012E05D0022E03D071
:10030000112E01D0122E0ED18668CF6826EA0C0677
:10031000AF403743876046680F79A643C7F300179D
:10032000974037434760C4688E6824EA0C04AE40A7
:100330002643C6604C68E40075D53F4C256845F4FB
:1003400080452560246822F00306950704F4804464
:1003500000943A4C2D0F2644D6F80848DFF8E0C048
:100360000AFA05F7604524EA070401D100272EE0C8
:10037000344FB84201D1012729E0334FB84201D1AF
:10038000022724E0314FB84201D103271FE0304F4C
:10039000B84202D104271AE045E02E4FB84201D1FD
:1003A000052714E02C4FB84201D106270FE02B4F50
:1003B000B84201D107270AE0294FB84201D10827E6
:1003C00005E0284FB84201D1092700E00A27AF40D5
:1003D00027437546C6F808784E68DEF80040F603F5
:1003E00024EA030400D51C43124E2C60361D4D68D0
:1003F0003468AD0324EA030400D51C430D4F346078
:1004000008374D683C68ED0224EA030400D51C431C
:10041000084D3C600C354E682C68B60224EA030493
:1004200000D51C432C60521C102AFFF43DAFBDE8E0
:10043000F88F0000003C0140443802400030014089
:10044000000002400004024000080240000C02408C
:10045000001002400014024000180240001C02403C
:1004600000200240002402400069084000D0012022
:1004700070470AB1816170470904FBE701480068D1
:10048000704700000000002002480168491C01601C
:100490007047000000000020032010B500F068F84D
:1004A000002000F005F800F017F8002010BD000053
:1004B000084910B504464FF47A700968B1FBF0F0B2
:1004C00001F000FA00222146501E00F031F8002011
:1004D00010BD000004000020032010B500F048F813
:1004E00000226FF00B00114600F022F800226FF09E
:1004F0000A00114600F01CF800226FF009001146B6
:1005000000F016F80022501F114600F011F80022EA
:10051000101F114600F00CF80022901E114600F04A
:1005200007F80022BDE81040501E1146AFF30080CE
:100530000E4BF0B41B680D46C3F30223C3F107064C
:10054000042E00D90426191D072901D2002300E03A
:10055000DB1E012404FA06F19C40491E2940641E5A
:10056000994014402143F0BC01F0FABC0CED00E0CE
:10057000064900F0070210B54FF6FF040868044B67
:10058000204040EA02201843086010BD0CED00E056
:100590000000FA052DE9F84F04460078DFF888845A
:1005A0004FF000063546C0070ED0D8F8001021F4F1
:1005B0000001C8F80010D8F80010626B1143C8F8A9
:1005C0000010606B00B901262068DFF85C9400031E
:1005D00009F1840910D5E26BD9F8001021F440111B
:1005E0001143C9F80010E06BB0F5801F01D010B1C5
:1005F00002E0012600E001252068C00210D5226C2F
:10060000D9F8001021F440011143C9F80010206C02
:10061000B0F5800F01D010B102E0012600E0012505
:100620002068C10100D50126800658D5FE48383023
:10063000016841F0805101600068DFF8F0A300F02C
:1006400080500090DAF8001041F48071CAF8001070
:10065000FFF714FF074604E0FFF710FFC01B6428F4
:100660007ED8DAF80000C005F6D5EF4F6837386855
:1006700010F4407023D0218E01F4407181421ED0CD
:100680003868396820F4407041F480313960396845
:1006900021F48031396038603868C0070FD0FFF727
:1006A000EDFE824641F2883B06E000BFFFF7E6FE22
:1006B000A0EB0A015945D3D838688007F6D5216BDD
:1006C000C1F30120032840467ED0016821F4F811CF
:1006D0000160218E3868C1F30B010843386020782F
:1006E000C0060BD5D9F8001021F08071C9F80010B0
:1006F000D9F80010A26B1143C9F800102188CA482C
:100700008830490405D5626E016821F440311143F7
:1007100001602188090405D5A26E016821F44021F9
:10072000114301602168C90305D5E26E016821F417
:100730004011114301602168890305D5226F0168CA
:1007400021F44001114301602178490605D5626C0E
:10075000016821F00301114301602178090600E0DE
:100760001EE105D5A26C016821F00C011143016066
:100770002188C90505D5E26C016821F030011143DB
:1007800001602188890505D5226D016821F0C0012D
:10079000114301602188490505D5626D016821F486
:1007A0004071114301602188090505D5A26D0168DA
:1007B00021F44061114301602188C90407D5E26D2D
:1007C000016821F4405100E021E0114301602188DB
:1007D000890405D5226E016821F44041114301606E
:1007E0002168490205D5A26F016821F0806111439B
:1007F00001602168890213D5E26F016821F0006170
:1008000011430160E16FB1F1006F08D008E0884A40
:100810000368114023F4F8120A43026059E70125E6
:1008200021680A0700D50125490305D5626F0168D3
:1008300021F04071114301602168090206D5D4F806
:100840008020016821F08051114301602168490135
:1008500006D5D4F88420016821F0005111430160CD
:100860002068000108D5D4F88820D9F8001021F0BC
:1008700000711143C9F800102068C00008D5D4F8F1
:100880008C20D9F8001021F080611143C9F80010C4
:10089000012E4FF4403B4FF0706A03D02068B0F156
:1008A000007F7CD1604E083E306820F08060306070
:1008B000FFF7E4FD074604E0FFF7E0FDC01B6428F6
:1008C0006ED85948083800680001F5D42078DFF860
:1008D00058E1C0070EF17C0E35D0606B98BBDEF896
:1008E00000209BFAABF7DEF800009AFAAAFCB7FAF0
:1008F00087F847F6C07602F44032616896FAA6F7A8
:1009000022FA08F2BCFA8CF8B7FA87FC9BFAABF62D
:1009100000F0706001FA0CF1B6FA86F69AFAAAF7BE
:1009200020FA08F04FF0E043B24093FAA3FCA66827
:10093000B7FA87F71143B840BCFA8CF201439640EE
:100940003143CEF800102068010303D5E16BB1F507
:10095000801F05D0C00243D5206CB0F5800F3FD179
:10096000DEF800109BFAABF64FF0E04247F6C07C91
:10097000B6FA86F7DEF8006001F4403160689CFA50
:10098000ACFCF9409AFAAAF79BFAABF3B7FA87F8EE
:1009900092FAA2F7BCFA8CFCB7FA87F701E097E06D
:1009A00012E100FA0CF0B3FA83FCE36806F0E046CB
:1009B00001FA0CF192FAA2F2FE4003FA08F3B2FA3D
:1009C00082F70843BE4018433043CEF80000D9F800
:1009D0000000616A20F01F00491E0843C9F80000AA
:1009E0002068C0013DD5DEF800109AFAAAF0DEF8C2
:1009F000003047F6C07601F07061B0FA80F09BFAE3
:100A0000ABF7C1404FF0E04C009196FAA6F6216991
:100A10009CFAACFCB7FA87F7B6FA86F89AFAAAF607
:100A2000B940BCFA8CFC05E0083802400070004078
:100A3000FFFCFF0F60684FF0E04703F0E042B6FABA
:100A400086F600FA08F00843009997FAA7F722FA09
:100A50000CF2B140B7FA87F60843B2401043CEF823
:100A600000002068800122D547F6C07004F108011B
:100A700090FAA0F260689BFAABFCB2FA82F346C926
:100A8000BCFA8CFC98409AFAAAF806FA0CF64FF0D9
:100A9000E047B8FA88FC97FAA7F7304302FA0CF25D
:100AA000B7FA87F61043B1400843CEF800007F4EF6
:100AB000306840F080603060FFF7E0FC074604E0FB
:100AC000FFF7DCFCC01B64287ED830680001F7D536
:100AD000002D7AD0754D286820F080502860FFF7EF
:100AE000CDFC064605E000BFFFF7C8FC801B64286C
:100AF0006AD86E480068C0438000F5D56B4821680D
:100B000088300A0301D5E26B1AB1C9023ED5216CC7
:100B1000E1BB02689BFAABF64FF0E04347F6C071C9
:100B2000B6FA86F7066802F4403291FAA1FC6169D0
:100B3000FA409AFAAAF7BCFA8CFC9BFAABF501FAD8
:100B40000CF1B7FA87F893FAA3F7B5FA85FCA56913
:100B500006F0E04602FA0CF2B7FA87F793FAA3F32D
:100B6000FE4005FA08F5B3FA83F311439E4029438A
:100B7000314301606FF0FF07D9F80010A36A21F438
:100B8000F85107EB03231943C9F8001021688902C3
:100B900037D5E16FB1F1006F33D101689AFAAAF24B
:100BA00005684FF0E04847F6C0769BFAABFC96FA32
:100BB000A6F798FAA8F601F07061B6FA86F6BCFAC4
:100BC0008CFCB2FA82F201E067E06DE021FA02FEED
:100BD000216AB7FA87F762699AFAAAF305F0E04545
:100BE00001FA0CF1BA40B3FA83F398FAA8F7F5408A
:100BF0000A430EFA03F1B7FA87F30A439D402A43EA
:100C000002602178090739D50168D0F800809BFA85
:100C1000ABF79AFAAAFC47F6C07308F44032B7FA69
:100C200087F893FAA3F7636922FA08F2BCFA8CF802
:100C3000B7FA87FC9BFAABF601F0706103FA0CF38C
:100C4000B6FA86F69AFAAAF721FA08F14FF0E045CB
:100C5000B24095FAA5FCE669B7FA87F71343B940A5
:100C6000BCFA8CF20B43964033430360D9F8000082
:100C7000E16A20F440300843C9F800000B4C2068BA
:100C800040F080502060FFF7F9FB054608E000BF08
:100C9000FFF7F4FB401B642802D90320BDE8F88F5E
:100CA0002068C0438000F3D40020F7E700380240FA
:100CB0002DE9F047DFF84C8105460E46D8F80000D4
:100CC00000F00F00B0420CD2D8F8001021F00F0154
:100CD0003143C8F80010D8F8000000F00F00B0420F
:100CE00065D12878484C800705D5A968206820F090
:100CF000F000084320602878C00747D04249686860
:100D00000839012816D00968022816D08907002959
:100D10004DDA216821F0030101432160FFF7AEFBAA
:100D20006968074641F2883001290FD002298146BF
:100D300019D027E009688903E9E78901E7E700BFDF
:100D4000FFF79CFBC11B494501D918E0814620688B
:100D5000C0F381000128F3D118E000BFFFF78EFB3C
:100D6000C11B49450BD82068C0F381000228F5D18A
:100D70000CE000BFFFF782FBC11B494502D90320ED
:100D8000BDE8F087206810F00C0FF3D1D8F8001000
:100D9000404601F00F01B1420BD9016821F00F016B
:100DA00031430160006800F00F00B04201D0012023
:100DB000E6E72878400705D5E968206820F4E05088
:100DC000084320602878000706D52869216821F4A7
:100DD000604141EAC000206000F052F82168F02232
:100DE00092FAA2F201F0F001B2FA82F2D140074A7F
:100DF000515CC840064908600020FFF759FB0020FD
:100E0000BEE70000003C0240083802405C2A0008AF
:100E10000400002001480068704700000400002022
:100E200008484FF4E052016892FAA2F2064801F431
:100E3000E051B2FA82F2D140044A0068515CC840E5
:100E40007047000008380240040000206C2A0008A7
:100E500008484FF46042016892FAA2F2064801F491
:100E60006041B2FA82F2D140044A0068515CC84045
:100E70007047000008380240040000206C2A000877
:100E80001D4930B51D48096811F00C011AD01C4BE2
:100E9000042916D0082915D1174947F6C072091F31
:100EA0000C680D6804F03F046D020CD50D68B3FBAF
:100EB000F4F092FAA2F31540B3FA83F2D5406843F6
:100EC0000BE0184630BD0B68B0FBF4F092FAA2F4C8
:100ED0001340B4FA84F2D340584309684FF44032C7
:100EE00092FAA2F201F44031B2FA82F2D140491CE6
:100EF0004900B0FBF1F030BD083802400024F40096
:100F000040787D012DE9F84FDFF8609305460078C1
:100F10000027A9F1040AAAF10404C0074CD0D9F8AB
:100F200000104846C1F38101012908D00068C0F3D0
:100F3000810002280AD1DAF80000400206D52068B4
:100F4000800339D56868002870D035E06868B0F54E
:100F5000803F0BD010B1B0F5A02F11D0206820F445
:100F600080302060206820F4802002E0206840F477
:100F700080302060686890B1FFF780FA06460AE08A
:100F8000206840F480202060F0E700BFFFF776FA89
:100F9000801B642876D820688003F7D50CE0FFF723
:100FA0006DFA064605E000BFFFF768FA801B64286B
:100FB000F0D820688003F7D42878800746D5D9F880
:100FC000001048464FF0F80811F00C0F08D00068E8
:100FD000C0F3810002280AD1DAF80000400206D4EA
:100FE0002068800716D5E86801281FD112E0E8685C
:100FF000002820681BD040F001002060FFF73EFA77
:10100000064604E0FFF73AFA801B0228C2D820689F
:101010008007F7D52869226898FAA8F1B1FA81F11A
:10102000884022F0F801014321600FE01BE120F02D
:1010300001002060FFF722FA064604E0FFF71EFADF
:10104000801B0228A6D820688007F7D428780007DC
:1010500029D5864869696C3000298046016812D01C
:1010600041F001010160FFF709FA064605E000BF03
:10107000FFF704FA801B022804D8D8F80000800784
:10108000F6D510E089E021F001010160FFF7F6F9E3
:10109000064604E0FFF7F2F9801B02287DD8D8F855
:1010A00000008007F6D4287840076BD5DFF8BC81B4
:1010B00008F13808D8F80000C0000BD4D8F80010A8
:1010C00041F08051C8F80010D8F80000012700F066
:1010D0008050009066480168C90512D401688346B3
:1010E00041F480710160FFF7C9F9064605E000BFD1
:1010F000FFF7C4F9801B64284FD8DBF80000C00557
:10110000F6D55A4EA868683601280AD008B10528D5
:1011100011D0306820F001003060306820F0040009
:1011200002E0306840F001003060A868A0B1FFF72D
:10113000A5F983460CE0306840F004003060F0E729
:10114000FFF79CF9A0EB0B0141F28830814224D8D3
:1011500030688007F4D50EE0FFF790F9834607E08A
:10116000FFF78CF9A0EB0B0141F28830814272D875
:1011700030688007F4D42FB1D8F8001021F08051E6
:10118000C8F80010A869E8B3D9F80010C1F38101CC
:10119000022968D00228206800E05CE020F080701E
:1011A000206003D0FFF76AF9054657E0FFF766F9BC
:1011B000064604E0FFF762F9801B02284BD820683E
:1011C0008001F7D447F6C0704FF0FF37D5E9091218
:1011D00090FAA0F34FF44036D5E9070C96FAA6F63C
:1011E00007EB5202B3FA83F34FF07067B6FA86F852
:1011F000994097FAA7F702FA08F24FF0E04640EA62
:101200000C0000E02DE01143D5E90B3296FAA6F56B
:10121000B7FA87F7B5FA85F5BB400843AA401843EB
:101220001043CAF80000206840F080702060FFF78B
:1012300025F9054605E000BFFFF720F9401B02280D
:1012400009D820688001F7D50BE000BFFFF716F939
:10125000401B022802D90320BDE8F88F20688001D6
:10126000F4D40020F8E70120F6E700000838024037
:10127000007000402DE9F047040005D094F85D00AF
:101280000025A56218B107E00120BDE8F0872046DF
:1012900084F85C5000F050F8022284F85D204FF48E
:1012A000E0632068016821F040010160E068984235
:1012B00001D9002101E04FF48051B0F5706F02D0E8
:1012C000984200D0A5624FF00109266B2EB99842D2
:1012D00001D9226301E0C4F83090D4E90468D4E96C
:1012E0000102278B46EA0806A36A104307F4007838
:1012F00030432668D4E907C240EA080040EA0C00FF
:10130000CC460427104318433060D4F81880666B2D
:10131000606AE26807EA1847236830433A4310439B
:10132000084358602068C16921F40061C1612566E5
:1013300084F85DC00020A8E7F0B51E4900250068CC
:10134000022403260527884287B015D11A48016870
:1013500041F4805101600068694600F480500590B6
:1013600060208DE8F1001548FEF792FF8020694665
:101370008DE8F100124819E01249884218D10E4850
:10138000001F016841F4804101600068694600F473
:10139000804005900C208DE8F1000B48FEF778FFA7
:1013A0004FF4806069468DE8F1000848FEF770FF51
:1013B00007B0F0BD00300140443802400000024058
:1013C000000C0240003800400008024000040240C7
:1013D0002DE9F84F0446406898460D46B0F5827FE7
:1013E00017464FF004094FF0000601D1A06890B1F4
:1013F00094F85C0001281AD04FF0010B84F85CB01F
:10140000FFF73CF8009094F85D004FF0000A0128C7
:101410000FD002268FE084F85D9013462A462046BE
:101420001146CDF8008000F02BF9BDE8F88F0220BE
:10143000FBE7002D7ED0002F7CD0E16884F85D9022
:10144000C4F860A04FF4E062C4F838A0914225646B
:10145000A4F83CA0C4F84CA0C4F850A0A4F8447070
:10146000A4F84670A4F83EA02068416802D921F48F
:10147000805101E041F480514160A068B0F5004F17
:1014800004D12068016821F480410160206801686E
:10149000490603D4016841F040010160E0689042D0
:1014A00019D939E020688168C90708D0007B05F8A0
:1014B000010BB4F84600401EA4F846000BE0B8F15A
:1014C000000F26D0B8F1FF3F05D0FEF7D7FF0099F7
:1014D000411A41451DD2B4F846000028E2D11FE070
:1014E00020688168C90708D0C06825F8020BB4F8E5
:1014F0004600401EA4F846000EE0B8F1000F08D0E8
:10150000B8F1FF3F08D0FEF7B9FF0099411A4145F5
:1015100002D303260FE00DE0B4F846000028DFD127
:10152000009A4146204600F066FD08B12020206662
:10153000206E00B1012684F85DB0304684F85CA0CE
:1015400073E72DE9F84F044690F85C0000269846B2
:10155000012817460D460DD04FF0010A84F85CA013
:10156000FEF78CFF834694F85D00B146012804D055
:1015700002267FE00220BDE8F88F002D79D0002FF1
:1015800077D0A2680321A563A78784F85D10C4F80B
:101590006090E787C4F84090A4F84490A4F846907F
:1015A000B2F5004FC4F85090C4F84C9004D12068B4
:1015B000016841F48041016020680168490603D454
:1015C000016841F040010160E068B0F5E06F17D8B4
:1015D0003CE020688168890706D535F8021BC160A8
:1015E000E08F401EE0870BE0B8F1000F2CD0B8F17F
:1015F000FF3F05D0FEF742FFA0EB0B01414523D290
:10160000E08F0028E5D124E02068816889070FD5A4
:10161000E18F012905D935F8021BC160E08F801EDA
:1016200004E015F8011B0173E08F401EE0870DE018
:10163000B8F1000F08D0B8F1FF3F07D0FEF71EFF4A
:10164000A0EB0B01414501D3032613E0E08F0028F6
:10165000DAD15A464146204600F007FD08B1202065
:101660002066A06818B92068C16880680090206E64
:1016700000B1012684F85DA0304684F85C907AE7DA
:101680002DE9F05F0D4690F85C10002699460A9F00
:101690000129924604464FF001080ED0012084F83B
:1016A0005C00FEF7EBFE834694F85D00616801285C
:1016B0000CD0B1F5827F07D102E00220BDE8F09F97
:1016C000A16809B9042801D00226E6E0002D79D0EE
:1016D000BAF1000FFBD0B9F1000FF8D094F85D001B
:1016E000042802D0052084F85D00A4F8449000206E
:1016F000A4F83C904FF4E061C4F840A0A563E26810
:1017000020668A42E0642065A4F84690A4F83E90E2
:1017100003D8B4F84600012804D92068426822F4AE
:10172000805203E02068426842F4805242602068A0
:101730000268520603D4026842F040020260E06888
:10174000884260683FD910B1E08F012832D121680A
:1017500035F8020BC860E08F401EE0872AE000BF2A
:10176000B8F1000F0DD0E08F58B12068816889076B
:1017700007D535F8022B4FF00008C260E08F401EFD
:10178000E087B4F8460068B120688168C90709D0CD
:10179000C0684FF001082AF8020BB4F84600401E5A
:1017A000A4F84600781C05D0FEF768FEA0EB0B00FD
:1017B000B8425ED2E08F0028D2D1B4F846000028AB
:1017C000CED15FE068E010B1E08F012853D12168ED
:1017D00015F8010B0873E08F401EE0874BE000BF57
:1017E000B8F1000F16D0E08FA0B12068816889079A
:1017F00010D5E18F012905D935F8021BC160E08FB2
:10180000801E04E015F8011B0173E08F401EE08785
:101810004FF00008B4F8460018B320688168C90783
:101820001FD0B4F84610012911D9C0682AF8020B5C
:10183000B4F84600801EA4F84600B4F8460001281B
:101840000DD82068416841F48051416007E0017B78
:101850000AF8011BB4F84600401EA4F846004FF0F9
:101860000108781C07D0FEF709FEA0EB0B00B84278
:1018700001D3032611E0E08F0028B1D1B4F846006F
:101880000028ADD15A463946204600F0EEFB08B19B
:1018900020202066206E00B10126012084F85D0022
:1018A0000021304684F85C1008E704284FF0E0205F
:1018B000016903D021F004010161704741F0040186
:1018C000FAE77047401EB0F1807F10B501D30120C8
:1018D00010BD4FF0E02460610F21601700F040FB65
:1018E0000020A0610721216110BD10B5FFF7E9FFBD
:1018F00010BD10B5040003D094F8690010B107E0E2
:10190000012010BD002084F86800204600F026F871
:10191000242084F869002068016821F00101016039
:10192000204600F065FD0128EBD0606A10B120462A
:1019300000F0DAFC2068416821F4904141602068A1
:10194000816821F02A0181602068016841F001016D
:1019500001602046BDE8104000F02ABD10B51A4CC9
:101960000321006802220123A04286B010D117484B
:10197000046844F400240460006800F4002005902A
:1019800008208DE80E00CDE903101148694616E0E5
:10199000104CA04215D10D48001D046844F01004FD
:1019A000046000680424CDE9023100F010000590C5
:1019B0004FF440406946CDE9000207480494FEF721
:1019C00067FC06B010BD0000004C004040380240EB
:1019D0000000024000100140000402402DE9F84FD1
:1019E000044690F86A009A4616460D46202867D1AC
:1019F000EDB1E6B194F86800012861D0002701211B
:101A000084F868102220E76684F86A004C34FEF7F8
:101A100035FD814654F8440CA6814FF48058E68188
:101A2000FF214C3C404508D1206918B10EE001204F
:101A3000BDE8F88F40F2FF100EE04FF07F0218B1C2
:101A4000B0F1805F05D009E0206950B9A4F85C10BE
:101A500004E0206928B13F20A4F85C00B4F85C6081
:101A60001CE0A4F85C20F9E7B4F85A00401EA4F882
:101A70005A0000224B4620212046CDF800A000F05D
:101A8000E3FD08B10320D3E7A068404501D12069F8
:101A900078B12068406A304005F8010BB4F85A006C
:101AA0000028E1D1202084F86A00002084F86870C2
:101AB000BEE721682846AD1C496A31400180EDE748
:101AC0000220B5E72DE9F843044690F869001F4667
:101AD00016460D4620284ED1C5B1BEB194F8680017
:101AE000012848D0012284F8682021214FF0000805
:101AF000C4F86C8084F869105034FEF7BFFC26806F
:101B000081466680503C4FF4805619E00120BDE8C4
:101B1000F88300BFB4F85200401EA4F8520000221F
:101B20004B4680212046009700F08EFDA0B9A068AA
:101B3000B04201D1206988B115F8010B2168886293
:101B4000B4F852000028E5D100224B46402120463F
:101B5000009700F079FD38B10320D8E735F8020B83
:101B60002168C0F30800EAE7202184F8691000200A
:101B700084F86880CBE70220C9E7000043482DE9DC
:101B8000F043016887B041F010010160016801F085
:101B900010010591016841F004010160016801F044
:101BA00004010591016841F001010160016801F043
:101BB00001010591016841F002010160016801F035
:101BC00002010591016841F040010160016801F0E6
:101BD00040010591016841F008010160006841F68B
:101BE0000407DFF8AC80012200F0080039460590B8
:101BF0004046FEF73EFCDFF89C90012270214846EB
:101C0000FEF737FC0024694608200294CDE9000461
:101C10002148FEF73DFB0B2069460225009503266F
:101C2000CDE903601D48CDE90154FEF731FB0C21DD
:101C300002948020CDE90361CDE90005184869468A
:101C4000FEF726FBCDE90054694640460294FEF7B4
:101C50001FFB01266946CDE902454046CDE90076E5
:101C6000FEF716FB40206946CDE900040D480294BA
:101C7000FEF70EFB70206946CDE90006CDE902456E
:101C80004846FEF705FB07B0BDE8F0833038024058
:101C900000040240000C0240001002400008024014
:101CA000000002400018024070B510484FF4E06494
:101CB0000D4E002100F1140C0823C0E90214721526
:101CC00001618CE80E000724016241624FF48275C5
:101CD000C0E90A1401634163C0E90065FFF7CAFA6D
:101CE000002800D0FEE770BD003001400800002051
:101CF00070B50E4D4FF4E0630D4800214FF482742F
:101D00006A15C0E9021301610723C0E90512C16128
:101D100001624162C0E90A1301634163C0E90054F2
:101D2000FFF7A8FA002800D0FEE770BD0038004099
:101D30006C0000200C48002110B50A4C0C224FF416
:101D400016530460C0E90131C160C0E90412816129
:101D5000C16101624162FFF7CCFD002800D0FEE7BF
:101D600010BD0000004C0040D00000200C480021B5
:101D700010B50A4C0C224FF416530460C0E901312F
:101D8000C160C0E904128161C16101624162FFF773
:101D9000B0FD002800D0FEE710BD0000001001409B
:101DA0004001002038B50D4C00F00F0040F08000DD
:101DB00000228DF8000004212046FEF75AFB012383
:101DC00007481A466946FFF7BCFB0122204604215A
:101DD000FEF74FFB0A20FEF74FFA38BD0004024021
:101DE0000800002038B50D4C00F00F0040F08000D6
:101DF00000228DF8000040212046FEF73AFB0848FB
:101E0000002301226946FFF79CFB01222046402166
:101E1000FEF72FFB0A20FEF72FFA38BD000C024018
:101E20006C00002038B5114C0546CD2002218DF8FC
:101E300000002046FEF718FB002815D1002220469E
:101E40000421FEF716FB012309481A466946FFF7ED
:101E500078FB0748012303222946FFF7B9FA01223C
:101E600020460421FEF705FB38BD000000040240B7
:101E70000800002038B50546CD208DF80000082167
:101E80000E48FEF7F1FA002816D10D4C0022402131
:101E90002046FEF7EEFA0B48002301226946FFF7C1
:101EA00050FB0848012303222946FFF791FA01223B
:101EB00020464021FEF7DDFA38BD00000010024048
:101EC000000C02406C00002013B582B00F4C00F0F3
:101ED0001F00C02141EA40008DF80000002220468A
:101EE0000421FEF7C6FA0A48002301226946FFF7DB
:101EF00028FB07480023012203A9FFF722FB012248
:101F000020460421FEF7B5FA1FBD00000004024080
:101F10000800002013B582B00F4C00F01F00C02154
:101F200041EA40008DF80000002220464021FEF7E3
:101F3000A0FA0A48002301226946FFF702FB07487E
:101F40000023012203A9FFF7FCFA012220464021C9
:101F5000FEF78FFA1FBD0000000C02406C0000204D
:101F6000090700284FEA116106DA00F00F0000F1BE
:101F7000E02080F8141D704700F1E02080F8001484
:101F8000704700002DE9F043C1B00C46814600F0D7
:101F9000CBFBB4F5807F06466D464FF00308E0B2F8
:101FA00006DC02218DF800100F468DF8010007E0D5
:101FB0008DF80080220A8DF8012003278DF8020099
:101FC000E81922464946FEF733F93C446946300A8F
:101FD0000A232855641C06482E55641C05F8048005
:101FE000641CA2B2FFF76EFD41B02046BDE8F0834D
:101FF000D000002070472DE9F843044640684FF4B4
:1020000082761546B04289464FF400474FF4806807
:1020100009D1A068B84201D0404504D120680168C8
:1020200021F04001016000224B46802120460095AE
:1020300000F08FF880B96068B04214D1A068B8424F
:1020400001D040450FD100224B464FF4C0612046DD
:10205000009500F02EF830B1206E40F02000206690
:102060000320BDE8F8830020FBE7F8B515460E46CF
:1020700004460B464FF4C0510092002200F019F8BC
:1020800088B90022334680212046009500F061F88F
:1020900048B9002233464FF4C0612046009500F055
:1020A00008F8002804D0206E40F0200020660320AD
:1020B000F8BD2DE9F8434FF4C0681D4617460E469B
:1020C000DDF8209004463DE0464505D127B9007B68
:1020D0008DF800009DF80000681C33D02DB1FEF78C
:1020E000CDF9A0EB0900A8422CD32068416821F06B
:1020F000E00141606068B0F5827F0BD1A068B0F567
:10210000004F02D0B0F5806F04D12068016821F043
:1021100040010160A06AB0F5005F0AD120684DF669
:10212000FF720168114001602068016841F40051AC
:102130000160012184F85D10002084F85C00032018
:10214000BDE8F883206881683140B942BCD10020E5
:10215000F6E72DE9F0411D4616460F460446DDF828
:10216000188035E0681C33D02DB1FEF787F9A0EB5D
:102170000800A8422CD32068416821F0E0014160AA
:102180006068B0F5827F0BD1A068B0F5004F02D037
:10219000B0F5806F04D12068016821F04001016032
:1021A000A06AB0F5005F0AD120684DF6FF720168A1
:1021B000114001602068016841F400510160012173
:1021C00084F85D10002084F85C000320BDE8F081F5
:1021D000206880683840B042C4D10020F6E77047DC
:1021E00010B5FEF751F9BDE81040FFF77EBB0000C7
:1021F000264810B5B8B0016841F080510160006810
:1022000000F0805036902248016821F4404141F4AA
:10221000804101600068102200242A9400F44040AC
:102220003690022024900121CDE9271224A8FEF740
:1022300069FE00B1FEE70F204FF48051CDE9310473
:1022400031A8CDE9334100213594FEF731FD00B1CD
:10225000FEE74FF410701494119400906846FEF756
:1022600099F900B1FEE7FEF7D5FD4FF47A71B0FBA6
:10227000F1F0FFF727FB0420FFF717FB0022501EA9
:102280001146FEF755F938B010BD00004038024045
:1022900000700040104A30B51048146800210F4B00
:1022A00044F470041460083305680D4A0D4C45F081
:1022B0000105056019600368051D1340074A0360A6
:1022C0000C322C600568E305034C25F4802505607D
:1022D000803C1160236030BD88ED00E00038024092
:1022E000FFFFF6FE1030002490F82410C90706D036
:1022F0000168836A4A6822F400321A434A6090F8FF
:102300002410890706D50168C36A4A6822F480321E
:102310001A434A6090F82410490706D50168036BF8
:102320004A6822F480221A434A6090F82410090770
:1023300006D50168436B4A6822F400421A434A609A
:1023400090F82410C90606D50168836B8A6822F4C8
:1023500080521A438A6090F82410890606D50168D5
:10236000C36B8A6822F400521A438A6090F82410E2
:10237000490611D50168036C4A6822F480121A4399
:102380004A60016CB1F5801F06D10168436C4A6850
:1023900022F4C0021A434A6090F82410090606D5B8
:1023A0000168826C486820F4002010434860704740
:1023B00038B500250446C566FEF760F80346206878
:1023C000006800070BD56FF07E4000900022204689
:1023D0004FF4001100F038F908B1032038BD202077
:1023E00084F8690084F8685084F86A00002038BDD9
:1023F0002DE9F04704468068874B884F2668D4E96A
:102400000415E2690843D6F800C0102115430022E4
:10241000284315460CEA030C814B4CEA000CC6F825
:1024200000C04FF400492068D4F80CC0466826F478
:10243000405646EA0C0646602668D4F82080A0691B
:10244000D6F808C040EA08002CF4306C4CEA000CC6
:10245000C6F808C02068B8420AD11B6813F003030D
:1024600052D0012B7AD0022B76D0032B79D177E092
:102470006C4EB0420AD11B6813F00C036AD0042BD7
:102480006CD0082B68D00C2B6BD169E0664EB04243
:102490000AD11B6813F030035CD0102B5ED0202BC8
:1024A0005AD0302B5DD15BE0604EB0420AD11B6840
:1024B00013F0C0034ED0402B50D0802B4CD0C02BFB
:1024C0004FD14DE05A4EB0420DD11B6813F440730A
:1024D00040D0B3F5807F41D0B3F5007F3CD0B3F559
:1024E000407F3ED13CE0534EB0420FD11B6813F405
:1024F000406309D0B3F5806F30D0B3F5006F2BD0B7
:10250000B3F5406F2DD12BE001212AE04A4EB042B5
:102510000DD11B6813F440531CD0B3F5805F1DD060
:10252000B3F5005F18D0B3F5405F1AD118E0434E01
:10253000B04216D11B6813F440430BD0B3F5804F63
:102540000CD04B4508D0B3F5404F0AD108E005E068
:1025500002E0FFE7002104E0022102E0042100E0A4
:102560000821E6694E452AD109291FD2DFE801F08A
:102570000508141E171E1E1E1A00FEF751FC01E06E
:10258000FEF766FC0146D4F80400490001EB500157
:10259000B1FBF0F082B20AE029496068F6E7FEF785
:1025A0006FFCEFE760684FF48031EFE701252168A9
:1025B00022F00F00C2F342021043C86028E009294C
:1025C00025D2DFE801F005080B24102424241C0088
:1025D000FEF726FC09E0FEF73BFC06E06168194ABD
:1025E00002EB51020EE0FEF74BFC0146D4E900205D
:1025F00001EB5001B1FBF0F080B2D06008E06168FF
:1026000009EB5102B2FBF1F189B2C16000E0012592
:102610002846BDE8F0870000F369FFEF0010014095
:10262000903802400044004000480040004C004008
:10263000005000400014014000780040007C004041
:102640000048E8010024F4002DE9F04198461746BF
:102650000E460446069D1DE0681C1BD02DB1FDF7FB
:102660000DFFA0EB0800A84214D32168202000220F
:102670000B6823F4D0730B6021688B6823F001038F
:102680008B6084F8690084F86A00032084F868206D
:10269000BDE8F0812068C06936EA000004D000205F
:1026A000B842D9D00020F3E70120F9E7DFED0B0AAB
:1026B0000EB520EE200A05208DF80000012002AAA8
:1026C0000290BDEEC00A684610EE101A00F017F82E
:1026D00005216846FFF756FC0EBD00000050C347B9
:1026E00002E008C8121F08C1002AFAD170477047DB
:1026F000002001E001C1121F002AFBD17047F0B594
:1027000013680E0E0D0C5F1C17600C0AC65413687C
:102710005E1C1660C55413685D1C1560C4541368B4
:102720005C1C1460C154F0BD30B50346084C002059
:10273000024609E013F8015B521C85EA102534F8C3
:10274000155085EA002080B28A42F3D330BD0000E4
:102750005C2800082DED028B3AA084B0006801903F
:10276000FDF79AFEFFF744FDFFF708FAFFF79CFA22
:10277000FFF7BEFAFFF7FAFAFFF7DCFA324C012254
:1027800011032046FDF775FE00222046E114FDF7F7
:1027900070FE2E4C012210212046FDF76AFE002219
:1027A00020462021FDF765FE0F210120FFF78CFB5D
:1027B00008210220FFF788FB0F210120FFF7AAFB69
:1027C0000A210220FFF7A6FB21480A23012201A9C2
:1027D000FFF778F91E4C4FF480259FED1E8ADFED40
:1027E0001E8A0920FFF7DEFA02A8FFF71BFB09206B
:1027F000FFF7F8FA03A8FFF73DFB94F86A002228D8
:1028000005D013480A2303226946FFF7E7F89DF82D
:1028100000109DF801209DF80200090441EA022100
:102820000843A84202D2B0EE480A01E0B0EE680ABE
:10283000FFF73CFF06480A23012201A9FFF742F9EE
:10284000CFE700000100000000040240000C02403D
:1028500040010020CDCCCC3D9A99993E000021103A
:10286000422063308440A550C660E77008812991FA
:102870004AA16BB18CC1ADD1CEE1EFF131121002A2
:1028800073325222B5529442F772D662399318834A
:102890007BB35AA3BDD39CC3FFF3DEE3622443346E
:1028A00020040114E664C774A44485546AA54BB59A
:1028B00028850995EEE5CFF5ACC58DD55336722642
:1028C00011163006D776F6669556B4465BB77AA7EA
:1028D00019973887DFF7FEE79DD7BCC7C448E5588E
:1028E0008668A7784008611802282338CCC9EDD93A
:1028F0008EE9AFF9488969990AA92BB9F55AD44AE2
:10290000B77A966A711A500A333A122AFDDBDCCB89
:10291000BFFB9EEB799B588B3BBB1AABA66C877CAD
:10292000E44CC55C222C033C600C411CAEED8FFDD9
:10293000ECCDCDDD2AAD0BBD688D499D977EB66E81
:10294000D55EF44E133E322E511E700E9FFFBEEF29
:10295000DDDFFCCF1BBF3AAF599F788F8891A981EB
:10296000CAB1EBA10CD12DC14EF16FE18010A100D5
:10297000C230E3200450254046706760B9839893C5
:10298000FBA3DAB33DC31CD37FE35EF3B102901225
:10299000F322D2323542145277625672EAB5CBA591
:1029A000A89589856EF54FE52CD50DC5E234C32475
:1029B000A01481046674476424540544DBA7FAB765
:1029C0009987B8975FE77EF71DC73CD7D326F236C5
:1029D0009106B01657667676154634564CD96DC9B1
:1029E0000EF92FE9C899E9898AB9ABA94458654815
:1029F00006782768C018E1088238A3287DCB5CDB05
:102A00003FEB1EFBF98BD89BBBAB9ABB754A545A64
:102A1000376A167AF10AD01AB32A923A2EFD0FEDD0
:102A20006CDD4DCDAABD8BADE89DC98D267C076CB4
:102A3000645C454CA23C832CE01CC10C1FEF3EFFA4
:102A40005DCF7CDF9BAFBABFD98FF89F176E367E04
:102A5000554E745E932EB23ED10EF01E0000000063
:102A6000000000000102030406070809000000003E
:102A700001020304942A000800000020080000005E
:102A8000E02600089C2A000808000020A805000095
:0C2A9000F0260008000000000024F40004
:04000005080001F9F5
:00000001FF
