:020000040800F2
:10000000380D00200D020008150200081702000834
:10001000190200081B0200081D0200080000000071
:10002000000000000000000000000000373200085F
:100030002102000800000000FD2F000839320008EE
:1000400027020008270200082702000827020008EC
:1000500027020008270200082702000827020008DC
:1000600027020008270200082702000827020008CC
:1000700027020008270200082702000827020008BC
:1000800027020008270200082702000827020008AC
:100090002702000827020008270200082D03000895
:1000A00027020008B13300082702000827020008D1
:1000B000270200082702000827020008270200087C
:1000C000270200082702000827020008270200086C
:1000D000270200082702000827020008270200085C
:1000E0001903000827020008270200082702000859
:1000F000270200082702000827020008270200083C
:10010000270200082702000827020008270200082B
:10011000270200082702000827020008270200081B
:10012000270200082702000827020008270200080B
:1001300027020008270200082702000827020008FB
:1001400027020008270200082702000827020008EB
:10015000270200082702000827020008B13B000818
:1001600027020008270200082702000827020008CB
:1001700027020008270200082702000800000000EC
:1001800027020008270200082702000827020008AB
:10019000270200082702000827020008270200089B
:1001A000270200082702000827020008270200088B
:1001B000270200082702000827020008270200087B
:1001C000270200082702000800000000270200089C
:1001D000270200082702000827020008270200085B
:1001E000270200082702000827020008270200084B
:1001F0002702000827020008DFF80CD000F07AF888
:1002000000480047DD3C0008380D002006488047C4
:1002100006480047FEE7FEE7FEE7FEE7FEE7FEE7EB
:10022000FEE7FEE7FEE7FEE74D330008F9010008B0
:100230002DE9F05F0546002092469B46884606461B
:10024000814640241BE0284641464746224600F0AE
:1002500041F853465A46C01A914110D311461846E8
:10026000224600F028F82D1A67EB01084F46224677
:100270000120002100F01FF817EB00094E41201E5D
:10028000A4F10104DFDC484631462A464346BDE876
:10029000F09F40EA01039B0703D009E008C9121F41
:1002A00008C0042AFAD203E011F8013B00F8013B30
:1002B000521EF9D27047202A04DB203A00FA02F1DC
:1002C000002070479140C2F1200320FA03F3194344
:1002D00090407047202A04DB203A21FA02F00021E6
:1002E000704721FA02F3D040C2F120029140084346
:1002F00019467047064C074D06E0E06840F00103E0
:1003000094E8070098471034AC42F6D3FFF778FF23
:10031000943F0008B43F000810B54FF4005000F0BF
:1003200061F84FF4004000F05DF810BD10B580207A
:1003300000F058F810BD014691F83500022803D0AE
:100340008020486501207047052081F83500086845
:10035000006820F001000A6810600020F3E731B562
:10036000002400F063F9044600BF00F05FF9001BB1
:1003700000998842F9D338BD70B504460025802C19
:1003800014D1164802F0D9F91448D0F89810643006
:1003900003F04BFC1149D1F89C00643102F0D8FD08
:1003A000BCEEC00A0D4880ED270A16E0B4F5004FF8
:1003B00013D10B4802F0C1F90948D0F89810643005
:1003C00003F033FC0649D1F89C00643102F0C0FD13
:1003D000BCEEC00A024880ED270A70BDD80200209A
:1003E0007803002010B5044604480068204020B17E
:1003F000024804602046FFF7BFFF10BD143C0140D7
:10040000F8B502460B46002100250024002000BF5D
:10041000E4E0012606FA01F51E6806EA0504AC428E
:1004200071D15E68022E02D05E68122E13D1CF0801
:1004300002F1200656F827004E07F70E0F26BE40A1
:10044000B0434F07FF0E1E69BE403043CF0802F194
:10045000200646F8270010684F000326BE40B04330
:100460001E7906F003064F00BE40304310605E6800
:10047000012E08D05E68022E05D05E68112E02D0D3
:100480005E68122E13D190684F000326BE40B04321
:100490004F00DE68BE4030439060506801268E40B9
:1004A000B0431E79C6F300168E4030435060D068CA
:1004B0004F000326BE40B0434F009E68BE4030430D
:1004C000D0605E6806F08056B6F1805FA8D100BFAC
:1004D000444E366846F48046424F3E603E4636689B
:1004E00006F48046009600BF00BF3F4E8F0856F8C6
:1004F00027008E07370F0F26BE40B0433B4EB24257
:1005000002D100262EE068E0394EB24201D1012628
:1005100028E0384EB24201D1022623E0364EB242E4
:1005200001D103261EE0354EB24201D1042619E066
:10053000334EB24201D1052614E0324EB24201D10F
:1005400006260FE0304EB24201D107260AE02F4EB8
:10055000B24201D1082605E02D4EB24201D1092652
:1005600000E00A268F073F0FBE4030431E4E8F0823
:1005700046F82700274E3068A0435E6806F48036B0
:10058000B6F5803F00D12043224E3060361D3068E2
:10059000A0435E6806F40036B6F5003F00D1204364
:1005A0001C4E361D3060361D3068A0435E6806F470
:1005B0008016B6F5801F00D12043164E08363060F5
:1005C000361D3068A0435E6806F40016B6F5001FBD
:1005D00000D120430F4E0C363060491C1029FFF427
:1005E00018AFF8BD4438024008380140000002400E
:1005F0000004024000080240000C024000100240CB
:100600000014024000180240001C0240002002407A
:1006100000240240003C014042694A404261704768
:100620000AB1816101E00B048361704701480068F1
:10063000704700000C00002002480068401C01497F
:10064000086070470C00002010B5032000F092F8FD
:10065000002000F005F800F017F8002010BD0000A1
:1006600070B50446074800684FF47A71B0FBF1F5A5
:10067000284601F0B1FB00222146501E00F03CF854
:10068000002070BD1000002010B5042000F072F8AA
:10069000002211466FF00B0000F02EF800221146E8
:1006A0006FF00A0000F028F8002211466FF00900F0
:1006B00000F022F800221146501F00F01DF8002221
:1006C0001146101F00F018F800221146901E00F08D
:1006D00013F800221146501E00F00EF810BD00BFA6
:1006E00000F01F02012191404209920002F1E02234
:1006F000C2F8001100BF70472DE9F05F80460D463B
:100700001646002702F05EFC074639462A46334665
:1007100001F00700C0F1070ABAF1040F02D94FF047
:10072000040A01E0C0F1070AD14600F1040ABAF157
:10073000070F02D24FF0000A01E0A0F1030AD446ED
:100740004FF0010A0AFA09FAAAF1010A0AEA020AB2
:100750000AFA0CFA4FF0010B0BFA0CFBABF1010B90
:100760000BEA030B4AEA0B042146404602F032FC36
:10077000BDE8F09F00BF00F00702064B19684FF676
:10078000FF031940044B0B4343EA0221014B19605C
:1007900000BF70470CED00E00000FA0538B50024FA
:1007A00000BF2048006840F080501E49086008469D
:1007B000006800F08050009000BF00BF1A48006839
:1007C00040F4803018490860FFF730FF044607E026
:1007D000FFF72CFF001BB0F57A7F01D9032038BD4D
:1007E0001148406800F48030B0F5803FF0D10E48E9
:1007F000006840F400300C490860FFF717FF04461A
:1008000007E0FFF713FF001BB0F57A7F01D9032043
:10081000E5E70548406800F40030B0F5003FF0D14E
:100820000020DCE740380240007000402DE9F8432A
:100830000446002600250027A846A946207800F097
:10084000010088B100BFFE48006820F40000FC49A8
:10085000086008460068616B0843F949086000BFFA
:10086000606B08B94FF00108206800F40020B0F573
:10087000002F13D1F2488430006820F44010E16B5F
:100880000843EF4984310860E06BB0F5801F01D167
:100890004FF00108E06B08B94FF00109206800F43F
:1008A0008010B0F5801F13D1E5488430006820F433
:1008B0004000216C0843E24984310860206CB0F5A7
:1008C000800F01D14FF00108206C08B94FF00109E9
:1008D000206800F08070B0F1807F01D14FF00108F6
:1008E000207800F02000202870D100BFD448383094
:1008F000006840F08050D2493831086008460068EE
:1009000000F08050009000BF00BFCE48006840F467
:100910008070CC490860FFF789FE064607E0FFF7C4
:1009200085FE801B642802D90320BDE8F883C548F2
:10093000006800F480700028F1D0C1486830006879
:1009400000F4407585B3208E00F44070A8422BD08F
:10095000BB486830006820F44075B94868300068CA
:1009600040F48030B649683108600846006820F4D9
:100970008030086008460560006800F0010098B10A
:10098000FFF754FE064608E0FFF750FE801B41F2D9
:100990008831884201D90320C7E7A9486830006838
:1009A000C0F340000028EFD000BF208E00F440705C
:1009B000B0F5407F0BD1A248006820F4F810A24A9D
:1009C000216B114008439E49086006E010E09C48F6
:1009D000006820F4F8109A49086099486830006867
:1009E000218EC1F30B01084395496831086000BFAF
:1009F000207800F01000102810D100BF90488430FB
:100A0000006820F080708E498431086008460068D4
:100A1000A16B08438A498431086000BF208800F434
:100A20008040B0F5804F09D185488830006820F4B7
:100A30004030616E0843824988310860208800F4A4
:100A40000040B0F5004F09D17D488830006820F49F
:100A50004020A16E08437A4988310860206800F47C
:100A60008030B0F5803F09D175488830006820F4A7
:100A70004010E16E0843724988310860206800F434
:100A80000030B0F5003F09D16D488830006820F48F
:100A90004000216F08436A4988310860207800F0DF
:100AA0004000402809D166488830006820F00300E3
:100AB000616C0843624988310860207800F080004A
:100AC000802809D15E488830006820F00C00A16CB5
:100AD00008435B4988310860208800F48070B0F5D5
:100AE000807F09D156488830006820F03000E16CE2
:100AF0000843534988310860208800F40070B0F53D
:100B0000007F09D14E488830006820F0C000216D78
:100B100008434B4988310860208800F48060B0F5B4
:100B2000806F09D146488830006820F44070616DBC
:100B30000843434988310860208800F40060B0F51C
:100B4000006F09D13E488830006820F44060A16DF4
:100B500008433B4988310860208800F48050B0F594
:100B6000805F09D136488830006820F44050E16D3C
:100B70000843334988310860208800F40050B0F5FC
:100B8000005F09D12E488830006820F44040216E73
:100B900008432B4988310860206800F48000B0F5D4
:100BA000800F09D126488830006820F08060A16F4E
:100BB0000843234988310860206800F40010B0F52C
:100BC000001F0FD11E488830006820F00060E16FE0
:100BD00008431B4988310860E06FB0F1006F01D114
:100BE0004FF00109207800F00800082801D14FF0EB
:100BF0000109206800F48020B0F5802F09D1104849
:100C00008830006820F04070616F08430C498831DB
:100C10000860206800F40000B0F5000F0AD1084811
:100C20008830006820F08050D4F8801008430449D0
:100C300088310860206800F08060B0F1806F05E0C6
:100C40000838024000700040FFFCFF0F08D1CC487C
:100C5000006820F00050D4F884100843C8490860A8
:100C6000206800F00060B0F1006F0AD1C448001F96
:100C7000006820F00070D4F888100843C049091FAC
:100C80000860206800F08050B0F1805F0AD1BC4855
:100C9000001F006820F08060D4F88C100843B84929
:100CA000091F0860B8F1010F03D02068B0F1007F80
:100CB0007ED1B3489038006820F08060B049903908
:100CC0000860FFF7B3FC064606E0FFF7AFFC801BA9
:100CD000642801D9032028E6A94890380068C0F3A9
:100CE000C0600028F1D1207800F00100B8B1606B3D
:100CF000A8B9A3480C380068C0F30145A0480C38D7
:100D00000068C0F303676068800140EA054040EA7C
:100D10000761207A41EA007099490C39086020681F
:100D200000F40020B0F5002F03D1E06BB0F5801F78
:100D300009D0206800F48010B0F5801F24D1206C09
:100D4000B0F5800F20D18E480C380068C0F3014503
:100D50008B480C380068C0F302776068800140EA75
:100D60000541207B41EA006040EA077084490C3964
:100D700008608348001F006820F01F00616A491E58
:100D800008437F49091F0860206800F08070B0F1B7
:100D9000807F17D17A480C380068C0F30365784823
:100DA0000C380068C0F3027760688101208A00E097
:100DB00036E041EA004040EA056040EA07707049C9
:100DC0000C390860206800F00070B0F1007F0DD190
:100DD00060688101208A41EA0041207B41EA00618C
:100DE000207A41EA007066490C39086064489038FE
:100DF000006840F08060624990390860FFF716FC97
:100E0000064606E0FFF712FC801B642801D9032088
:100E10008BE55B4890380068C0F3C0600028F1D0D3
:100E2000B9F1010F7ED156489038006820F080500B
:100E3000534990390860FFF7F9FB064606E0FFF7D3
:100E4000F5FB801B642801D903206EE54C489038DF
:100E50000068C0F340700028F1D1206800F4002041
:100E6000B0F5002F01D1E06B38B1206800F480109C
:100E7000B0F5801F22D1206C00BB414808380068C3
:100E8000C0F301453E4808380068C0F30277606946
:100E9000800140EA0541207E41EA006040EA077097
:100EA000374908390860081D006820F4F851A06A25
:100EB000401E41EA00203249091F0860206800F402
:100EC0000010B0F5001F19D1E06FB0F1006F15D11F
:100ED0002B4808380068C0F30365294808380068C3
:100EE000C0F3027760698101208C41EA004040EA4A
:100EF000056040EA0770224908390860207800F050
:100F00000800082820D11E4808380068C0F303658F
:100F10001B4808380068C0F301476069800140EA57
:100F2000074000E02AE040EA0561207F41EA0070C6
:100F3000134908390860081D006820F44030E16A50
:100F400008430F49091F08600D489038006840F0B9
:100F500080500B4990390860FFF768FB064606E0B1
:100F6000FFF764FB801B642801D90320DDE40448FB
:100F700090380068C0F340700028F1D00020D4E41D
:100F80009038024070B504460D4600260CB9012089
:100F900070BD5148006800F00F00A8420ED24E48C4
:100FA000006820F00F0028434B490860084600689D
:100FB00000F00F00A84201D00120E9E7207800F0FE
:100FC0000200022807D14548006820F0F000A1681F
:100FD000084342490860207800F0010090B360683F
:100FE000012807D13D4808380068C0F34040A0B947
:100FF0000120CDE76068022807D13848083800682A
:10100000C0F3406048B90120C2E73448083800689E
:10101000C0F3400008B90120BAE73048006820F06A
:101020000300616808432D490860FFF7FFFA064690
:1010300009E0FFF7FBFA801B41F28831884202D9B0
:101040000320A5E707E02548006800F00C00616870
:10105000B0EB810FEDD12048006800F00F00A842EE
:101060000ED91D48006820F00F0028431A49086077
:101070000846006800F00F00A84201D0012087E771
:10108000207800F00400042807D11448006820F4F8
:10109000E050E168084311490860207800F008003A
:1010A000082808D10D48006820F46040216940EA12
:1010B000C1000A49086000F03DF808490968C1F319
:1010C0000311074A515CC840064908600020FFF739
:1010D000C7FA00205CE70000003C024008380240EC
:1010E0007C3F0008100000200148006870470000A5
:1010F0001000002000B5FFF7F7FF04490968C1F3AD
:101100008221034A515CC84000BD000008380240FB
:101110008C3F000800B5FFF7E7FF04490968C1F3F9
:101120004231034A515CC84000BD0000083802400B
:101130008C3F000830B500210022002300201E4C07
:10114000246804F00C0424B1042C04D0082C2ED103
:1011500003E01A482DE01A482BE0174C241F24689E
:1011600004F03F01144C241F246804F4800454B19B
:10117000134CB4FBF1F4104D2D1F2D68C5F38815E9
:1011800004FB05F209E00D4CB4FBF1F40A4D2D1FF0
:101190002D68C5F3881504FB05F2074C241F24684D
:1011A000C4F30144641C6300B2FBF3F001E00348A4
:1011B00000BF00BF30BD0000083802400024F4002A
:1011C00040787D01F8B5044600260CB90120F8BD31
:1011D000207800F00100002871D0F848006800F085
:1011E0000C0004280DD0F548006800F00C00082819
:1011F00013D1F248001F006800F48000B0F5800FA2
:101200000BD1EE4808380068C0F34040002869D090
:101210006068002866D10120D9E700BF6068B0F59A
:10122000803F08D1E5480838006840F48030E34941
:10123000083908602EE0606868B9E048083800683E
:1012400020F48030DD49083908600846006820F441
:10125000802008601EE06068B0F5A02F0DD1D7484F
:101260000838006840F48020D449083908600846EE
:10127000006840F4803008600CE0D048083800680E
:1012800020F48030CD49083908600846006820F411
:101290008020086000BF606890B1FFF7C7F905467D
:1012A00006E0FFF7C3F9401B642801D903208EE74D
:1012B000C24808380068C0F340400028F1D011E06F
:1012C000FFF7B4F9054606E0FFF7B0F9401B6428C4
:1012D00001D903207BE7B94808380068C0F34040D3
:1012E0000028F1D1207800F00200022869D1B3482B
:1012F000006800F00C0058B1B048006800F00C0025
:1013000008281CD1AD48001F006800F48000B0B967
:10131000AA4808380068C0F3400020B1E0680128FE
:1013200001D0012053E7A5480838006820F0F800F4
:10133000216940EAC100A1490839086041E0E0683C
:1013400028B39E480838006840F001009B490839DE
:101350000860FFF76BF9054606E0FFF767F9401BE9
:10136000022801D9032032E7944808380068C0F306
:1013700040000028F1D091480838006820F0F800BB
:10138000216940EAC1008D490839086019E08B489D
:101390000838006820F00100884908390860FFF724
:1013A00045F9054606E0FFF741F9401B022801D93F
:1013B00003200CE7814808380068C0F3400000288B
:1013C000F1D1207800F00800082836D16069D0B14A
:1013D0007A486C30006840F0010078496C31086050
:1013E000FFF724F9054606E0FFF720F9401B022825
:1013F00001D90320EBE671486C300068C0F340006F
:101400000028F1D019E06D486C30006820F0010030
:101410006A496C310860FFF709F9054606E0FFF7F5
:1014200005F9401B022801D90320D0E663486C303F
:101430000068C0F340000028F1D1207800F00400DB
:10144000042874D15D483830006800F0805080B9BD
:1014500000BF5A483830006840F080505749383152
:1014600008600846006800F08050009000BF00BF90
:1014700001265348006800F48070B0B950480068F5
:1014800040F480704E490860FFF7D0F8054606E04A
:10149000FFF7CCF8401B642801D9032097E64848A1
:1014A000006800F480700028F2D000BFA068012816
:1014B00008D142486830006840F001003F49683177
:1014C00008602DE0A06868B93C486830006820F0EA
:1014D00001003A49683108600846006820F00400BD
:1014E00008601DE0A06805280DD134486830006808
:1014F00040F004003149683108600846006840F057
:10150000010008600CE02D486830006820F0010000
:101510002A49683108600846006820F00400086025
:1015200000BFA068A8B1FFF781F8054609E02EE0EA
:10153000FFF77CF8401B41F28831884201D9032033
:1015400045E61E4868300068C0F340000028EFD030
:1015500013E0FFF76BF8054608E0FFF767F8401B5C
:1015600041F28831884201D9032030E613486830BF
:101570000068C0F340000028EFD1012E07D10F48CA
:101580003830006820F080500C4938310860A0697C
:10159000F0B30A48006800F00C00082868D0A06981
:1015A00002284DD105480838006820F080700349B2
:1015B00008390860FFF73AF805460AE008380240A3
:1015C00000700040FFF732F8401B022801D90320C9
:1015D000FDE529480068C0F340600028F2D1D4E955
:1015E00007010843616A40EA81110122A06AC2EB47
:1015F000500041EA00412C20005D41EA00613020AA
:10160000005D41EA00701C49091D0860081F00E0E8
:1016100030E0006840F08070091F0860FFF706F8AE
:10162000054606E0FFF702F8401B022801D9032017
:10163000CDE511480068C0F340600028F2D019E001
:101640000D48006820F080700B490860FEF7EEFF3F
:10165000054606E0FEF7EAFF401B022801D90320F9
:10166000B5E505480068C0F340600028F2D101E00C
:101670000120ACE50020AAE50038024070B5044620
:101680000CB9012070BD606A00B900BF0021A162E1
:1016900094F85D0028B9002084F85C00204600F032
:1016A00053F8022084F85D002068006820F04000B4
:1016B00021680860E068B0F5E06F01D9002501E01D
:1016C0004FF48055E068B0F5706F05D0E068B0F574
:1016D000E06F01D00021A162206B40B9E068B0F555
:1016E000E06F02D90221216301E001212163D4E9E5
:1016F000010108432169084361690843218B01F412
:1017000000710843E1690843216A0843A16A08435C
:10171000216808600421A06901EA1040616A084359
:10172000616B0843E16808432843216848602068EA
:10173000C06920F400602168C86100202066012093
:1017400084F85D0000209DE710B586B0044634495A
:10175000206888421CD100BF3248006840F48050A5
:10176000304908600846006800F48050009000BFCF
:1017700000BFE0200190022002900020039003208F
:1017800004900520059001A92748FEF739FE44E0A2
:101790002649206888421FD100BF2248001F0068E8
:1017A00040F400401F49091F08600846006800F423
:1017B0000040009000BF00BF4FF4E05001900220B5
:1017C000029000200390032004900620059001A9B8
:1017D0001748FEF715FE20E01649206888421CD104
:1017E00000BF1048006840F400500E4908600846E9
:1017F000006800F40050009000BF00BF4FF4E040CC
:101800000190022002900020039003200490052004
:10181000059001A90848FEF7F3FD06B010BD0000D1
:10182000003001404438024000000240003C0040CB
:101830000008024000340140001002402DE9F84346
:1018400004460E4617461D464FF00008C146606824
:10185000B0F5827F0DD1A06858B9042084F85D00EE
:101860003B46324631462046009500F067F9BDE818
:10187000F88300BF94F85C00012801D10220F6E74C
:10188000012084F85C0000BFFEF7D0FE804694F88B
:101890005D00012802D04FF002098CE006B117B9B3
:1018A0004FF0010987E0042084F85D0000202066E5
:1018B0002664A4F84470A4F84670A063A087E0876B
:1018C000E0642065E068B0F5E06F06D92068406804
:1018D00020F480502168486005E02068406840F4AA
:1018E000805021684860A068B0F5004F05D120689D
:1018F000006820F48040216808602068006800F0DB
:101900004000402805D02068006840F04000216871
:101910000860E068B0F5E06F20D81AE020688068C1
:1019200000F0010048B12068007B3070761CB4F8EC
:101930004600401EA4F846000BE03DB1681C40B1D3
:10194000FEF774FEA0EB0800A84202D34FF0030993
:1019500031E0B4F846000028E0D11FE01AE020682A
:10196000806800F0010048B12068C0683080B61C73
:10197000B4F84600401EA4F846000BE03DB1681CD8
:1019800040B1FEF753FEA0EB0800A84202D34FF08F
:10199000030910E0B4F846000028E0D14246294689
:1019A000204601F02CFB08B120202066206E08B1F3
:1019B0004FF0010900BF012084F85D0000BF002046
:1019C00084F85C0000BF484651E72DE9F84304461F
:1019D0000D4617461E464FF00008C14600BF94F85A
:1019E0005C00012802D10220BDE8F883012084F8C0
:1019F0005C0000BFFEF71AFE804694F85D000128E7
:101A000002D04FF002098FE005B117B94FF001097C
:101A10008AE0032084F85D0000202066A563A78784
:101A2000E7872064A4F84400A4F846002065E06439
:101A3000A068B0F5004F05D12068006840F48040F0
:101A4000216808602068006800F04000402805D048
:101A50002068006840F0400021680860E068B0F548
:101A6000E06F1ED919E02068806800F002000228AB
:101A700007D128882168C860AD1CE08F401EE08730
:101A80000BE03EB1701C40B1FEF7D0FDA0EB0800AA
:101A9000B04202D34FF0030946E0E08F0028E2D1C4
:101AA00028E024E02068806800F00200022812D1BB
:101AB000E08F012807D928882168C860AD1CE08F15
:101AC000801EE08713E015F8010B21680873E08F92
:101AD000401EE0870BE03EB1701C40B1FEF7A6FD52
:101AE000A0EB0800B04202D34FF003091CE0E08FE6
:101AF0000028D7D142463146204601F0C1FA08B14C
:101B000020202066A06850B900BF00200090206807
:101B1000C068009020688068009000BF00BF206E01
:101B200008B14FF0010900BF012084F85D0000BF3B
:101B3000002084F85C0000BF484655E72DE9FC5FB3
:101B400004460D4616461F46DDF830804FF0000A69
:101B50000020019081464FF0010B009000BF94F8E7
:101B60005C00012802D10220BDE8FC9F012084F81E
:101B70005C0000BFFEF75AFD814694F85DA06068E6
:101B80000190BAF1010F0BD00198B0F5827F04D11A
:101B9000A06810B9BAF1040F02D002200090FCE056
:101BA0000DB106B117B901200090F6E094F85D0080
:101BB000042802D0052084F85D00002020662664F9
:101BC000A4F84670A4F84470A563E787A787E0648B
:101BD0002065E068B0F5E06F03D8B4F8460001284E
:101BE00006DD2068406820F480502168486005E0E8
:101BF0002068406840F48050216848602068006890
:101C000000F04000402805D02068006840F0400007
:101C100021680860E068B0F5E06F47D9606810B1EE
:101C2000E08F012806D128882168C860AD1CE08FAC
:101C3000401EE08732E0BBF1000F10D0E08F70B1A2
:101C40002068806800F00200022808D128882168F6
:101C5000C860AD1CE08F401EE0874FF0000BB4F869
:101C6000460078B12068806800F0010050B120681B
:101C7000C0683080B61CB4F84600401EA4F8460088
:101C80004FF0010B08F1010040B1FEF7CFFCA0EBD3
:101C90000900404502D3032000907EE0E08F002839
:101CA000C9D1B4F846000028C5D169E0606810B118
:101CB000E08F012806D12878216808736D1CE08F19
:101CC000401EE08755E0BBF1000F1BD0E08FC8B18C
:101CD0002068806800F00200022813D1E08F0128FC
:101CE00007D928882168C860AD1CE08F801EE08776
:101CF00006E015F8010B21680873E08F401EE087AD
:101D00004FF0000BB4F8460038B32068806800F04C
:101D1000010010B3B4F84600012813D92068C06848
:101D20003080B61CB4F84600801EA4F84600B4F813
:101D3000460001280FD82068406840F48050216890
:101D4000486008E02068007B06F8010BB4F8460004
:101D5000401EA4F846004FF0010B08F1010040B10D
:101D6000FEF764FCA0EB0900404502D3032000907D
:101D700013E0E08F0028A6D1B4F846000028A2D1D5
:101D80004A464146204601F07BF908B120202066F2
:101D9000206E08B10120009000BF012084F85D0092
:101DA00000BF002084F85C0000BF0098DCE6042837
:101DB00008D14FF0E021096941F004014FF0E02221
:101DC000116107E04FF0E021096921F004014FF0B3
:101DD000E02211617047704770B504462546681EC1
:101DE000B0F1807F01D301200FE0681E4FF0E021A9
:101DF00048610F214FF0FF3001F0ECF800204FF068
:101E0000E021886107200861002070BD10B5FFF750
:101E1000E2FF10BD7047704730B502460B4600BF69
:101E200092F83C00012801D1022030BD012082F847
:101E30003C0000BF10684168106884680F4D10684E
:101E4000A84203D00E4D1068A84203D121F47001BE
:101E50005868014321F070011868014324F08004A0
:101E600098680443106841601068846000BF0020D7
:101E700082F83C0000BF00BFD7E70000000001402F
:101E80000004014010B504460CB9012010BD94F8BF
:101E90003D0028B9002084F83C00204600F00CF8F2
:101EA000022084F83D00211D206801F089FA0120FC
:101EB00084F83D000020E9E738B504460D49206864
:101EC000884215D100BF0C48006840F001000A4963
:101ED00008600846006800F00100009000BF00BFE5
:101EE000002211461920FEF707FC1920FEF7F7FB28
:101EF00038BD000000000140443802400146086837
:101F0000C06840F001000A68D0600868006840F0CE
:101F100001000A6810600020704700002DE9F041C0
:101F200004460D46002600BF94F83C00012802D16B
:101F30000220BDE8F081012084F83C0000BF0220AF
:101F400084F83D00206886684148064026F47F46B4
:101F500020688660286850283CD00CDC202861D09E
:101F600004DC002854D0102866D156E030285ED01A
:101F7000402861D142E0602836D070280ED0B0F5FC
:101F8000805F03D0B0F5005F56D116E0206880680E
:101F90002F4970310840216888604EE0D5E902136E
:101FA0006A68206801F084FA20688668284806403C
:101FB00046F07706206886603FE0D5E902136A683C
:101FC000206801F075FA2068806840F4804021683C
:101FD000886032E0EA686968206801F07FFA502181
:101FE000206801F071FA28E0EA686968206801F069
:101FF0008AFA6021206801F067FA1EE0EA686968E1
:10200000206801F06BFA4021206801F05DFA14E0CD
:102010000021206801F058FA0FE01021206801F03B
:1020200053FA0AE02021206801F04EFA05E0302141
:10203000206801F049FA00E000BF00BF012084F8E9
:102040003D0000BF002084F83C0000BF00BF70E7E7
:1020500088FFFEFF704710B5044620680069C0F392
:102060004000D8B12068C068C0F34000B0B16FF044
:10207000020021680861012020772068806900F053
:10208000030018B12046FFF7E5FF05E0204600F009
:10209000BEF8204600F0BCF80020207720680069D8
:1020A000C0F38000D8B12068C068C0F38000B0B130
:1020B0006FF00400216808610220207720688069A1
:1020C00000F4407018B12046FFF7C4FF05E0204639
:1020D00000F09DF8204600F09BF800202077206853
:1020E0000069C0F3C000D8B12068C068C0F3C00068
:1020F000B0B16FF0080021680861042020772068E3
:10210000C06900F0030018B12046FFF7A3FF05E007
:10211000204600F07CF8204600F07AF80020207776
:1021200020680069C0F30010D8B12068C068C0F30F
:102130000010B0B16FF0100021680861082020770E
:102140002068C06900F4407018B12046FFF782FF94
:1021500005E0204600F05BF8204600F059F800202A
:1021600020772068006900F0010058B12068C0683D
:1021700000F0010030B16FF00100216808612046D5
:1021800000F048F820680069C0F3C01058B120681A
:10219000C068C0F3C01030B16FF0800021680861E2
:1021A0002046FFF737FE20680069C0F3002058B1D1
:1021B0002068C068C0F3C01030B16FF080002168A3
:1021C00008612046FFF726FE20680069C0F38010F2
:1021D00058B12068C068C0F3801030B16FF0400083
:1021E00021680861204600F05FF820680069C0F3AC
:1021F000401058B12068C068C0F3401030B16FF093
:102200002000216808612046FFF705FE10BD7047D9
:102210007047000010B504461E4800683221B0FB2C
:10222000F1F201FB120038B910201B4908700A2393
:1022300001221A4800F007FA1648006819303221C6
:10224000B0FBF1F201FB120038B9112012490870FD
:102250000A230122114800F0F6F980211048FEF708
:10226000DBF90C480068401C0A4908600846006811
:10227000B0F57A7F0CD3012008600A480068401C42
:102280000849086008460068642801D300200860F7
:1022900010BD00000000002008000020680200209F
:1022A0000004024004000020704770472DE9F0410F
:1022B00004462068C569206806682068876805F0BC
:1022C0000F08B8F1000F0AD105F0200038B106F070
:1022D000200020B1204601F0F4F9BDE8F081B8F10A
:1022E000000F7BD007F0010018B906F490700028A9
:1022F00074D005F0010048B106F4807030B10120BF
:1023000021680862E06E40F00100E06605F002001E
:1023100048B107F0010030B1022021680862E06E88
:1023200040F00400E06605F0040048B107F0010049
:1023300030B1042021680862E06E40F00200E066DF
:1023400005F0080060B106F0200010B907F00100A8
:1023500030B1082021680862E06E40F00800E066B5
:10236000E06E58B305F0200028B106F0200010B14F
:10237000204601F0A6F9E06E00F0080020B92068C0
:10238000806800F0400018B3204601F07AF9206818
:10239000806800F04000B8B12068806820F04000FC
:1023A00021688860606E50B11748616E0865606E84
:1023B000FDF7C1FF10B1606E016D88470DE020464A
:1023C000FFF773FF09E009E02046FFF76EFF04E026
:1023D0002046FFF76AFF0020E0667EE705F08000F8
:1023E00030B106F0800018B1204601F075FB74E7AB
:1023F00005F0400030B106F0400018B1204601F071
:1024000050F96AE700BF68E76B36000810B504466C
:102410000CB9012010BDA06900B100E000BF94F824
:10242000690028B9002084F86800204600F02AF8E6
:10243000242084F869002068006820F001002168E9
:102440000860204601F082F9012800D1E2E7606AC5
:1024500010B1204601F06DF82068406820F49040EB
:10246000216848602068806820F02A002168886020
:102470002068006840F0010021680860204601F0F3
:10248000CDF8C7E710B586B00446384920688842C1
:102490001DD100BF3648006840F480103449086000
:1024A0000846006800F48010009000BF00BF4FF4A1
:1024B00040500190022002900120039003200490DC
:1024C0000820059001A92B48FDF79AFF4BE02A4907
:1024D000206888421CD100BF2548006840F0804039
:1024E000234908600846006800F08040009000BF63
:1024F00000BFC02001900220029001200390032021
:1025000004900820059001A91C48FDF779FF2AE0F6
:102510001B492068884226D100BF1548001D00686D
:1025200040F020001249091D08600846006800F0CC
:102530002000009000BF00BF4FF4844001900220B3
:10254000029001200390032004900820059001A927
:102550000C48FDF755FF002201214720FEF7CCF87B
:102560004720FEF7BCF806B010BD00000050004048
:10257000403802400004024000780040001402404D
:10258000001401400018024010B5034693F86A0099
:10259000202855D101B10AB9012010BD00BF93F820
:1025A0006800012801D10220F7E7012083F86800C4
:1025B00000BF5965A3F85820A3F85A2000BF9868B7
:1025C000B0F5805F0AD1186920B940F2FF10A3F876
:1025D0005C001CE0FF20A3F85C0018E0986848B994
:1025E000186918B9FF20A3F85C0010E07F20A3F859
:1025F0005C000CE09868B0F1805F08D1186918B9E8
:102600007F20A3F85C0002E03F20A3F85C0000BF3D
:102610000020D866222083F86A0000BF002083F8DB
:10262000680000BF1868806840F001001C68A06066
:102630001868006840F490701C6820600020ACE7C7
:102640000220AAE770472DE9F84304460D461646D6
:102650001F464FF0000994F86900202854D105B1B5
:1026600016B90120BDE8F88300BF94F8680001287E
:1026700001D10220F6E7012084F8680000BF0020A5
:102680005034E06121206076FDF7D0FF814626803E
:102690006680503C21E0B4F85200401EA4F852007D
:1026A0004B46002280212046009701F04AFA08B1EB
:1026B0000320D7E7A068B0F5805F0AD1206940B950
:1026C000A846B8F80000C0F3080021688862AD1C75
:1026D00003E015F8010B21688862B4F85200002865
:1026E000D9D14B46002240212046009701F029FA1B
:1026F00008B10320B6E7202084F8690000BF00205D
:1027000084F8680000BFADE70220ABE7704738B53A
:10271000044694F8920000F00F0040F08000009012
:10272000204600F06BF801231A4669462046FFF761
:102730004CF9204600F025F838BD38B50446CD20C8
:102740000090204600F05AF80A23012269462046EC
:10275000FFF73BF90A23032204F194012046FFF717
:102760006DF8204600F00DF894F8940001049520CF
:10277000005D41EA00209621095D0843C4F89800F5
:1027800038BD10B50446B4F878100122606FFDF72B
:1027900047FF10BD70B50446204600F01CF82046E7
:1027A00000F022F80A20FDF7DAFD05252A4601216E
:1027B000204600F02CF80A20FDF7D1FD94F8930094
:1027C00040F008052A460221204600F020F80A20A1
:1027D000FDF7C5FD70BD10B50446B4F880100122A8
:1027E000E06FFDF71DFF10BD10B50446B4F888106A
:1027F0000022D4F88400FDF713FF10BD10B5044685
:10280000B4F878100022606FFDF70AFF10BD37B5ED
:1028100082B005460C4604F01F00802141EA4000CA
:1028200040F0400001902846FFF7E8FF0A2301220C
:1028300001A92846FFF7C9F80A23012204A928465E
:10284000FFF7C3F82846FFF79CFF05B030BD000036
:1028500010B53E2225492648FDF71BFD2348C08FB1
:102860002349C887084621490A6C0264B1F844101C
:10287000A0F844101D48B0F846001D49A1F84600D4
:1028800015221A4948311A484830FDF702FD174809
:1028900090F85D00164981F85D001448006E0866E6
:1028A000144848674020A1F878001248C86780158E
:1028B000A1F880000F48C1F884004015A1F88800F5
:1028C0000D48C1F88C008020A1F890000A2081F802
:1028D0009200052081F893001421054801676430B7
:1028E00001F07FF90248FFF755FF10BD1C000020E2
:1028F000D8020020000402400008024010B53E2229
:1029000029492A48FDF7C5FC2748C08F2749C887B1
:10291000084625490A6C0264B1F84410A0F8441036
:102920002148B0F846002149A1F8460015221E4969
:1029300048311E484830FDF7ACFC1B4890F85D005C
:102940001A4981F85D001848006E08661848486703
:102950004FF40050A1F878001648C8674FF40050B3
:10296000A1F880001348C1F884008014A1F8880001
:102970001148C1F88C004FF40040A1F890000F48B6
:1029800090F8920081F892000C4890F8930081F83A
:1029900093000A48016F05480167643001F021F98E
:1029A0000248FFF7F7FE10BDE40000207803002086
:1029B00000140240000C024000100240D802002027
:1029C00000B587B000BFA748006840F00400A549E3
:1029D00008600846006800F00400019000BF00BFD6
:1029E00000BF0846006840F0200008600846006804
:1029F00000F02000019000BF00BF00BF0846006843
:102A000040F0800008600846006800F080000190F7
:102A100000BF00BF00BF0846006840F0010008602A
:102A20000846006800F00100019000BF00BF00BF31
:102A30000846006840F0100008600846006800F092
:102A40001000019000BF00BF00BF0846006840F0C2
:102A5000020008600846006800F00200019000BF14
:102A600000BF00BF0846006840F008000860084644
:102A7000006800F00800019000BF00BF00BF0846DA
:102A8000006840F0400008600846006800F0400020
:102A9000019000BF00BF00224FF400517248FDF7C3
:102AA000BFFD002244F2C0317048FDF7B9FD00229D
:102AB00043F204016E48FDF7B3FD002240216D484A
:102AC000FDF7AEFD00224FF400416B48FDF7A8FD75
:102AD0004FF400500290694803900020049002A92E
:102AE0006748FDF78DFC3220029002200390002001
:102AF0000490032005900B20069002A96048FDF782
:102B00007FFC062002900220039000200490032006
:102B100005900B20069002A95748FDF771FC4FF471
:102B2000005002900120039000200490059002A91B
:102B30004D48FDF765FC4FF400400290514803906A
:102B40000020049002A95048FDF75AFC44F2C0301E
:102B500002900120039000200490059002A94348B0
:102B6000FDF74EFC4FF440700290022003900020CD
:102B70000490032005900720069002A93C48FDF729
:102B80003FFC43F2040002900120039000200490D7
:102B9000059002A93648FDF733FC40200290012041
:102BA000039000200490059002A93248FDF728FC0C
:102BB0008020029000200390049002A92D48FDF788
:102BC0001FFC802002902F4803900020049002A94F
:102BD0002B48FDF715FC4FF4E850029002200390BB
:102BE00000200490032005900A20069002A92248A4
:102BF000FDF706FC4FF40070029000200390049053
:102C000002A91D48FDF7FCFB4FF400400290012093
:102C1000039000200490059002A91748FDF7F0FBEF
:102C20004FF42050029002200390002004900320D3
:102C300005900B20069002A90E48FDF7E1FB00224B
:102C400001211720FDF758FD1720FDF748FD002250
:102C500001212820FDF750FD2820FDF740FD07B099
:102C600000BD000030380240001402400004024061
:102C7000000C024000180240000002400000111049
:102C800000080240000021100010024010B5134857
:102C9000134908604FF48270486000211048816039
:102CA0004FF4E061C1600021016141614FF40071A6
:102CB00081611821C16100210162416281620721A5
:102CC000C162002101634163FEF7D8FC20B14FF4DB
:102CD000B97104A000F074FF10BD00000030014085
:102CE0001C0000202E2E2F5372632F6D61696E2EF3
:102CF0006300000010B51348134908604FF4827058
:102D000048600021104881604FF4E061C1600021FB
:102D1000016141614FF4007181611821C16100219D
:102D20000162416281620721C16200210163416346
:102D3000FEF7A4FC20B14FF4C67104A000F040FFE0
:102D400010BD0000003C0040800000202E2E2F53BC
:102D500072632F6D61696E2E6300000010B5134819
:102D6000134908604FF48270486000211048816068
:102D70004FF4E061C1600021016141614FF40071D5
:102D800081611821C16100210162416281620721D4
:102D9000C162002101634163FEF770FC20B14FF472
:102DA000D37104A000F00CFF10BD000000340140FE
:102DB000E40000202E2E2F5372632F6D61696E2E5A
:102DC0006300000000B587B019481A490860632005
:102DD000486000211748816040F2E731C16000215E
:102DE000016141618161FFF74DF820B140F2BB11F3
:102DF00011A000F0E5FE4FF48050039003A90D48A8
:102E0000FFF78CF820B140F2C1110BA000F0D8FE02
:102E1000002000900190029069460648FEF7FCFFF2
:102E200020B140F2C91104A000F0CAFE07B000BDF5
:102E300000000140480100202E2E2F5372632F6D99
:102E400061696E2E6300000010B50F480F490860DD
:102E50004FF4E1304860C1040C4881600021C1603A
:102E600001610C21416100218161C1610162002089
:102E7000064948620846FFF7C9FA20B14FF4EF71DE
:102E800003A000F09DFE10BD00500040880100200E
:102E90002E2E2F5372632F6D61696E2E630000001A
:102EA00010B50F480F4908604FF4E1304860C10485
:102EB0000C4881600021C16001610C214161002149
:102EC0008161C16101620020064948620846FFF73E
:102ED0009DFA20B140F2F31103A000F071FE10BD85
:102EE00000780040F80100202E2E2F5372632F6DC2
:102EF00061696E2E6300000010B50F480F4908602D
:102F00004FF4E130486000210C488160C1600161EC
:102F10000C21416100218161C161016200200749EA
:102F200048620846FFF772FA20B14FF4027104A01C
:102F300000F046FE10BD00000014014068020020B1
:102F40002E2E2F5372632F6D61696E2E6300000069
:102F500070B500234C68641CCD6894FBF5F605FB46
:102F600016440D68AC420ED1D1E9015454F8254005
:102F70000E688D6855F82650651BCC68641E95FB5D
:102F8000F4F4204419E04A680AE08C6854F82240BE
:102F900023440125CC6895FBF4F604FB1654121B60
:102FA0000125CC6895FBF4F604FB1654141B0D6840
:102FB000AC42EADA4C6893FBF4F000EE100AB8EE8B
:102FC000400A70BD02480068C0F30220704700004C
:102FD0000CED00E010B5002807DA0A07140E054AC8
:102FE00000F00F031B1FD45403E00A07130E024A1C
:102FF000135410BD18ED00E000E400E07047F8B590
:1030000004460E4615466068B0F5827F0DD1A06873
:10301000B0F5004F03D0A068B0F5806F05D12068EF
:10302000006820F0400021680860334600228021BB
:103030002046009500F0AFF828B1206E40F0200047
:1030400020660320F8BD6068B0F5827F16D1A068C5
:10305000B0F5004F03D0A068B0F5806F0ED13346B5
:1030600000224FF4C0612046009500F03BF828B1E3
:10307000206E40F0200020660320E3E70020E1E717
:10308000F8B504460E461546334600224FF4C051AB
:103090002046009500F026F828B1206E40F0200070
:1030A00020660320F8BD334600228021204600958B
:1030B00000F071F828B1206E40F020002066032057
:1030C000F0E7334600224FF4C0612046009500F03F
:1030D00009F828B1206E40F0200020660320E1E7C7
:1030E0000020DFE72DE9F84304460E4617461D464B
:1030F000DDF8208048E0B6F5C06F05D127B920681B
:10310000007B00909DF80000681CE0B32DB1FDF736
:103110008DFAA0EB0800A84236D32068406820F062
:10312000E000216848606068B0F5827F0DD1A0683A
:10313000B0F5004F03D0A068B0F5806F05D12068CE
:10314000006820F0400021680860A06AB0F5005FC8
:103150000ED100BF206800684DF6FF71084021685D
:1031600008602068006840F400502168086000BFD3
:10317000012084F85D0000BF002084F85C0000BFDF
:103180000320BDE8F883FFE7206880683040B8423C
:10319000B1D10020F5E72DE9F04104460E4617466F
:1031A0001D46DDF818803FE0681CE0B32DB1FDF747
:1031B0003DFAA0EB0800A84236D32068406820F012
:1031C000E000216848606068B0F5827F0DD1A0689A
:1031D000B0F5004F03D0A068B0F5806F05D120682E
:1031E000006820F0400021680860A06AB0F5005F28
:1031F0000ED100BF206800684DF6FF7108402168BD
:1032000008602068006840F400502168086000BF32
:10321000012084F85D0000BF002084F85C0000BF3E
:103220000320BDE8F081FFE7206880683040B842A5
:10323000BAD10020F5E7704710B5FDF7FDF9FEF7AC
:10324000E5FD10BD10B5B8B000BF3A48006840F0C9
:103250008050384908600846006800F080500190AE
:1032600000BF00BF00BF3448006840F4404032490E
:1032700008600846006800F44040019000BF00BFAD
:1032800002202B9001202E9010202F9002203190B0
:1032900000212BA8C16108210162C82141620221DD
:1032A0008162C162FDF78EFF20B140F22F1123A091
:1032B00000F086FCFDF772FA20B14FF49B711FA05D
:1032C00000F07EFC0F2026900220279000202890FE
:1032D0004FF4A05029902A90062126A8FDF752FE0F
:1032E00020B14FF4A27115A000F06AFC4FF4E05039
:1032F0000290002017901890199002A8FDF796FAF6
:1033000020B14FF4A7710DA000F05AFCFDF7ECFEC0
:103310004FF47A71B0FBF1F42046FEF75DFD042016
:10332000FEF745FD00221146501EFDF7E5F938B0C5
:1033300010BD000040380240007000402E2E2F5378
:1033400072632F6D61696E2E63000000144800687F
:1033500040F47000124908601248006840F0010013
:103360001049086000200F49083108600D480068C6
:103370000D4908400B4908600C48091D0860081FEA
:10338000006820F48020091F0860002005490C31E6
:1033900008604FF000600249803908607047000003
:1033A00088ED00E000380240FFFFF6FE10300024F8
:1033B00010B50248FEF74FFE10BD00004801002086
:1033C00010B5002202682F4B98420ED0B0F1804F0A
:1033D0000BD02D4B984208D02C4B984205D02C4B4B
:1033E000984202D02B4B984201D1012300E00023E8
:1033F0001BB122F070024B681A43224B984220D036
:10340000B0F1804F1DD0204B98421AD01F4B9842EC
:1034100017D01F4B984214D01E4B984211D01E4B10
:1034200098420ED01D4B98420BD01D4B984208D0AD
:103430001C4B984205D01C4B984202D01B4B984223
:1034400001D1012300E000231BB122F44072CB68BC
:103450001A4322F080034C6943EA040202608B683D
:10346000C3620B688362074B984202D0094B9842B3
:1034700001D1012300E000230BB10B690363012399
:10348000436110BD000001400004004000080040FE
:10349000000C004000040140004001400044014095
:1034A0000048014000180040001C0040002000407F
:1034B00030B50C460021816821F47F4142EA0325A2
:1034C00025432943816030BD0A460021816821F0EF
:1034D000700142F0070319438160704730B50B4615
:1034E000144600210022026A056A25F001050562E2
:1034F000816921F0F00141EA041122F00A021A4325
:103500008161026230BD30B50B46144600210022B5
:10351000056A25F0100505628169026A21F470418F
:1035200041EA043122F0A00242EA03128161026200
:1035300030BD90F8241001F0010139B101684968EB
:1035400021F40031826A11430268516090F824101E
:1035500001F0020139B10168496821F48031C26A81
:1035600011430268516090F8241001F0040139B150
:103570000168496821F48021026B1143026851609F
:1035800090F8241001F0080139B10168496821F46C
:103590000041426B11430268516090F8241001F021
:1035A000100139B10168896821F48051826B11439F
:1035B0000268916090F8241001F0200139B101688F
:1035C000896821F40051C26B11430268916090F840
:1035D000241001F0400199B10168496821F480117B
:1035E000026C114302685160016CB1F5801F07D174
:1035F0000168496821F4C001426C114302685160BE
:1036000090F8241001F0800139B10168496821F473
:103610000021826C114302685160704738B504463E
:1036200000250020E066FDF701F8054620680068E7
:1036300000F0080008280CD16FF07E402B460022D5
:103640004FF400110090204600F07BFA08B10320EF
:1036500038BD202084F8690084F86A0000BF00208B
:1036600084F8680000BF00BFF2E770B50546AC6B98
:103670000020A4F85A00A4F852002046FEF715FED8
:1036800070BD0168096821F49071026811600168D9
:10369000896821F0010102689160202180F86A1098
:1036A000704710B504462068006820F0400021688B
:1036B0000860202084F869002046FFF727F80020E2
:1036C00010BD70B50446B4F85C6094F86A00222816
:1036D00033D1A068B0F5805F0AD1206940B9656D2B
:1036E0002068406A30402880606D801C606507E07B
:1036F0002068406AF1B20840626D511C616510702B
:10370000B4F85A00401E80B2A4F85A0098B9206854
:10371000006820F49070216808602068806820F0BC
:10372000010021688860202084F86A002046FEF7A6
:1037300089FF002070BD0020FCE72068806940F010
:103740000800216888610220F4E700002DE9F047B5
:103750000446002510260027A846A9462169A0682E
:10376000084361690843E16940EA0105206800688F
:10377000CD4908402843216808602068406820F44B
:103780004050E168084321684860216AA06940EA26
:1037900001052068806820F4306028432168886033
:1037A00000BFC2492068884215D1C148006800F0B6
:1037B000030030B1012808D0022804D0032808D122
:1037C00005E0012606E0022604E0042602E00826C1
:1037D00000E000BFC1E0B7492068884215D1B44875
:1037E000006800F00C0030B1042808D0082804D08C
:1037F0000C2808D105E0002606E0022604E0042695
:1038000002E0082600E000BFA7E0AB49206888423C
:1038100015D1A748006800F0300030B1102808D05A
:10382000202804D0302808D105E0002606E0022632
:1038300004E0042602E0082600E000BF8DE09F4976
:103840002068884215D19A48006800F0C00030B165
:10385000402808D0802804D0C02808D105E00026E0
:1038600006E0022604E0042602E0082600E000BF8D
:1038700073E093492068884218D18D48006800F4AD
:10388000407048B1B0F5807F0AD0B0F5007F05D018
:10389000B0F5407F08D105E0002606E0022604E0EE
:1038A000042602E0082600E000BF56E085492068B3
:1038B000884218D17E48006800F4406048B1B0F5F5
:1038C000806F0AD0B0F5006F05D0B0F5406F08D119
:1038D00005E0012606E0022604E0042602E00826B0
:1038E00000E000BF39E078492068884218D170486C
:1038F000006800F4405048B1B0F5805F0AD0B0F5E0
:10390000005F05D0B0F5405F08D105E0002606E075
:10391000022604E0042602E0082600E000BF1CE0C6
:103920006A492068884218D16148006800F4404024
:1039300048B1B0F5804F0AD0B0F5004F05D0B0F5D2
:10394000404F08D105E0002606E0022604E00426E8
:1039500002E0082600E000BF00BF00BFE069B0F54C
:10396000004F52D1042E2BD005DC4EB1012E12D0C7
:10397000022E3BD11AE0082E2DD0102E36D136E083
:10398000FDF7B8FB4000616800EB5100B0FBF1F0BF
:103990001FFA80F82EE0FDF7BDFB4000616800EBE8
:1039A0005100B0FBF1F01FFA80F823E0484960684D
:1039B00001EB50006168B0FBF1F01FFA80F819E0EC
:1039C000FDF7B8FB4000616800EB5100B0FBF1F07F
:1039D0001FFA80F80EE04FF48031606801EB500070
:1039E0006168B0FBF1F01FFA80F803E000BF4FF010
:1039F000010900BF00BF4FF6F07008EA0007C8F3E6
:103A0000420007432068C7604AE0042E2CD005DC42
:103A10004EB1012E12D0022E3DD11AE0082E2ED02A
:103A2000102E38D138E0FDF765FB616800EB5100DE
:103A3000B0FBF1F080B22168C86030E0FDF76AFBAE
:103A4000616800EB5100B0FBF1F080B22168C86002
:103A500025E02049606801EB50006168B0FBF1F09F
:103A600080B22168C8601AE0FDF764FB616800EB72
:103A70005100B0FBF1F080B22168C8600FE04FF454
:103A80000041606801EB50006168B0FBF1F080B26A
:103A90002168C86003E000BF4FF0010900BF00BF0C
:103AA0004846BDE8F0870000F369FFEF00100140D1
:103AB000903802400044004000480040004C004064
:103AC000005000400014014000780040007C00409D
:103AD0000048E8010024F400014691F8690021281B
:103AE0002DD1B1F8520068B90868006820F0800054
:103AF0000B6818600868006840F040000B681860A8
:103B0000002070478868B0F5805F0BD1086948B91C
:103B1000CA6C1088C0F308000B689862C86C801CDF
:103B2000C86405E0CB6C581CC86418780B689862B0
:103B3000B1F85200401EA1F852000020E1E7022037
:103B4000DFE72DE9F04104460D4617469846069EEC
:103B500021E0701CF8B12EB1FCF768FDA0EB080065
:103B6000B04218D32068006820F4D0702168086043
:103B70002068806820F0010021688860202084F897
:103B8000690084F86A0000BF002084F8680000BF64
:103B90000320BDE8F0812068C0692840A84201D117
:103BA000012000E00020B842D3D00020F1E700005F
:103BB00010B50248FEF77AFB10BD00006802002035
:103BC00000BFFEE702E008C8121F08C1002AFAD1B0
:103BD00070477047002001E001C1121F002AFBD18D
:103BE000704710B50446E068401CE060E16888005A
:103BF00000F08EF9A060204600F049F810BD10B525
:103C00000446204600F051F808B1002010BD2046BF
:103C100000F054F838B12068401CE16890FBF1F2E4
:103C200001FB120020602068F0E770B504460D46E5
:103C3000666808E0701CE16890FBF1F201FB120677
:103C4000A06840F82650701CE16890FBF1F201FB7F
:103C500012012068401CE26890FBF2F302FB1300A3
:103C60008142E7D1204600F029F810B12046FFF745
:103C7000C6FF6068401CE16890FBF1F201FB120096
:103C80006060D4E9011040F82150606870BD0022E6
:103C900002604260002104E00022836843F8212092
:103CA000491CC2688A42F7DC70470146D1E900022C
:103CB000904201D1012070470020FCE7014648688E
:103CC000401CCA6890FBF2F302FB13000A689042A2
:103CD00001D1012070470020FCE7000088B00024DB
:103CE000A1460026FCF7B0FCFFF7ACFAFEF768FE31
:103CF000FFF702F9FEF7FEFFFFF730F8FEF7C6FF09
:103D0000FFF7CEF8FFF7A0F8FFF75CF8FEF7A0FD8D
:103D1000FEF7F4FD7648FEF7F1F87648FEF7F7FC7B
:103D20007548FEF7F4FC012291037448FCF778FC17
:103D300065E0092272497348FEF726FC00242BE057
:103D40006F48005D802826D16F4D6D49601C085C6E
:103D500010280DD1A01C085C0104694AE01C105C0D
:103D600041EA0020211D515C08432946086015E006
:103D70006349601C085C11280DD1A01C085C01047B
:103D80005F4AE01C105C41EA0020211D515C0843A1
:103D90005D49486002E0641C092CD1DB00BF554836
:103DA000D0F89C00584988605348D0F89C00C860FF
:103DB0004FF000091EE0544850F8240000F07F4006
:103DC00020B155F82400504941F82400684600EB22
:103DD000C400D0E900304C4951F82410591840F182
:103DE00000006A4602EBC402C2E9001009F10100BA
:103DF0001FFA80F9B9F1040FDDDB701C86B243486D
:103E00000068062895D900240EE0684600EBC4003F
:103E100032460023D0E900713846FCF709FA6A46B9
:103E200002EBC40203C2641C042CEEDB00224FF43C
:103E300080413248FCF7F4FB58E009223049314810
:103E4000FEF7A2FB00244EE02D48005D80282AD119
:103E50002D4D2B49601C085C10280FD1A01C085C5C
:103E60000104274AE01C105C41EA0020211D515C3E
:103E700008430099401A2946086036E02049601C32
:103E8000085C11280FD1A01C085C01041C4AE01C2E
:103E9000105C41EA0020211D515C08430299401A40
:103EA0001949486021E01348D0F89C000499401A51
:103EB000154988601048D0F89C000699401A1249AC
:103EC000C8604FF000040BE00F4850F8240000F0E9
:103ED0007F4020B155F824000B4941F82400641CB0
:103EE000042CF1DB641C092CAEDB00BFA5E700004D
:103EF00048010020D802002078030020000402407E
:103F0000100700206802002028070020040000207D
:103F1000F0B50B30154D20F007010024144A0FE0D6
:103F200003688B420BD38B4205D95E1A431847684E
:103F3000C3E9006700E04368136002C004E0021DAB
:103F400010680028ECD12046002802D1286808B16A
:103F50000020F0BD064A07481060074A121A22F0F6
:103F60000702C0E9002401202860D7E718000020DC
:103F7000140000203C070020380900200000000049
:103F80000000000001020304060708090000000009
:103F900001020304B43F0008000000201C000000E0
:103FA000C43B0008D03F00081C0000201C0D00008E
:103FB000D43B0008010000000000000000000000E9
:103FC000000000000024F4000000000000000000D9
:04000005080001F9F5
:00000001FF
