:020000040800F2
:10000000B00500200D0200081502000817020008C4
:10001000190200081B0200081D0200080000000071
:10002000000000000000000000000000F3260008AF
:100030002102000800000000B9240008F52600088D
:1000400027020008270200082702000827020008EC
:1000500027020008270200082702000827020008DC
:1000600027020008270200082702000827020008CC
:1000700027020008270200082702000827020008BC
:1000800027020008270200082702000827020008AC
:10009000270200082702000827020008270200089C
:1000A000270200082702000827020008270200088C
:1000B000270200082702000827020008270200087C
:1000C000270200082702000827020008270200086C
:1000D000270200082702000827020008270200085C
:1000E000270200082702000827020008270200084C
:1000F000270200082702000827020008270200083C
:10010000270200082702000827020008270200082B
:10011000270200082702000827020008270200081B
:10012000270200082702000827020008270200080B
:1001300027020008270200082702000827020008FB
:1001400027020008270200082702000827020008EB
:1001500027020008270200082702000827020008DB
:1001600027020008270200082702000827020008CB
:1001700027020008270200082702000800000000EC
:1001800027020008270200082702000827020008AB
:10019000270200082702000827020008270200089B
:1001A000270200082702000827020008270200088B
:1001B000270200082702000827020008270200087B
:1001C000270200082702000800000000270200089C
:1001D000270200082702000827020008270200085B
:1001E000270200082702000827020008270200084B
:1001F0002702000827020008DFF80CD000F018F8EA
:10020000004800479D2D0008B005002006488047A3
:1002100006480047FEE7FEE7FEE7FEE7FEE7FEE7EB
:10022000FEE7FEE7FEE7FEE7E5270008F901000824
:10023000064C074D06E0E06840F0010394E8070033
:1002400098471034AC42F6D3FFF7DAFF6C2E000863
:100250008C2E000831B5002400F01CF9044600BFC4
:1002600000F018F9001B00998842F9D338BD00004E
:10027000F8B502460B46002100250024002000BFEF
:10028000E4E0012606FA01F51E6806EA0504AC4220
:1002900071D15E68022E02D05E68122E13D1CF0893
:1002A00002F1200656F827004E07F70E0F26BE4033
:1002B000B0434F07FF0E1E69BE403043CF0802F126
:1002C000200646F8270010684F000326BE40B043C2
:1002D0001E7906F003064F00BE40304310605E6892
:1002E000012E08D05E68022E05D05E68112E02D065
:1002F0005E68122E13D190684F000326BE40B043B3
:100300004F00DE68BE4030439060506801268E404A
:10031000B0431E79C6F300168E4030435060D0685B
:100320004F000326BE40B0434F009E68BE4030439E
:10033000D0605E6806F08056B6F1805FA8D100BF3D
:10034000444E366846F48046424F3E603E4636682C
:1003500006F48046009600BF00BF3F4E8F0856F857
:1003600027008E07370F0F26BE40B0433B4EB242E8
:1003700002D100262EE068E0394EB24201D10126BA
:1003800028E0384EB24201D1022623E0364EB24276
:1003900001D103261EE0354EB24201D1042619E0F8
:1003A000334EB24201D1052614E0324EB24201D1A1
:1003B00006260FE0304EB24201D107260AE02F4E4A
:1003C000B24201D1082605E02D4EB24201D10926E4
:1003D00000E00A268F073F0FBE4030431E4E8F08B5
:1003E00046F82700274E3068A0435E6806F4803642
:1003F000B6F5803F00D12043224E3060361D306874
:10040000A0435E6806F40036B6F5003F00D12043F5
:100410001C4E361D3060361D3068A0435E6806F401
:100420008016B6F5801F00D12043164E0836306086
:10043000361D3068A0435E6806F40016B6F5001F4E
:1004400000D120430F4E0C363060491C1029FFF4B8
:1004500018AFF8BD4438024008380140000002409F
:100460000004024000080240000C0240001002405C
:100470000014024000180240001C0240002002400C
:1004800000240240003C01400AB1816101E00B04FC
:100490008361704701480068704700000000002039
:1004A00002480068401C01490860704700000020B5
:1004B00010B5032000F086F8002000F005F800F0E9
:1004C00017F8002010BD000070B50446074800680A
:1004D0004FF47A71B0FBF1F5284601F0D1FC00220F
:1004E0002146501E00F02FF8002070BD04000020AF
:1004F00010B5032000F066F8002211466FF00B00E3
:1005000000F021F8002211466FF00A0000F01BF8FD
:10051000002211466FF0090000F015F80022114684
:10052000501F00F010F800221146101F00F00BF8C9
:1005300000221146901E00F006F800221146501EBF
:1005400000F001F810BD2DE9F05F80460D4616461B
:10055000002701F095FF074639462A46334601F049
:100560000700C0F1070ABAF1040F02D94FF0040ADC
:1005700001E0C0F1070AD14600F1040ABAF1070F01
:1005800002D24FF0000A01E0A0F1030AD4464FF076
:10059000010A0AFA09FAAAF1010A0AEA020A0AFA9F
:1005A0000CFA4FF0010B0BFA0CFBABF1010B0BEA51
:1005B000030B4AEA0B042146404601F069FFBDE8FF
:1005C000F09F000000BF00F00702064B19684FF6CD
:1005D000FF031940044B0B4343EA0221014B19600E
:1005E00000BF70470CED00E00000FA052DE9F8436C
:1005F0000446002600250027A846A946207800F0DA
:10060000010088B100BFFE48006820F40000FC49EA
:10061000086008460068616B0843F949086000BF3C
:10062000606B08B94FF00108206800F40020B0F5B5
:10063000002F13D1F2488430006820F44010E16BA1
:100640000843EF4984310860E06BB0F5801F01D1A9
:100650004FF00108E06B08B94FF00109206800F481
:100660008010B0F5801F13D1E5488430006820F475
:100670004000216C0843E24984310860206CB0F5E9
:10068000800F01D14FF00108206C08B94FF001092B
:10069000206800F08070B0F1807F01D14FF0010838
:1006A000207800F02000202870D100BFD4483830D6
:1006B000006840F08050D249383108600846006830
:1006C00000F08050009000BF00BFCE48006840F4AA
:1006D0008070CC490860FFF7DDFE064607E0FFF7B3
:1006E000D9FE801B642802D90320BDE8F883C548E1
:1006F000006800F480700028F1D0C14868300068BC
:1007000000F4407585B3208E00F44070A8422BD0D1
:10071000BB486830006820F44075B948683000680C
:1007200040F48030B649683108600846006820F41B
:100730008030086008460560006800F0010098B14C
:10074000FFF7A8FE064608E0FFF7A4FE801B41F273
:100750008831884201D90320C7E7A948683000687A
:10076000C0F340000028EFD000BF208E00F440709E
:10077000B0F5407F0BD1A248006820F4F810A24ADF
:10078000216B114008439E49086006E010E09C4838
:10079000006820F4F8109A490860994868300068A9
:1007A000218EC1F30B01084395496831086000BFF1
:1007B000207800F01000102810D100BF904884303D
:1007C000006820F080708E49843108600846006817
:1007D000A16B08438A498431086000BF208800F477
:1007E0008040B0F5804F09D185488830006820F4FA
:1007F0004030616E0843824988310860208800F4E7
:100800000040B0F5004F09D17D488830006820F4E1
:100810004020A16E08437A4988310860206800F4BE
:100820008030B0F5803F09D175488830006820F4E9
:100830004010E16E0843724988310860206800F476
:100840000030B0F5003F09D16D488830006820F4D1
:100850004000216F08436A4988310860207800F021
:100860004000402809D166488830006820F0030025
:10087000616C0843624988310860207800F080008C
:10088000802809D15E488830006820F00C00A16CF7
:1008900008435B4988310860208800F48070B0F517
:1008A000807F09D156488830006820F03000E16C24
:1008B0000843534988310860208800F40070B0F57F
:1008C000007F09D14E488830006820F0C000216DBB
:1008D00008434B4988310860208800F48060B0F5F7
:1008E000806F09D146488830006820F44070616DFF
:1008F0000843434988310860208800F40060B0F55F
:10090000006F09D13E488830006820F44060A16D36
:1009100008433B4988310860208800F48050B0F5D6
:10092000805F09D136488830006820F44050E16D7E
:100930000843334988310860208800F40050B0F53E
:10094000005F09D12E488830006820F44040216EB5
:1009500008432B4988310860206800F48000B0F516
:10096000800F09D126488830006820F08060A16F90
:100970000843234988310860206800F40010B0F56E
:10098000001F0FD11E488830006820F00060E16F22
:1009900008431B4988310860E06FB0F1006F01D156
:1009A0004FF00109207800F00800082801D14FF02D
:1009B0000109206800F48020B0F5802F09D110488B
:1009C0008830006820F04070616F08430C4988311E
:1009D0000860206800F40000B0F5000F0AD1084854
:1009E0008830006820F08050D4F880100843044913
:1009F00088310860206800F08060B0F1806F05E009
:100A00000838024000700040FFFCFF0F08D1FE488C
:100A1000006820F00050D4F884100843FA490860B8
:100A2000206800F00060B0F1006F0AD1F648001FA6
:100A3000006820F00070D4F888100843F249091FBC
:100A40000860206800F08050B0F1805F0AD1EE4865
:100A5000001F006820F08060D4F88C100843EA4939
:100A6000091F0860B8F1010F03D02068B0F1007FC2
:100A70007DD1E5489038006820F08060E2499039E7
:100A80000860FFF707FD064606E0FFF703FD801B41
:100A9000642801D9032028E6DB4890380068C0F3B9
:100AA000C0600028F1D1207800F00100F0B3606B45
:100AB000E0BBD5480C38006800F440304FF44031BA
:100AC00091FAA1F1B1FA81F120FA01F5CE480C3882
:100AD000006800F070604FF0706191FAA1F1B1FA16
:100AE00081F120FA01F747F6C07191FAA1F1B1FA4C
:100AF00081F1606888404FF4403191FAA1F1B1FA78
:100B000081F105FA01F108434FF0706191FAA1F10A
:100B1000B1FA81F107FA01F108434FF0E04292FA8D
:100B2000A2F2B2FA82F2A168914000E003E0084329
:100B3000B5490C390860206800F40020B0F5002F9A
:100B400003D1E06BB0F5801F09D0206800F480105D
:100B5000B0F5801F50D1206CB0F5800F4CD1AA4861
:100B60000C38006800F440304FF4403100E0CFE032
:100B700091FAA1F1B1FA81F120FA01F5A2480C38FD
:100B8000006800F0E0404FF0E04191FAA1F1B1FAC5
:100B900081F120FA01F747F6C07191FAA1F1B1FA9B
:100BA00081F1606888404FF4403191FAA1F1B1FAC7
:100BB00081F105FA01F108434FF0706292FAA2F256
:100BC000B2FA82F2E168914008434FF0E04191FAB5
:100BD000A1F1B1FA81F107FA01F108438A490C3910
:100BE00008608948001F006820F01F00616A491EE4
:100BF00008438549091F0860206800F08070B0F143
:100C0000807F3FD180480C38006800F070604FF062
:100C1000706191FAA1F1B1FA81F120FA01F57A48F7
:100C20000C38006800F0E0404FF0E04191FAA1F18B
:100C3000B1FA81F120FA01F747F6C07191FAA1F1FA
:100C4000B1FA81F1606888404FF4403292FAA2F222
:100C5000B2FA82F22169914008434FF0706191FA33
:100C6000A1F1B1FA81F105FA01F108434FF0E04139
:100C700091FAA1F1B1FA81F107FA01F10843624951
:100C80000C390860206800F00070B0F1007F25D1B9
:100C900047F6C07191FAA1F1B1FA81F1606888401C
:100CA0004FF4403292FAA2F2B2FA82F221699140F4
:100CB00008434FF0706292FAA2F2B2FA82F2E1684F
:100CC000914008434FF0E04292FAA2F2B2FA82F267
:100CD000A168914008434C490C3908604A48903853
:100CE000006840F08060484990390860FFF7D2FB07
:100CF000064606E0FFF7CEFB801B642801D90320DF
:100D0000F3E4414890380068C0F3C0600028F1D097
:100D1000B9F1010F69D13C489038006820F080504B
:100D2000394990390860FFF7B5FB064606E0FFF742
:100D3000B1FB801B642801D90320D6E432489038E7
:100D40000068C0F340700028F1D1206800F4002052
:100D5000B0F5002F01D1E06B38B1206800F48010AD
:100D6000B0F5801F4FD1206CF0BB274808380068D1
:100D700000F440304FF4403191FAA1F1B1FA81F121
:100D800020FA01F520480838006800F0E0404FF0F4
:100D9000E04191FAA1F1B1FA81F120FA01F747F6A9
:100DA000C07191FAA1F1B1FA81F1606988404FF404
:100DB000403191FAA1F1B1FA81F105FA01F108434C
:100DC0004FF0706292FAA2F2B2FA82F2A1699140F7
:100DD00008434FF0E04191FAA1F1B1FA81F107FA2D
:100DE00001F10843084901E00DE0BBE00839086063
:100DF000081D006820F4F851A06A401E41EA002056
:100E00000149091F086001E090380240206800F4A1
:100E10000010B0F5001F40D1E06FB0F1006F3CD181
:100E20005148006800F070604FF0706191FAA1F1D4
:100E3000B1FA81F120FA01F54B48006800F0E0407A
:100E40004FF0E04191FAA1F1B1FA81F120FA01F7F6
:100E500047F6C07191FAA1F1B1FA81F16069884059
:100E60004FF4403292FAA2F2B2FA82F2216A914031
:100E700008434FF0706191FAA1F1B1FA81F105FADE
:100E800001F108434FF0E04191FAA1F1B1FA81F18B
:100E900007FA01F1084334490860207800F008009F
:100EA000082845D13048006800F070604FF070614C
:100EB00091FAA1F1B1FA81F120FA01F52A4800680E
:100EC00000F440304FF4403191FAA1F1B1FA81F1D0
:100ED00020FA01F747F6C07191FAA1F1B1FA81F158
:100EE000606988404FF4403191FAA1F1B1FA81F183
:100EF00007FA01F108434FF0706191FAA1F1B1FADC
:100F000081F105FA01F108434FF0E04292FAA2F2B2
:100F1000B2FA82F2E1699140084313490860081D62
:100F2000006820F44030E16A08430F49091D086059
:100F30000D488838006840F080500B4988390860B7
:100F4000FFF7A8FA064606E0FFF7A4FA801B64281C
:100F500001D903209FE5044888380068C0F3407039
:100F60000028F1D0002096E58838024070B504468C
:100F70000D4600266648006800F00F00A8420ED219
:100F80006348006820F00F00284361490860084664
:100F9000006800F00F00A84201D0012070BD207849
:100FA00000F00200022807D15A48006820F0F00043
:100FB000A168084357490860207800F00100002824
:100FC00060D06068012807D1524808380068C0F333
:100FD0004040A0B90120E1E76068022807D14D48F0
:100FE00008380068C0F3406048B90120D6E7494896
:100FF00008380068C0F3400008B90120CEE7454832
:10100000006820F003006168084342490860FFF768
:1010100041FA06466068012810D108E0FFF73AFA65
:10102000801B41F28831884201D90320B6E7394854
:10103000006800F00C000428F0D123E0606802286A
:1010400010D108E0FFF726FA801B41F28831884270
:1010500001D90320A2E72F48006800F00C000828FF
:10106000F0D10FE008E0FFF715FA801B41F288315C
:10107000884201D9032091E72648006800F00C005F
:101080000028F0D12248006800F00F00A8420ED9D5
:101090001F48006820F00F0028431D4908600846DB
:1010A000006800F00F00A84201D0012076E7207808
:1010B00000F00400042807D11648006820F4E0502E
:1010C000E168084313490860207800F00800082808
:1010D00008D11048006820F46040216940EAC1004E
:1010E0000C49086000F04EF80A49096801F0F00167
:1010F000F02292FAA2F2B2FA82F2D140064A515C90
:10110000C840064908600020FFF7DEF9002045E7E7
:10111000003C024008380240542E00080400002021
:1011200001480068704700000400002000B5FFF788
:10113000F7FF0749096801F4E0514FF4E05292FAD1
:10114000A2F2B2FA82F2D140024A515CC84000BD1C
:1011500008380240642E000800B5FFF7E1FF074998
:10116000096801F460414FF4604292FAA2F2B2FAC7
:1011700082F2D140024A515CC84000BD08380240AA
:10118000642E000870B50021002200230020274CA7
:10119000246804F00C0424B1042C04D0082C41D1A0
:1011A00003E0234840E023483EE0204C241F24680D
:1011B00004F03F011D4C241F246804F4800484B112
:1011C0001C4CB4FBF1F5194C241F246847F6C0767B
:1011D000344096FAA6F6B6FA86F6F44005FB04F219
:1011E0000FE0134CB4FBF1F5104C241F246847F6B4
:1011F000C076344096FAA6F6B6FA86F6F44005FBB9
:1012000004F20A4C241F246804F440344FF440359F
:1012100095FAA5F5B5FA85F5EC40641C6300B2FBC0
:10122000F3F001E0024800BF00BF70BD0838024083
:101230000024F40040787D01F8B50446002500261E
:10124000207800F00100002871D0FD48006800F00F
:101250000C0004280DD0FA48006800F00C000828A3
:1012600013D1F748001F006800F48000B0F5800F2C
:101270000BD1F34808380068C0F34040002869D01B
:101280006068002866D10120F8BD00BF6068B0F535
:10129000803F08D1EA480838006840F48030E849C7
:1012A000083908602EE0606868B9E54808380068C9
:1012B00020F48030E249083908600846006820F4CC
:1012C000802008601EE06068B0F5A02F0DD1DC48DA
:1012D0000838006840F48020D94908390860084679
:1012E000006840F4803008600CE0D5480838006899
:1012F00020F48030D249083908600846006820F49C
:101300008020086000BF606890B1FFF7C3F8054611
:1013100006E0FFF7BFF8401B642801D90320B3E7BC
:10132000C74808380068C0F340400028F1D011E0F9
:10133000FFF7B0F8054606E0FFF7ACF8401B64285D
:1013400001D90320A0E7BE4808380068C0F3404038
:101350000028F1D1207800F00200022873D1B848AB
:10136000006800F00C0058B1B548006800F00C00AF
:10137000082821D1B248001F006800F48000D8B9C5
:10138000AF4808380068C0F3400020B1E068012889
:1013900001D0012078E7AA480838006820F0F8005A
:1013A000F82292FAA2F2B2FA82F22169914008433D
:1013B000A3490839086046E0E06850B3A0480838FF
:1013C000006840F001009E4908390860FFF762F8A4
:1013D000054606E0FFF75EF8401B022801D903200E
:1013E00052E7974808380068C0F340000028F1D061
:1013F00093480838006820F0F800F82292FAA2F228
:10140000B2FA82F22169914008438D490839086097
:1014100019E08B480838006820F001008849083935
:101420000860FFF737F8054606E0FFF733F8401B82
:10143000022801D9032027E7814808380068C0F353
:1014400040000028F1D1207800F00800082836D1AB
:101450006069D0B17A486C30006840F0010078498A
:101460006C310860FFF716F8054606E0FFF712F842
:10147000401B022801D9032006E771486C30006840
:10148000C0F340000028F1D019E06D486C300068CE
:1014900020F001006A496C310860FEF7FBFF054649
:1014A00006E0FEF7F7FF401B022801D90320EBE618
:1014B00063486C300068C0F340000028F1D1207808
:1014C00000F00400042874D15D483830006800F052
:1014D000805080B900BF5A483830006840F08050D2
:1014E0005749383108600846006800F08050009085
:1014F00000BF00BF01265348006800F48070B0B9F7
:101500005048006840F480704E490860FEF7C2FF02
:10151000054606E0FEF7BEFF401B642801D9032004
:10152000B2E64848006800F480700028F2D000BF9E
:10153000A068012808D142486830006840F00100E6
:101540003F49683108602DE0A06868B93C486830C0
:10155000006820F001003A496831086008460068D8
:1015600020F0040008601DE0A06805280DD1344873
:101570006830006840F0040031496831086008466E
:10158000006840F0010008600CE02D4868300068F9
:1015900020F001002A49683108600846006820F000
:1015A0000400086000BFA068A8B1FEF773FF0546FD
:1015B00009E02EE0FEF76EFF401B41F288318842C1
:1015C00001D9032060E61E4868300068C0F340007F
:1015D0000028EFD013E0FEF75DFF054608E0FEF7B8
:1015E00059FF401B41F28831884201D903204BE664
:1015F000134868300068C0F340000028EFD1012E86
:1016000007D10F483830006820F080500C4938313D
:101610000860A069F0B30A48006800F00C000828D0
:101620007FD0A069022863D105480838006820F0FF
:101630008070034908390860FEF72CFF05460AE070
:101640000838024000700040FEF724FF401B0228CB
:1016500001D9032018E635480068C0F3406000282F
:10166000F2D1D4E90701084347F6C07292FAA2F218
:10167000B2FA82F2616A914008430122A16AC2EB88
:1016800051014FF4403292FAA2F2B2FA82F2914042
:10169000084300E047E04FF0706292FAA2F2B2FA1B
:1016A00082F2E16A914008434FF0E04292FAA2F2DE
:1016B000B2FA82F2216B914008431C49091D08606F
:1016C000081F006840F08070091F0860FEF7E2FE06
:1016D000054606E0FEF7DEFE401B022801D9032086
:1016E000D2E512480068C0F340600028F2D01AE04A
:1016F0000E48006820F080700C490860FEF7CAFEB2
:10170000054607E00DE0FEF7C5FE401B022801D9A3
:101710000320B9E505480068C0F340600028F2D115
:1017200001E00120B0E50020AEE5000000380240F5
:1017300070B504460CB9012070BD606A00B900BFE5
:101740000021A16294F85D0028B9002084F85C00B3
:10175000204600F053F8022084F85D0020680068FD
:1017600020F0400021680860E068B0F5E06F01D922
:10177000002501E04FF48055E068B0F5706F05D0AA
:10178000E068B0F5E06F01D00021A162206B40B9A4
:10179000E068B0F5E06F02D90221216301E0012188
:1017A0002163D4E9010108432169084361690843C1
:1017B000218B01F400710843E1690843216A084361
:1017C000A16A0843216808600421A06901EA104069
:1017D000616A0843616B0843E16808432843216854
:1017E00048602068C06920F400602168C86100205A
:1017F0002066012084F85D0000209DE710B586B0CA
:1018000004463149206888422AD100BF2F48006829
:1018100040F480502D4908600846006800F480506C
:10182000009000BF00BF60200190022002900020C5
:101830000390032004900520059001A92448FEF799
:1018400017FD8020019002200290002003900320C9
:1018500004900520059001A91E48FEF709FD30E01F
:101860001D49206888422CD100BF1848001F00681D
:1018700040F480401549091F08600846006800F4DC
:101880008040009000BF00BF0C2001900220029019
:1018900000200390032004900520059001A90F4823
:1018A000FEF7E6FC4FF480600190022002900020D9
:1018B0000390032004900520059001A90848FEF735
:1018C000D7FC06B010BD0000003001404438024093
:1018D00000000240000C02400038004000080240B6
:1018E000000402402DE9F84304460E4617461D4603
:1018F0004FF00008C1466068B0F5827F0DD1A06846
:1019000058B9042084F85D003B46324631462046F3
:10191000009500F067F9BDE8F88300BF94F85C001B
:10192000012801D10220F6E7012084F85C0000BF05
:10193000FEF7B0FD804694F85D00012802D04FF01C
:1019400002098CE006B117B94FF0010987E00420C5
:1019500084F85D00002020662664A4F84470A4F892
:101960004670A063A087E087E0642065E068B0F57A
:10197000E06F06D92068406820F4805021684860F4
:1019800005E02068406840F4805021684860A06805
:10199000B0F5004F05D12068006820F48040216830
:1019A00008602068006800F04000402805D02068EA
:1019B000006840F0400021680860E068B0F5E06F22
:1019C00020D81AE02068806800F0010048B1206843
:1019D000007B3070761CB4F84600401EA4F8460028
:1019E0000BE03DB1681C40B1FEF754FDA0EB0800D0
:1019F000A84202D34FF0030931E0B4F846000028B2
:101A0000E0D11FE01AE02068806800F0010048B1D2
:101A10002068C0683080B61CB4F84600401EA4F8A8
:101A200046000BE03DB1681C40B1FEF733FDA0EB72
:101A30000800A84202D34FF0030910E0B4F84600B2
:101A40000028E0D142462946204600F036FD08B184
:101A500020202066206E08B14FF0010900BF012050
:101A600084F85D0000BF002084F85C0000BF484699
:101A700051E72DE9F84304460D4617461E464FF040
:101A80000008C14600BF94F85C00012802D1022082
:101A9000BDE8F883012084F85C0000BFFEF7FAFC83
:101AA000804694F85D00012802D04FF002098FE0D3
:101AB00005B117B94FF001098AE0032084F85D00F1
:101AC00000202066A563A787E7872064A4F8440068
:101AD000A4F846002065E064A068B0F5004F05D189
:101AE0002068006840F48040216808602068006831
:101AF00000F04000402805D02068006840F0400019
:101B000021680860E068B0F5E06F1ED919E0206830
:101B1000806800F00200022807D128882168C86088
:101B2000AD1CE08F401EE0870BE03EB1701C40B161
:101B3000FEF7B0FCA0EB0800B04202D34FF003095F
:101B400046E0E08F0028E2D128E024E020688068A9
:101B500000F00200022812D1E08F012807D928885E
:101B60002168C860AD1CE08F801EE08713E015F887
:101B7000010B21680873E08F401EE0870BE03EB147
:101B8000701C40B1FEF786FCA0EB0800B04202D307
:101B90004FF003091CE0E08F0028D7D142463146C0
:101BA000204600F0CBFC08B120202066A06850B988
:101BB00000BF002000902068C06800902068806806
:101BC000009000BF00BF206E08B14FF0010900BFB8
:101BD000012084F85D0000BF002084F85C0000BF95
:101BE000484655E72DE9FC5F04460D4616461F465C
:101BF000DDF830804FF0000A0020019081464FF060
:101C0000010B009000BF94F85C00012802D1022073
:101C1000BDE8FC9F012084F85C0000BFFEF73AFCA1
:101C2000814694F85DA060680190BAF1010F0BD075
:101C30000198B0F5827F04D1A06810B9BAF1040F01
:101C400002D002200090FCE00DB106B117B90120CE
:101C50000090F6E094F85D00042802D0052084F896
:101C60005D00002020662664A4F84670A4F8447045
:101C7000A563E787A787E0642065E068B0F5E06FBB
:101C800003D8B4F84600012806DD2068406820F437
:101C900080502168486005E02068406840F480502A
:101CA000216848602068006800F04000402805D0A6
:101CB0002068006840F0400021680860E068B0F5E6
:101CC000E06F47D9606810B1E08F012806D12888FD
:101CD0002168C860AD1CE08F401EE08732E0BBF198
:101CE000000F10D0E08F70B12068806800F0020013
:101CF000022808D128882168C860AD1CE08F401EEA
:101D0000E0874FF0000BB4F8460078B12068806897
:101D100000F0010050B12068C0683080B61CB4F8F3
:101D20004600401EA4F846004FF0010B08F10100E8
:101D300040B1FEF7AFFBA0EB0900404502D3032002
:101D400000907EE0E08F0028C9D1B4F8460000285A
:101D5000C5D169E0606810B1E08F012806D128780C
:101D6000216808736D1CE08F401EE08755E0BBF1D1
:101D7000000F1BD0E08FC8B12068806800F002001F
:101D8000022813D1E08F012807D928882168C8606C
:101D9000AD1CE08F801EE08706E015F8010B21687E
:101DA0000873E08F401EE0874FF0000BB4F8460048
:101DB00038B32068806800F0010010B3B4F8460022
:101DC000012813D92068C0683080B61CB4F84600DA
:101DD000801EA4F84600B4F8460001280FD82068F9
:101DE000406840F480502168486008E02068007B2B
:101DF00006F8010BB4F84600401EA4F846004FF068
:101E0000010B08F1010040B1FEF744FBA0EB090013
:101E1000404502D30320009013E0E08F0028A6D1B4
:101E2000B4F846000028A2D14A464146204600F0B8
:101E300085FB08B120202066206E08B101200090AB
:101E400000BF012084F85D0000BF002084F85C0022
:101E500000BF0098DCE6042808D14FF0E0210969B2
:101E600041F004014FF0E022116107E04FF0E02162
:101E7000096921F004014FF0E022116170477047B9
:101E800070B504462546681EB0F1807F01D301205D
:101E90000FE0681E4FF0E02148610F214FF0FF3046
:101EA00000F0F6FA00204FF0E02188610720086179
:101EB000002070BD10B5FFF7E2FF10BD10B504465D
:101EC0000CB9012010BDA06900B100E000BF94F87A
:101ED000690028B9002084F86800204600F02AF83C
:101EE000242084F869002068006820F0010021683F
:101EF0000860204600F044FD012800D1E2E7606A56
:101F000010B1204600F0A0FC2068406820F490400A
:101F1000216848602068806820F02A002168886075
:101F20002068006840F0010021680860204600F049
:101F300000FDC7E710B586B00446234920688842F3
:101F40001CD100BF2148006840F400201F490860F0
:101F50000846006800F40020009000BF00BF032086
:101F60000190022002900120039003200490082099
:101F7000059001A91648FEF77BF922E01549206873
:101F800088421ED100BF1148001D006840F01000BB
:101F90000E49091D08600846006800F01000009016
:101FA00000BF00BF4FF4404001900220029001208A
:101FB0000390032004900420059001A90648FEF731
:101FC00057F906B010BD0000004C004040380240F8
:101FD0000000024000100140000402402DE9F843D7
:101FE00004460D4616461F464FF0000994F8690056
:101FF000202854D105B116B90120BDE8F88300BFEF
:1020000094F86800012801D10220F6E7012084F845
:10201000680000BF00205034E06121206076FEF7A8
:1020200039FA814626806680503C21E0B4F852009F
:10203000401EA4F852004B46002280212046009703
:1020400000F064FE08B10320D7E7A068B0F5805F18
:102050000AD1206940B9A846B8F80000C0F30800CA
:1020600021688862AD1C03E015F8010B21688862C5
:10207000B4F852000028D9D14B4600224021204616
:10208000009700F043FE08B10320B6E7202084F853
:10209000690000BF002084F8680000BFADE702209F
:1020A000ABE7000000B587B000BF5548006840F0BE
:1020B0001000534908600846006800F010000190C5
:1020C00000BF00BF00BF0846006840F00400086081
:1020D0000846006800F00400019000BF00BF00BF88
:1020E0000846006840F0010008600846006800F0FB
:1020F0000100019000BF00BF00BF0846006840F02B
:10210000020008600846006800F00200019000BF6D
:1021100000BF00BF0846006840F040000860084665
:10212000006800F04000019000BF00BF00BF0846FB
:10213000006840F0080008600846006800F00800E9
:10214000019000BF00BF012241F604012D48FEF7B7
:102150009BF9012270212C48FEF796F90820029085
:1021600000200390049002A92848FEF781F802207D
:102170000290039000200490032005900B2006900D
:1021800002A92348FEF774F88020029002200390F1
:1021900000200490032005900C20069002A91D4801
:1021A000FEF766F80220029000200390049002A936
:1021B0001448FEF75DF841F60400029001200390F8
:1021C000002004900220059002A90E48FEF750F866
:1021D0004020029000200390049002A90E48FEF7D0
:1021E00047F8702002900120039000200490022004
:1021F000059002A90448FEF73BF807B000BD0000B7
:102200003038024000040240000C0240001002403E
:1022100000080240000002400018024010B51348B8
:10222000134908604FF482704860002110488160B3
:102230004FF4E061C1600021016141614FF4007120
:1022400081610821C161002101624162816207212F
:10225000C162002101634163FFF76AFA20B14FF4C4
:10226000937104A000F088FD10BD00000030014013
:10227000080000202E2E2F5372632F6D61696E2E81
:102280006300000010B51248124908604FF48270D4
:10229000486000210F4881604FF4E061C160002177
:1022A000016141614FF4007181610021C1610162EE
:1022B000416281620721C162002101634163FFF72E
:1022C00037FA20B140F23F1103A000F055FD10BDD8
:1022D000003800406C0000202E2E2F5372632F6DAB
:1022E00061696E2E6300000010B50F480F49086049
:1022F0004FF41650486000210C488160C1600161B4
:102300000C21416100218161C16101620020074906
:1023100048620846FFF7D2FD20B14FF4AA7104A02D
:1023200000F02AFD10BD0000004C0040D00000204D
:102330002E2E2F5372632F6D61696E2E6300000085
:1023400010B50F480F4908604FF41650486000213F
:102350000C488160C16001610C21416100218161F3
:10236000C16101620020074948620846FFF7A6FDE7
:1023700020B140F2691104A000F0FEFC10BD000085
:1023800000100140400100202E2E2F5372632F6D4C
:1023900061696E2E6300000038B504460D4604F0F6
:1023A0001F00802141EA400040F04000401C0090A6
:1023B000002204210A48FEF767F801231A466946FD
:1023C0000848FFF756FB01231A4629460548FFF740
:1023D00089FA012204210248FEF756F838BD0000B0
:1023E000000402400800002013B582B0044604F047
:1023F0001F00802141EA400040F04000019000228F
:1024000004210A48FEF740F80023012201A90848E8
:10241000FFF72FFB0023012203A90548FFF729FB43
:10242000012204210148FEF72FF81FBD00040240DD
:102430000800002013B582B0044604F01F0080217C
:1024400041EA400040F040000190002240210A484B
:10245000FEF71AF80023012201A90848FFF709FB3B
:102460000023012203A90548FFF703FB01224021B5
:102470000148FEF709F81FBD000C02406C00002067
:1024800002480068C0F30220704700000CED00E035
:1024900010B5002807DA0A07140E054A00F00F03EA
:1024A0001B1FD45403E00A07130E024A135410BD35
:1024B00018ED00E000E400E07047F8B504460E4671
:1024C00015466068B0F5827F0DD1A068B0F5004F69
:1024D00003D0A068B0F5806F05D12068006820F0B7
:1024E0004000216808603346002280212046009584
:1024F00000F0AFF828B1206E40F0200020660320E5
:10250000F8BD6068B0F5827F16D1A068B0F5004FC5
:1025100003D0A068B0F5806F0ED1334600224FF48F
:10252000C0612046009500F03BF828B1206E40F0D5
:10253000200020660320E3E70020E1E7F8B5044629
:102540000E461546334600224FF4C05120460095F2
:1025500000F026F828B1206E40F02000206603200D
:10256000F8BD3346002280212046009500F071F826
:1025700028B1206E40F0200020660320F0E73346AB
:1025800000224FF4C0612046009500F009F828B100
:10259000206E40F0200020660320E1E70020DFE706
:1025A0002DE9F84304460E4617461D46DDF8208007
:1025B00048E0B6F5C06F05D127B92068007B0090D0
:1025C0009DF80000681CE0B32DB1FDF763FFA0EBA0
:1025D0000800A84236D32068406820F0E000216857
:1025E00048606068B0F5827F0DD1A068B0F5004FFB
:1025F00003D0A068B0F5806F05D12068006820F096
:10260000400021680860A06AB0F5005F0ED100BFED
:10261000206800684DF6FF71084021680860206856
:10262000006840F400502168086000BF012084F871
:102630005D0000BF002084F85C0000BF0320BDE8FF
:10264000F883FFE7206880683040B842B1D10020AD
:10265000F5E72DE9F04104460E4617461D46DDF824
:1026600018803FE0681CE0B32DB1FDF713FFA0EB2D
:102670000800A84236D32068406820F0E0002168B6
:1026800048606068B0F5827F0DD1A068B0F5004F5A
:1026900003D0A068B0F5806F05D12068006820F0F5
:1026A000400021680860A06AB0F5005F0ED100BF4D
:1026B000206800684DF6FF710840216808602068B6
:1026C000006840F400502168086000BF012084F8D1
:1026D0005D0000BF002084F85C0000BF0320BDE85F
:1026E000F081FFE7206880683040B842BAD100200E
:1026F000F5E7704710B5FDF7D3FEFFF7DBFB10BD24
:1027000010B5B8B000BF3148006840F080502F4984
:1027100008600846006800F08050019000BF00BFCC
:1027200000BF2B48006820F4404040F48040284916
:1027300008600846006800F44040019000BF00BFF8
:1027400002202B9001202E9010202F9000203190FD
:102750002BA8FEF771FD18B1ED211EA000F00CFBB7
:102760000F2026900020279028904FF48050299029
:1027700000202A90002126A8FEF7F8FB18B1FB21C3
:1027800014A000F0F9FA4FF410700290002013909A
:10279000169002A8FDF72AFF20B140F203110DA008
:1027A00000F0EAFAFEF7BCFC4FF47A71B0FBF1F4EA
:1027B0002046FFF765FB0420FFF74DFB0022114682
:1027C000501EFDF7C0FE38B010BD0000403802407A
:1027D000007000402E2E2F5372632F6D61696E2E94
:1027E000630000001448006840F47000124908605B
:1027F0001248006840F001001049086000200F49AD
:10280000083108600D4800680D4908400B49086010
:102810000C48091D0860081F006820F48020091F6B
:102820000860002005490C3108604FF00060024943
:10283000803908607047000088ED00E000380240F1
:10284000FFFFF6FE1030002490F8241001F0010183
:1028500039B10168496821F40031826A1143026884
:10286000516090F8241001F0020139B10168496803
:1028700021F48031C26A11430268516090F824103B
:1028800001F0040139B10168496821F48021026B2B
:1028900011430268516090F8241001F0080139B129
:1028A0000168496821F40041426B1143026851609C
:1028B00090F8241001F0100139B10168896821F401
:1028C0008051826B11430268916090F8241001F0EE
:1028D000200139B10168896821F40051C26B1143AC
:1028E0000268916090F8241001F0400199B10168EC
:1028F000496821F48011026C114302685160016C37
:10290000B1F5801F07D10168496821F4C001426C0C
:1029100011430268516090F8241001F0800139B130
:102920000168496821F40021826C114302685160FA
:10293000704738B5044600250020E066FDF7AAFD83
:1029400005462068006800F0080008280CD16FF0E8
:102950007E402B4600224FF400110090204600F0EC
:10296000D5F908B1032038BD202084F8690084F827
:102970006A0000BF002084F8680000BF00BFF2E7D3
:102980002DE9F0470446002510260027A846A94651
:102990002169A068084361690843E16940EA0105CB
:1029A00020680068CD4908402843216808602068F5
:1029B000406820F44050E168084321684860216A7B
:1029C000A06940EA01052068806820F4306028434F
:1029D0002168886000BFC2492068884215D1C1487B
:1029E000006800F0030030B1012808D0022804D0AC
:1029F000032808D105E0012606E0022604E00426AB
:102A000002E0082600E000BFC1E0B7492068884224
:102A100015D1B448006800F00C0030B1042808D08B
:102A2000082804D00C2808D105E0002606E002267C
:102A300004E0042602E0082600E000BFA7E0AB495E
:102A40002068884215D1A748006800F0300030B1F6
:102A5000102808D0202804D0302808D105E000260E
:102A600006E0022604E0042602E0082600E000BF9B
:102A70008DE09F492068884215D19A48006800F08F
:102A8000C00030B1402808D0802804D0C02808D128
:102A900005E0002606E0022604E0042602E00826FF
:102AA00000E000BF73E093492068884218D18D4848
:102AB000006800F4407048B1B0F5807F0AD0B0F5EE
:102AC000007F05D0B0F5407F08D105E0002606E084
:102AD000022604E0042602E0082600E000BF56E0DB
:102AE00085492068884218D17E48006800F440601B
:102AF00048B1B0F5806F0AD0B0F5006F05D0B0F5E1
:102B0000406F08D105E0012606E0022604E0042615
:102B100002E0082600E000BF39E0784920688842DA
:102B200018D17048006800F4405048B1B0F5805F9B
:102B30000AD0B0F5005F05D0B0F5405F08D105E0E0
:102B4000002606E0022604E0042602E0082600E053
:102B500000BF1CE06A492068884218D161480068BB
:102B600000F4404048B1B0F5804F0AD0B0F5004FB6
:102B700005D0B0F5404F08D105E0002606E002265A
:102B800004E0042602E0082600E000BF00BF00BF0A
:102B9000E069B0F5004F52D1042E2BD005DC4EB1C8
:102BA000012E12D0022E3BD11AE0082E2DD0102E6D
:102BB00036D136E0FEF7BAFA4000616800EB51000A
:102BC000B0FBF1F01FFA80F82EE0FEF7C5FA4000E6
:102BD000616800EB5100B0FBF1F01FFA80F823E0D0
:102BE0004849606801EB50006168B0FBF1F01FFAE2
:102BF00080F819E0FEF7C6FA4000616800EB51006A
:102C0000B0FBF1F01FFA80F80EE04FF480316068FD
:102C100001EB50006168B0FBF1F01FFA80F803E0AF
:102C200000BF4FF0010900BF00BF4FF6F07008EA87
:102C30000007C8F3420007432068C7604AE0042E3B
:102C40002CD005DC4EB1012E12D0022E3DD11AE05F
:102C5000082E2ED0102E38D138E0FEF767FA6168C2
:102C600000EB5100B0FBF1F080B22168C86030E0A9
:102C7000FEF772FA616800EB5100B0FBF1F080B230
:102C80002168C86025E02049606801EB5000616858
:102C9000B0FBF1F080B22168C8601AE0FEF772FA6A
:102CA000616800EB5100B0FBF1F080B22168C860B0
:102CB0000FE04FF40041606801EB50006168B0FB29
:102CC000F1F080B22168C86003E000BF4FF0010955
:102CD00000BF00BF4846BDE8F0870000F369FFEF82
:102CE000001001409038024000440040004800407D
:102CF000004C0040005000400014014000780040AB
:102D0000007C00400048E8010024F4002DE9F04177
:102D100004460D4617469846069E21E0701CF8B101
:102D20002EB1FDF7B7FBA0EB0800B04218D3206826
:102D3000006820F4D070216808602068806820F066
:102D4000010021688860202084F8690084F86A0006
:102D500000BF002084F8680000BF0320BDE8F081B8
:102D60002068C0692840A84201D1012000E000206D
:102D7000B842D3D00020F1E700BFFEE702E008C868
:102D8000121F08C1002AFAD170477047002001E0E5
:102D900001C1121F002AFBD1704700000EB50024AC
:102DA00000BF00BF00BF00BF26A000680090FDF775
:102DB0007FFBFFF7A5FCFFF775F9FFF72FFAFFF789
:102DC00061FAFFF7BDFAFFF78FFA012211031E48DF
:102DD000FDF75AFB00224FF400611B48FDF754FB3E
:102DE000012210211948FDF74FFB0022202117482E
:102DF000FDF74AFB0F2421460120FFF7F5FA0824CE
:102E000021460220FFF7F0FA0F2421460120FFF7A8
:102E100011FB0A2421460220FFF70CFB0A230122A2
:102E200069460B48FFF7DAF802A90120FFF7B4FA68
:102E300006E001A90120FFF7AFFA6420FDF70AFAC6
:102E4000F7E700000100000000040240000C02400F
:102E50004001002000000000000000000102030407
:102E60000607080900000000010203048C2E000878
:102E700000000020080000007C2D0008942E0008AF
:102E800008000020A80500008C2D000800000000AC
:042E90000024F40026
:04000005080001F9F5
:00000001FF
