:020000040800F2
:10000000B80B00200D0200081502000817020008B6
:10001000190200081B0200081D0200080000000071
:100020000000000000000000000000006F2F00082A
:100030002102000800000000352D0008712F000883
:1000400027020008270200082702000827020008EC
:10005000270200082702000827020008790200088A
:100060002702000883020008270200082702000870
:1000700027020008270200082702000827020008BC
:1000800027020008270200082702000827020008AC
:10009000270200082702000827020008270200089C
:1000A00027020008C93000082702000827020008BC
:1000B000270200082702000827020008270200087C
:1000C000270200082702000827020008270200086C
:1000D00027020008C9380008270200082702000884
:1000E000270200082702000827020008270200084C
:1000F000270200082702000827020008270200083C
:10010000270200082702000827020008270200082B
:10011000270200082702000827020008270200081B
:10012000270200082702000827020008270200080B
:1001300027020008270200082702000827020008FB
:1001400027020008270200082702000827020008EB
:1001500027020008270200082702000827020008DB
:1001600027020008270200082702000827020008CB
:1001700027020008270200082702000800000000EC
:1001800027020008270200082702000827020008AB
:10019000270200082702000827020008270200089B
:1001A000270200082702000827020008270200088B
:1001B000270200082702000827020008270200087B
:1001C000270200082702000800000000270200089C
:1001D000270200082702000827020008270200085B
:1001E000270200082702000827020008270200084B
:1001F0002702000827020008DFF80CD000F02AF8D8
:100200000048004789390008B80B0020064880479D
:1002100006480047FEE7FEE7FEE7FEE7FEE7FEE7EB
:10022000FEE7FEE7FEE7FEE765300008F90100089B
:1002300040EA01039B0703D009E008C9121F08C068
:10024000042AFAD203E011F8013B00F8013B521EE8
:10025000F9D27047064C074D06E0E06840F0010314
:1002600094E8070098471034AC42F6D3FFF7C8FF74
:10027000683A0008883A000810B5022000F044F8F7
:1002800010BD10B5082000F03FF810BD014691F8F0
:100290003500022803D080204865012070470520E2
:1002A00081F835000868006820F001000A681060D5
:1002B0000020F3E731B5002400F04AF9044600BFFE
:1002C00000F046F9001B00998842F9D338BD0000C0
:1002D00010B50446022C12D1094802F015FA08485C
:1002E000D0F89810643003F023FB0548643003F025
:1002F0000CFB034802F0F2F9024802F0EFF910BDDE
:10030000780200201803002010B504460448006855
:10031000204020B1024804602046FFF7D9FF10BDFD
:10032000143C0140F8B502460B460021002500248C
:10033000002000BFE4E0012606FA01F51E6806EA87
:100340000504AC4271D15E68022E02D05E68122EA6
:1003500013D1CF0802F1200656F827004E07F70EFA
:100360000F26BE40B0434F07FF0E1E69BE4030430C
:10037000CF0802F1200646F8270010684F00032638
:10038000BE40B0431E7906F003064F00BE40304326
:1003900010605E68012E08D05E68022E05D05E688F
:1003A000112E02D05E68122E13D190684F000326E2
:1003B000BE40B0434F00DE68BE403043906050689E
:1003C00001268E40B0431E79C6F300168E4030439E
:1003D0005060D0684F000326BE40B0434F009E6877
:1003E000BE403043D0605E6806F08056B6F1805F54
:1003F000A8D100BF444E366846F48046424F3E6066
:100400003E46366806F48046009600BF00BF3F4E69
:100410008F0856F827008E07370F0F26BE40B043CF
:100420003B4EB24202D100262EE068E0394EB24285
:1004300001D1012628E0384EB24201D1022623E044
:10044000364EB24201D103261EE0354EB24201D1F2
:10045000042619E0334EB24201D1052614E0324E93
:10046000B24201D106260FE0304EB24201D107263A
:100470000AE02F4EB24201D1082605E02D4EB242CD
:1004800001D1092600E00A268F073F0FBE40304306
:100490001E4E8F0846F82700274E3068A0435E683E
:1004A00006F48036B6F5803F00D12043224E3060FE
:1004B000361D3068A0435E6806F40036B6F5003F8E
:1004C00000D120431C4E361D3060361D3068A043DD
:1004D0005E6806F48016B6F5801F00D12043164EE4
:1004E00008363060361D3068A0435E6806F400169A
:1004F000B6F5001F00D120430F4E0C363060491C6A
:100500001029FFF418AFF8BD443802400838014004
:10051000000002400004024000080240000C0240BB
:10052000001002400014024000180240001C02406B
:100530000020024000240240003C014042694A4041
:10054000426170470AB1816101E00B048361704729
:100550000148006870470000100000200248006851
:10056000401C0149086070471000002010B50320AE
:1005700000F092F8002000F005F800F017F80020D5
:1005800010BD000070B50446074800684FF47A714A
:10059000B0FBF1F5284601F0DDFC00222146501E9B
:1005A00000F03CF8002070BD1400002010B50320BE
:1005B00000F072F8002211466FF00B0000F02EF8E8
:1005C000002211466FF00A0000F028F800221146C0
:1005D0006FF0090000F022F800221146501F00F0D1
:1005E0001DF800221146101F00F018F800221146D5
:1005F000901E00F013F800221146501E00F00EF875
:1006000010BD00BF00F01F0201219140420992007D
:1006100002F1E022C2F8001100BF70472DE9F05F3F
:1006200080460D461646002702F068FB074639460D
:100630002A46334601F00700C0F1070ABAF1040F59
:1006400002D94FF0040A01E0C0F1070AD14600F1D7
:10065000040ABAF1070F02D24FF0000A01E0A0F13C
:10066000030AD4464FF0010A0AFA09FAAAF1010A6C
:100670000AEA020A0AFA0CFA4FF0010B0BFA0CFB19
:10068000ABF1010B0BEA030B4AEA0B04214640468F
:1006900002F03CFBBDE8F09F00BF00F00702064BF4
:1006A00019684FF6FF031940044B0B4343EA02213C
:1006B000014B196000BF70470CED00E00000FA0527
:1006C0002DE9F8430446002600250027A846A94640
:1006D000207800F0010088B100BFFE48006820F4D7
:1006E0000000FC49086008460068616B0843F9494E
:1006F000086000BF606B08B94FF00108206800F483
:100700000020B0F5002F13D1F2488430006820F4A7
:100710004010E16B0843EF4984310860E06BB0F5AD
:10072000801F01D14FF00108E06B08B94FF00109BB
:10073000206800F48010B0F5801F13D1E5488430A4
:10074000006820F44000216C0843E24984310860CD
:10075000206CB0F5800F01D14FF00108206C08B972
:100760004FF00109206800F08070B0F1807F01D166
:100770004FF00108207800F02000202870D100BF41
:10078000D4483830006840F08050D2493831086091
:100790000846006800F08050009000BF00BFCE48BF
:1007A000006840F48070CC490860FFF7D1FE06462F
:1007B00007E0FFF7CDFE801B642802D90320BDE8C7
:1007C000F883C548006800F480700028F1D0C14863
:1007D0006830006800F4407585B3208E00F44070E6
:1007E000A8422BD0BB486830006820F44075B94857
:1007F0006830006840F48030B649683108600846C7
:10080000006820F48030086008460560006800F049
:10081000010098B1FFF79CFE064608E0FFF798FE3E
:10082000801B41F28831884201D90320C7E7A948DB
:1008300068300068C0F340000028EFD000BF208E71
:1008400000F44070B0F5407F0BD1A248006820F45E
:10085000F810A24A216B114008439E49086006E047
:1008600010E09C48006820F4F8109A490860994804
:1008700068300068218EC1F30B0108439549683147
:10088000086000BF207800F01000102810D100BFD1
:1008900090488430006820F080708E498431086070
:1008A00008460068A16B08438A498431086000BF8C
:1008B000208800F48040B0F5804F09D18548883009
:1008C000006820F44030616E084382498831086036
:1008D000208800F40040B0F5004F09D17D488830F1
:1008E000006820F44020A16E08437A4988310860EE
:1008F000206800F48030B0F5803F09D17548883019
:10090000006820F44010E16E0843724988310860A5
:10091000206800F40030B0F5003F09D16D48883000
:10092000006820F44000216F08436A49883108605C
:10093000207800F04000402809D1664888300068DF
:1009400020F00300616C0843624988310860207818
:1009500000F08000802809D15E488830006820F0CF
:100960000C00A16C08435B4988310860208800F4C2
:100970008070B0F5807F09D156488830006820F03B
:100980003000E16C0843534988310860208800F446
:100990000070B0F5007F09D14E488830006820F023
:1009A000C000216D08434B4988310860208800F45D
:1009B0008060B0F5806F09D146488830006820F427
:1009C0004070616D0843434988310860208800F415
:1009D0000060B0F5006F09D13E488830006820F40F
:1009E0004060A16D08433B4988310860208800F4CD
:1009F0008050B0F5805F09D136488830006820F417
:100A00004050E16D0843334988310860208800F484
:100A10000050B0F5005F09D12E488830006820F4FE
:100A20004040216E08432B4988310860206800F45B
:100A30008000B0F5800F09D126488830006820F08A
:100A40008060A16F0843234988310860206800F462
:100A50000010B0F5001F0FD11E488830006820F04C
:100A60000060E16F08431B4988310860E06FB0F116
:100A7000006F01D14FF00109207800F0080008282C
:100A800001D14FF00109206800F48020B0F5802FDB
:100A900009D110488830006820F04070616F084329
:100AA0000C4988310860206800F40000B0F5000FA0
:100AB0000AD108488830006820F08050D4F88010AF
:100AC0000843044988310860206800F08060B0F174
:100AD000806F05E00838024000700040FFFCFF0F07
:100AE00008D1FE48006820F00050D4F88410084374
:100AF000FA490860206800F00060B0F1006F0AD188
:100B0000F648001F006820F00070D4F888100843F1
:100B1000F249091F0860206800F08050B0F1805F42
:100B20000AD1EE48001F006820F08060D4F88C10D5
:100B30000843EA49091F0860B8F1010F03D0206893
:100B4000B0F1007F7DD1E5489038006820F08060EA
:100B5000E24990390860FFF7FBFC064606E0FFF724
:100B6000F7FC801B642801D9032028E6DB48903875
:100B70000068C0F3C0600028F1D1207800F00100C7
:100B8000F0B3606BE0BBD5480C38006800F440302F
:100B90004FF4403191FAA1F1B1FA81F120FA01F557
:100BA000CE480C38006800F070604FF0706191FA28
:100BB000A1F1B1FA81F120FA01F747F6C07191FA7B
:100BC000A1F1B1FA81F1606888404FF4403191FAA7
:100BD000A1F1B1FA81F105FA01F108434FF070611A
:100BE00091FAA1F1B1FA81F107FA01F108434FF04E
:100BF000E04292FAA2F2B2FA82F2A168914000E0D9
:100C000003E00843B5490C390860206800F400206F
:100C1000B0F5002F03D1E06BB0F5801F09D020683C
:100C200000F48010B0F5801F50D1206CB0F5800F1B
:100C30004CD1AA480C38006800F440304FF44031E1
:100C400000E0CFE091FAA1F1B1FA81F120FA01F5CB
:100C5000A2480C38006800F0E0404FF0E04191FA03
:100C6000A1F1B1FA81F120FA01F747F6C07191FACA
:100C7000A1F1B1FA81F1606888404FF4403191FAF6
:100C8000A1F1B1FA81F105FA01F108434FF0706268
:100C900092FAA2F2B2FA82F2E168914008434FF070
:100CA000E04191FAA1F1B1FA81F107FA01F10843AB
:100CB0008A490C3908608948001F006820F01F002D
:100CC000616A491E08438549091F0860206800F0D1
:100CD0008070B0F1807F3FD180480C38006800F010
:100CE00070604FF0706191FAA1F1B1FA81F120FAD0
:100CF00001F57A480C38006800F0E0404FF0E04120
:100D000091FAA1F1B1FA81F120FA01F747F6C07129
:100D100091FAA1F1B1FA81F1606888404FF4403254
:100D200092FAA2F2B2FA82F22169914008434FF09E
:100D3000706191FAA1F1B1FA81F105FA01F108436C
:100D40004FF0E04191FAA1F1B1FA81F107FA01F116
:100D5000084362490C390860206800F00070B0F167
:100D6000007F25D147F6C07191FAA1F1B1FA81F166
:100D7000606888404FF4403292FAA2F2B2FA82F2EE
:100D80002169914008434FF0706292FAA2F2B2FAE0
:100D900082F2E168914008434FF0E04292FAA2F2F9
:100DA000B2FA82F2A168914008434C490C390860BC
:100DB0004A489038006840F080604849903908609F
:100DC000FFF7C6FB064606E0FFF7C2FB801B642860
:100DD00001D90320F3E4414890380068C0F3C060B3
:100DE0000028F1D0B9F1010F69D13C489038006872
:100DF00020F08050394990390860FFF7A9FB06467A
:100E000006E0FFF7A5FB801B642801D90320D6E488
:100E1000324890380068C0F340700028F1D1206853
:100E200000F40020B0F5002F01D1E06B38B120684C
:100E300000F48010B0F5801F4FD1206CF0BB274824
:100E40000838006800F440304FF4403191FAA1F1C5
:100E5000B1FA81F120FA01F520480838006800F065
:100E6000E0404FF0E04191FAA1F1B1FA81F120FAAE
:100E700001F747F6C07191FAA1F1B1FA81F1606909
:100E800088404FF4403191FAA1F1B1FA81F105FAAD
:100E900001F108434FF0706292FAA2F2B2FA82F2C4
:100EA000A169914008434FF0E04191FAA1F1B1FAF4
:100EB00081F107FA01F10843084901E00DE0BBE0C8
:100EC00008390860081D006820F4F851A06A401E27
:100ED00041EA00200149091F086001E09038024002
:100EE000206800F40010B0F5001F40D1E06FB0F1B1
:100EF000006F3CD15148006800F070604FF07061A5
:100F000091FAA1F1B1FA81F120FA01F54B4800689C
:100F100000F0E0404FF0E04191FAA1F1B1FA81F127
:100F200020FA01F747F6C07191FAA1F1B1FA81F107
:100F3000606988404FF4403292FAA2F2B2FA82F22B
:100F4000216A914008434FF0706191FAA1F1B1FA22
:100F500081F105FA01F108434FF0E04191FAA1F166
:100F6000B1FA81F107FA01F10843344908602078A9
:100F700000F00800082845D13048006800F0706093
:100F80004FF0706191FAA1F1B1FA81F120FA01F507
:100F90002A48006800F440304FF4403191FAA1F142
:100FA000B1FA81F120FA01F747F6C07191FAA1F187
:100FB000B1FA81F1606988404FF4403191FAA1F1B2
:100FC000B1FA81F107FA01F108434FF0706191FA2B
:100FD000A1F1B1FA81F105FA01F108434FF0E042C5
:100FE00092FAA2F2B2FA82F2E169914008431349FF
:100FF0000860081D006820F44030E16A08430F498A
:10100000091D08600D488838006840F080500B4981
:1010100088390860FFF79CFA064606E0FFF798FA61
:10102000801B642801D903209FE5044888380068A4
:10103000C0F340700028F1D0002096E588380240C7
:1010400070B504460D4600266648006800F00F00A3
:10105000A8420ED26348006820F00F00284361497F
:1010600008600846006800F00F00A84201D0012087
:1010700070BD207800F00200022807D15A480068AD
:1010800020F0F000A168084357490860207800F07C
:101090000100002860D06068012807D15248083854
:1010A0000068C0F34040A0B90120E1E76068022871
:1010B00007D14D4808380068C0F3406048B90120A6
:1010C000D6E7494808380068C0F3400008B9012055
:1010D000CEE74548006820F00300616808434249B4
:1010E0000860FFF735FA06466068012810D108E06D
:1010F000FFF72EFA801B41F28831884201D9032084
:10110000B6E73948006800F00C000428F0D123E06D
:101110006068022810D108E0FFF71AFA801B41F23C
:101120008831884201D90320A2E72F48006800F0E7
:101130000C000828F0D10FE008E0FFF709FA801B47
:1011400041F28831884201D9032091E7264800689E
:1011500000F00C000028F0D12248006800F00F00D9
:10116000A8420ED91F48006820F00F0028431D49EF
:1011700008600846006800F00F00A84201D0012076
:1011800076E7207800F00400042807D116480068AC
:1011900020F4E050E168084313490860207800F02B
:1011A0000800082808D11048006820F46040216930
:1011B00040EAC1000C49086000F04EF80A4909688D
:1011C00001F0F001F02292FAA2F2B2FA82F2D140DA
:1011D000064A515CC840064908600020FFF7D2F972
:1011E000002045E7003C024008380240503A000821
:1011F000140000200148006870470000140000201F
:1012000000B5FFF7F7FF0749096801F4E0514FF413
:10121000E05292FAA2F2B2FA82F2D140024A515C52
:10122000C84000BD08380240603A000800B5FFF72A
:10123000E1FF0749096801F460414FF4604292FA06
:10124000A2F2B2FA82F2D140024A515CC84000BD1B
:1012500008380240603A000870B5002100220023DF
:101260000020274C246804F00C0424B1042C04D082
:10127000082C41D103E0234840E023483EE0204CC5
:10128000241F246804F03F011D4C241F246804F42B
:10129000800484B11C4CB4FBF1F5194C241F246864
:1012A00047F6C076344096FAA6F6B6FA86F6F440CB
:1012B00005FB04F20FE0134CB4FBF1F5104C241FB6
:1012C000246847F6C076344096FAA6F6B6FA86F653
:1012D000F44005FB04F20A4C241F246804F4403453
:1012E0004FF4403595FAA5F5B5FA85F5EC40641C48
:1012F0006300B2FBF3F001E0024800BF00BF70BD25
:10130000083802400024F40040787D01F8B5044616
:1013100000250026207800F00100002871D0FD484B
:10132000006800F00C0004280DD0FA48006800F0B6
:101330000C00082813D1F748001F006800F4800053
:10134000B0F5800F0BD1F34808380068C0F3404077
:10135000002869D06068002866D10120F8BD00BF70
:101360006068B0F5803F08D1EA480838006840F46A
:101370008030E849083908602EE0606868B9E548BF
:101380000838006820F48030E249083908600846CF
:10139000006820F4802008601EE06068B0F5A02F8F
:1013A0000DD1DC480838006840F48020D94908395C
:1013B00008600846006840F4803008600CE0D548BA
:1013C0000838006820F48030D2490839086008469F
:1013D000006820F48020086000BF606890B1FFF7CB
:1013E000B7F8054606E0FFF7B3F8401B642801D9BB
:1013F0000320B3E7C74808380068C0F3404000281E
:10140000F1D011E0FFF7A4F8054606E0FFF7A0F8D9
:10141000401B642801D90320A0E7BE4808380068B3
:10142000C0F340400028F1D1207800F002000228EB
:1014300073D1B848006800F00C0058B1B548006896
:1014400000F00C00082821D1B248001F006800F409
:101450008000D8B9AF4808380068C0F3400020B118
:10146000E068012801D0012078E7AA480838006820
:1014700020F0F800F82292FAA2F2B2FA82F2216980
:1014800091400843A3490839086046E0E06850B33A
:10149000A0480838006840F001009E4908390860FB
:1014A000FFF756F8054606E0FFF752F8401B022802
:1014B00001D9032052E7974808380068C0F340007C
:1014C0000028F1D093480838006820F0F800F8228E
:1014D00092FAA2F2B2FA82F22169914008438D4950
:1014E0000839086019E08B480838006820F00100CE
:1014F000884908390860FFF72BF8054606E0FFF732
:1015000027F8401B022801D9032027E78148083823
:101510000068C0F340000028F1D1207800F00800F6
:10152000082836D16069D0B17A486C30006840F044
:10153000010078496C310860FFF70AF8054606E0BB
:10154000FFF706F8401B022801D9032006E771487F
:101550006C300068C0F340000028F1D019E06D48FD
:101560006C30006820F001006A496C310860FEF7B9
:10157000EFFF054606E0FEF7EBFF401B022801D90E
:101580000320EBE663486C300068C0F3400000289D
:10159000F1D1207800F00400042874D15D4838307F
:1015A000006800F0805080B900BF5A4838300068A9
:1015B00040F080505749383108600846006800F014
:1015C0008050009000BF00BF01265348006800F41F
:1015D0008070B0B95048006840F480704E4908608F
:1015E000FEF7B6FF054606E0FEF7B2FF401B642893
:1015F00001D90320B2E64848006800F48070002852
:10160000F2D000BFA068012808D1424868300068C5
:1016100040F001003F49683108602DE0A06868B9DA
:101620003C486830006820F001003A4968310860A1
:101630000846006820F0040008601DE0A068052846
:101640000DD134486830006840F0040031496831F9
:1016500008600846006840F0010008600CE02D4872
:101660006830006820F001002A49683108600846A7
:10167000006820F00400086000BFA068A8B1FEF771
:1016800067FF054609E02EE0FEF762FF401B41F2CE
:101690008831884201D9032060E61E48683000681E
:1016A000C0F340000028EFD013E0FEF751FF0546DD
:1016B00008E0FEF74DFF401B41F28831884201D916
:1016C00003204BE6134868300068C0F34000002850
:1016D000EFD1012E07D10F483830006820F080503C
:1016E0000C4938310860A069F0B30A48006800F07E
:1016F0000C0008287FD0A069022863D1054808386B
:10170000006820F08070034908390860FEF720FF68
:1017100005460AE00838024000700040FEF718FF56
:10172000401B022801D9032018E635480068C0F3A1
:1017300040600028F2D1D4E90701084347F6C0729F
:1017400092FAA2F2B2FA82F2616A9140084301224F
:10175000A16AC2EB51014FF4403292FAA2F2B2FAFE
:1017600082F29140084300E047E04FF0706292FA45
:10177000A2F2B2FA82F2E16A914008434FF0E042ED
:1017800092FAA2F2B2FA82F2216B914008431C490C
:10179000091D0860081F006840F08070091F08607C
:1017A000FEF7D6FE054606E0FEF7D2FE401B0228F5
:1017B00001D90320D2E512480068C0F34060002838
:1017C000F2D01AE00E48006820F080700C490860E2
:1017D000FEF7BEFE054607E00DE0FEF7B9FE401B32
:1017E000022801D90320B9E505480068C0F340602C
:1017F0000028F2D101E00120B0E50020AEE50000B4
:101800000038024070B504460CB9012070BD606A12
:1018100000B900BF0021A16294F85D0028B9002042
:1018200084F85C00204600F053F8022084F85D0044
:101830002068006820F0400021680860E068B0F58A
:10184000E06F01D9002501E04FF48055E068B0F564
:10185000706F05D0E068B0F5E06F01D00021A162A3
:10186000206B40B9E068B0F5E06F02D90221216336
:1018700001E001212163D4E9010108432169084302
:1018800061690843218B01F400710843E169084351
:10189000216A0843A16A0843216808600421A069FD
:1018A00001EA1040616A0843616B0843E16808433C
:1018B0002843216848602068C06920F400602168DE
:1018C000C86100202066012084F85D0000209DE7AB
:1018D00010B586B004463149206888422AD100BF3D
:1018E0002F48006840F480502D4908600846006881
:1018F00000F48050009000BF00BF602001900220E3
:10190000029000200390032004900520059001A977
:101910002448FEF707FD802001900220029000205D
:101920000390032004900520059001A91E48FEF7AE
:10193000F9FC30E01D49206888422CD100BF1848CE
:10194000001F006840F480401549091F08600846E0
:10195000006800F48040009000BF00BF0C200190A0
:10196000022002900020039003200490052005909F
:1019700001A90F48FEF7D6FC4FF4806001900220C9
:10198000029000200390032004900520059001A9F7
:101990000848FEF7C7FC06B010BD0000003001404B
:1019A0004438024000000240000C02400038004071
:1019B00000080240000402402DE9F84304460E46A8
:1019C00017461D464FF00008C1466068B0F5827F9B
:1019D0000DD1A06858B9042084F85D003B4632461A
:1019E00031462046009500F067F9BDE8F88300BF56
:1019F00094F85C00012801D10220F6E7012084F868
:101A00005C0000BFFEF7A4FD804694F85D0001284D
:101A100002D04FF002098CE006B117B94FF001096E
:101A200087E0042084F85D00002020662664A4F886
:101A30004470A4F84670A063A087E087E064206546
:101A4000E068B0F5E06F06D92068406820F4805067
:101A50002168486005E02068406840F480502168B3
:101A60004860A068B0F5004F05D12068006820F4F8
:101A70008040216808602068006800F0400040282D
:101A800005D02068006840F0400021680860E068E8
:101A9000B0F5E06F20D81AE02068806800F00100FF
:101AA00048B12068007B3070761CB4F84600401EB8
:101AB000A4F846000BE03DB1681C40B1FEF748FDBC
:101AC000A0EB0800A84202D34FF0030931E0B4F8BC
:101AD00046000028E0D11FE01AE02068806800F08E
:101AE000010048B12068C0683080B61CB4F84600D8
:101AF000401EA4F846000BE03DB1681C40B1FEF763
:101B000027FDA0EB0800A84202D34FF0030910E024
:101B1000B4F846000028E0D142462946204601F0AC
:101B20000AF908B120202066206E08B14FF00109A3
:101B300000BF012084F85D0000BF002084F85C0035
:101B400000BF484651E72DE9F84304460D461746C5
:101B50001E464FF00008C14600BF94F85C00012803
:101B600002D10220BDE8F883012084F85C0000BFA8
:101B7000FEF7EEFC804694F85D00012802D04FF09D
:101B800002098FE005B117B94FF001098AE003207F
:101B900084F85D0000202066A563A787E78720649E
:101BA000A4F84400A4F846002065E064A068B0F5FD
:101BB000004F05D12068006840F48040216808602B
:101BC0002068006800F04000402805D020680068C8
:101BD00040F0400021680860E068B0F5E06F1ED971
:101BE00019E02068806800F00200022807D12888E8
:101BF0002168C860AD1CE08F401EE0870BE03EB15D
:101C0000701C40B1FEF7A4FCA0EB0800B04202D368
:101C10004FF0030946E0E08F0028E2D128E024E0FD
:101C20002068806800F00200022812D1E08F0128AD
:101C300007D928882168C860AD1CE08F801EE08726
:101C400013E015F8010B21680873E08F401EE08750
:101C50000BE03EB1701C40B1FEF77AFCA0EB08002F
:101C6000B04202D34FF003091CE0E08F0028D7D127
:101C700042463146204601F09FF808B120202066F8
:101C8000A06850B900BF002000902068C068009094
:101C900020688068009000BF00BF206E08B14FF040
:101CA000010900BF012084F85D0000BF002084F816
:101CB0005C0000BF484655E72DE9FC5F04460D4631
:101CC00016461F46DDF830804FF0000A00200190D4
:101CD00081464FF0010B009000BF94F85C00012892
:101CE00002D10220BDE8FC9F012084F85C0000BF07
:101CF000FEF72EFC814694F85DA060680190BAF171
:101D0000010F0BD00198B0F5827F04D1A06810B903
:101D1000BAF1040F02D002200090FCE00DB106B130
:101D200017B901200090F6E094F85D00042802D075
:101D3000052084F85D00002020662664A4F8467023
:101D4000A4F84470A563E787A787E0642065E0688E
:101D5000B0F5E06F03D8B4F84600012806DD20682E
:101D6000406820F480502168486005E020684068A1
:101D700040F48050216848602068006800F040000E
:101D8000402805D02068006840F0400021680860C5
:101D9000E068B0F5E06F47D9606810B1E08F0128C6
:101DA00006D128882168C860AD1CE08F401EE087FE
:101DB00032E0BBF1000F10D0E08F70B12068806876
:101DC00000F00200022808D128882168C860AD1CF4
:101DD000E08F401EE0874FF0000BB4F8460078B16A
:101DE0002068806800F0010050B12068C068308031
:101DF000B61CB4F84600401EA4F846004FF0010B94
:101E000008F1010040B1FEF7A3FBA0EB090040453B
:101E100002D3032000907EE0E08F0028C9D1B4F8FF
:101E200046000028C5D169E0606810B1E08F012844
:101E300006D12878216808736D1CE08F401EE0876A
:101E400055E0BBF1000F1BD0E08FC8B1206880685F
:101E500000F00200022813D1E08F012807D928885A
:101E60002168C860AD1CE08F801EE08706E015F891
:101E7000010B21680873E08F401EE0874FF0000BD4
:101E8000B4F8460038B32068806800F0010010B351
:101E9000B4F84600012813D92068C0683080B61C09
:101EA000B4F84600801EA4F84600B4F846000128A5
:101EB0000FD82068406840F480502168486008E0EE
:101EC0002068007B06F8010BB4F84600401EA4F819
:101ED00046004FF0010B08F1010040B1FEF738FB5E
:101EE000A0EB0900404502D30320009013E0E08FEF
:101EF0000028A6D1B4F846000028A2D14A4641469F
:101F0000204600F059FF08B120202066206E08B15D
:101F10000120009000BF012084F85D0000BF002078
:101F200084F85C0000BF0098DCE6042808D14FF07C
:101F3000E021096941F004014FF0E022116107E05E
:101F40004FF0E021096921F004014FF0E022116116
:101F50007047704770B504462546681EB0F1807F13
:101F600001D301200FE0681E4FF0E02148610F21EE
:101F70004FF0FF3000F0CAFE00204FF0E0218861F2
:101F800007200861002070BD10B5FFF7E2FF10BD0B
:101F90007047704730B502460B4600BF92F83C00D0
:101FA000012801D1022030BD012082F83C0000BF91
:101FB00010684168106884680F4D1068A84203D00B
:101FC0000E4D1068A84203D121F4700158680143F6
:101FD00021F070011868014324F0800498680443DC
:101FE000106841601068846000BF002082F83C00E7
:101FF00000BF00BFD7E7000000000140000401401F
:1020000010B504460CB9012010BD94F83D0028B964
:10201000002084F83C00204600F00CF8022084F8F0
:102020003D00211D206801F057F8012084F83D0093
:102030000020E9E738B504460D492068884215D1EB
:1020400000BF0C48006840F001000A4908600846DB
:10205000006800F00100009000BF00BF00221146A0
:102060001920FEF7DBFA1920FEF7CBFA38BD000085
:10207000000001404438024001460868C06840F052
:1020800001000A68D0600868006840F001000A6832
:1020900010600020704700002DE9F04104460D4615
:1020A000002600BF94F83C00012802D10220BDE8C0
:1020B000F081012084F83C0000BF022084F83D003C
:1020C000206886684148064026F47F46206886607E
:1020D000286850283CD00CDC202861D004DC002883
:1020E00054D0102866D156E030285ED0402861D107
:1020F00042E0602836D070280ED0B0F5805F03D063
:10210000B0F5005F56D116E0206880682F49703125
:102110000840216888604EE0D5E902136A682068AB
:1021200001F052F8206886682848064046F0770695
:10213000206886603FE0D5E902136A68206801F0F4
:1021400043F82068806840F480402168886032E06D
:10215000EA686968206801F04DF85021206801F0B4
:102160003FF828E0EA686968206801F058F86021C3
:10217000206801F035F81EE0EA686968206801F01F
:1021800039F84021206801F02BF814E00021206884
:1021900001F026F80FE01021206801F021F80AE094
:1021A0002021206801F01CF805E03021206801F0B2
:1021B00017F800E000BF00BF012084F83D0000BF19
:1021C000002084F83C0000BF00BF70E788FFFEFFDE
:1021D000704710B5044620680069C0F34000D8B1CC
:1021E0002068C068C0F34000B0B16FF00200216801
:1021F0000861012020772068806900F0030018B191
:102200002046FFF7E5FF05E0204600F0BEF8204637
:1022100000F0BCF80020207720680069C0F380003F
:10222000D8B12068C068C0F38000B0B16FF004007E
:1022300021680861022020772068806900F44070DE
:1022400018B12046FFF7C4FF05E0204600F09DF8D6
:10225000204600F09BF80020207720680069C0F33A
:10226000C000D8B12068C068C0F3C000B0B16FF042
:10227000080021680861042020772068C06900F008
:10228000030018B12046FFF7A3FF05E0204600F049
:102290007CF8204600F07AF800202077206800695A
:1022A000C0F30010D8B12068C068C0F30010B0B10E
:1022B0006FF0100021680861082020772068C0694D
:1022C00000F4407018B12046FFF782FF05E0204679
:1022D00000F05BF8204600F059F8002020772068D5
:1022E000006900F0010058B12068C06800F00100EA
:1022F00030B16FF0010021680861204600F048F815
:1023000020680069C0F3C01058B12068C068C0F3ED
:10231000C01030B16FF08000216808612046FFF7DF
:1023200037FE20680069C0F3002058B12068C068FB
:10233000C0F3C01030B16FF0800021680861204602
:10234000FFF726FE20680069C0F3801058B12068AE
:10235000C068C0F3801030B16FF0400021680861A0
:10236000204600F049F820680069C0F3401058B1D9
:102370002068C068C0F3401030B16FF020002168C1
:1023800008612046FFF705FE10BD7047704700004A
:1023900010B5044614492068884224D113480088A7
:1023A0000A2190FBF1F201FB120088B9104800F0FD
:1023B00091FCBCEEC00A0E48643880ED270A0D4837
:1023C00000F088FCBCEEC00A0A48643880ED270A99
:1023D00006480088401C0549088008460088632894
:1023E00001DB0020088010BD00000140000000203B
:1023F000DC0200207C030020704770472DE9F0418B
:1024000004462068C569206806682068876805F06A
:102410000F08B8F1000F0AD105F0200038B106F01E
:10242000200020B1204600F0D8FFBDE8F081B8F1CF
:10243000000F7BD007F0010018B906F49070002857
:1024400074D005F0010048B106F4807030B101206D
:1024500021680862E06E40F00100E06605F00200CD
:1024600048B107F0010030B1022021680862E06E37
:1024700040F00400E06605F0040048B107F00100F8
:1024800030B1042021680862E06E40F00200E0668E
:1024900005F0080060B106F0200010B907F0010057
:1024A00030B1082021680862E06E40F00800E06664
:1024B000E06E58B305F0200028B106F0200010B1FE
:1024C000204600F08AFFE06E00F0080020B9206886
:1024D000806800F0400018B3204600F05EFF2068DE
:1024E000806800F04000B8B12068806820F04000AB
:1024F00021688860606E50B11748616E0865606E33
:10250000FDF7C4FE10B1606E016D88470DE02046F6
:10251000FFF773FF09E009E02046FFF76EFF04E0D4
:102520002046FFF76AFF0020E0667EE705F08000A6
:1025300030B106F0800018B1204601F059F974E777
:1025400005F0400030B106F0400018B1204600F020
:1025500034FF6AE700BF68E78333000810B504461C
:102560000CB9012010BDA06900B100E000BF94F8D3
:10257000690028B9002084F86800204600F02AF895
:10258000242084F869002068006820F00100216898
:102590000860204600F066FF012800D1E2E7606A8B
:1025A00010B1204600F051FE2068406820F49040B1
:1025B000216848602068806820F02A0021688860CF
:1025C0002068006840F0010021680860204600F0A3
:1025D000B1FEC7E710B586B0044638492068884286
:1025E0001CD100BF3648006840F400203449086020
:1025F0000846006800F40020009000BF00BF0320E0
:1026000001900220029001200390032004900820F2
:10261000059001A92B48FDF785FE4CE02A4920686A
:10262000884227D100BF2648001D006840F01000F6
:102630002349091D08600846006800F0100000905A
:1026400000BF00BF4FF440400190022002900120E3
:102650000390032004900420059001A91B48FDF776
:1026600061FE002211462520FDF7D8FF2520FDF749
:10267000C8FF20E01649206888421CD100BF1048DE
:10268000006840F480200E4908600846006800F4A5
:102690008020009000BF00BF4FF4407001900220E6
:1026A000029001200390032004900720059001A9C7
:1026B0000848FDF737FE06B010BD0000004C004092
:1026C0004038024000000240001001400004024077
:1026D00000480040000C02407047704738B504467F
:1026E00094F8920000F00F0040F080000090204627
:1026F00000F068F801231A4669462046FFF723FADE
:10270000204600F025F838BD38B50446CD200090AD
:10271000204600F057F80A23012269462046FFF7B9
:1027200012FA0A23032204F194012046FFF744F928
:10273000204600F00DF894F8940001049520005D07
:1027400041EA00209621095D0843C4F8980038BD8D
:1027500010B50446B4F878100122606FFDF7F2FE60
:1027600010BD70B50446204600F019F8204600F070
:102770001FF80F252A460121204600F02CF80A20D8
:10278000FDF798FD94F8930040F008052A460221D1
:10279000204600F020F80A20FDF78CFD70BD10B532
:1027A0000446B4F880100122E06FFDF7CBFE10BDA7
:1027B00010B50446B4F888100022D4F88400FDF760
:1027C000C1FE10BD10B50446B4F878100022606F49
:1027D000FDF7B8FE10BD37B582B005460C4604F0D3
:1027E0001F00802141EA400040F04000019028464F
:1027F000FFF7E8FF0A23012201A92846FFF7A3F902
:102800000A23012204A92846FFF79DF92846FFF76D
:102810009FFF05B030BD000010B53E222449254879
:10282000FDF706FD2248C08F2249C8870846204987
:102830000A6C0264B1F84410A0F844101C48B0F8C7
:1028400046001C49A1F8460015221949483119488B
:102850004830FDF7EDFC164890F85D00154981F809
:102860005D001348006E0866134848670420A1F80D
:1028700078001148C8678014A1F880000E48C1F89C
:102880008400C014A1F888000B48C1F88C00022015
:10289000A1F890000C2081F89200032081F89300A9
:1028A000102104480167643001F027F810BD0000D2
:1028B00020000020780200200004024000B587B00C
:1028C00000BF6648006840F0100064490860084690
:1028D000006800F01000019000BF00BF00BF084674
:1028E000006840F0040008600846006800F004003A
:1028F000019000BF00BF00BF0846006840F0010023
:1029000008600846006800F00100019000BF00BFA9
:1029100000BF0846006840F00200086008460068F2
:1029200000F00200019000BF00BF00BF0846006831
:1029300040F0080008600846006800F008000190B8
:1029400000BF00BF00BF0846006840F040000860BC
:102950000846006800F04000019000BF00BF01225F
:1029600041F604013E48FDF7EDFD012270213D488E
:10297000FDF7E8FD002280213948FDF7E3FD08203E
:102980000290394803900020049002A93748FDF7CF
:10299000C9FC0220029003900020049003200590BF
:1029A0000B20069002A93248FDF7BCFC8020029063
:1029B0000220039000200490032005900C20069034
:1029C00002A92C48FDF7AEFC022002902648039095
:1029D0000020049002A92248FDF7A4FC41F604005F
:1029E000029001200390002004900220059002A98B
:1029F0001B48FDF797FC40200290002003900490B4
:102A000002A91D48FDF78EFC702002900120039062
:102A1000002004900220059002A91248FDF782FCD4
:102A2000802002900120039000200490059002A9CC
:102A30000B48FDF777FC002201210720FDF7EEFD92
:102A40000720FDF7DEFD002201210920FDF7E6FD4C
:102A50000920FDF7D6FD07B000BD00003038024068
:102A600000040240000C024000002110001002404F
:102A700000080240000002400018024010B5134850
:102A8000134908604FF4827048600021104881604B
:102A90004FF4E061C1600021016141614FF40071B8
:102AA00081610821C16100210162416281620721C7
:102AB000C162002101634163FEF7A4FE20B140F230
:102AC000331104A000F008FF10BD000000300140E9
:102AD000200000202E2E2F5372632F6D61696E2E01
:102AE0006300000010B51248124908604FF482706C
:102AF000486000210F4881604FF4E061C16000210F
:102B0000016141614FF4007181610021C161016285
:102B1000416281620721C162002101634163FEF7C6
:102B200071FE20B14FF4A67103A000F0D5FE10BDD8
:102B300000380040840000202E2E2F5372632F6D2A
:102B400061696E2E6300000000B587B019481A490C
:102B500008600F2048600021174881606321C16030
:102B60000021016141618161FFF74AFA20B140F221
:102B7000611112A000F0B0FE4FF48050039003A941
:102B80000D48FFF789FA20B140F267110BA000F061
:102B9000A3FE002000900190029069460648FFF7CE
:102BA000F9F920B140F26F1104A000F095FE07B0D2
:102BB00000BD000000000140E80000202E2E2F5331
:102BC00072632F6D61696E2E6300000010B50F48AF
:102BD0000F4908604FF4E130486000210C488160E3
:102BE000C16001610C21416100218161C16101620B
:102BF0000020074948620846FFF7B0FC20B14FF4B7
:102C0000C27104A000F068FE10BD0000004C00403E
:102C1000280100202E2E2F5372632F6D61696E2EB6
:102C20006300000010B50F480F4908604FF4E13011
:102C3000486000210C488160C16001610C21416144
:102C400000218161C1610162002007494862084694
:102C5000FFF784FC20B140F2991104A000F03CFE83
:102C600010BD000000100140980100202E2E2F53AF
:102C700072632F6D61696E2E6300000010B50F48FE
:102C80000F4908604FF4E130486000210C48816032
:102C9000C16001610C21416100218161C16101625A
:102CA0000020074948620846FFF758FC20B14FF45E
:102CB000D77104A000F010FE10BD000000480040D5
:102CC000080200202E2E2F5372632F6D61696E2E25
:102CD0006300000001460022002004E08B6853F8E6
:102CE00020301A44401CCB685B1E8342F6DA92FB0C
:102CF000F0F300EE103AB8EEC00A704702480068E0
:102D0000C0F30220704700000CED00E010B5002871
:102D100007DA0A07140E054A00F00F031B1FD454EC
:102D200003E00A07130E024A135410BD18ED00E029
:102D300000E400E07047F8B504460E4615466068AA
:102D4000B0F5827F0DD1A068B0F5004F03D0A06828
:102D5000B0F5806F05D12068006820F04000216840
:102D600008603346002280212046009500F0AFF82D
:102D700028B1206E40F0200020660320F8BD606876
:102D8000B0F5827F16D1A068B0F5004F03D0A068DF
:102D9000B0F5806F0ED1334600224FF4C06120465B
:102DA000009500F03BF828B1206E40F0200020662E
:102DB0000320E3E70020E1E7F8B504460E46154698
:102DC000334600224FF4C0512046009500F026F80B
:102DD00028B1206E40F0200020660320F8BD334665
:102DE000002280212046009500F071F828B1206E65
:102DF00040F0200020660320F0E7334600224FF425
:102E0000C0612046009500F009F828B1206E40F01E
:102E1000200020660320E1E70020DFE72DE9F843EA
:102E200004460E4617461D46DDF8208048E0B6F5FC
:102E3000C06F05D127B92068007B00909DF8000085
:102E4000681CE0B32DB1FDF783FBA0EB0800A8429E
:102E500036D32068406820F0E00021684860606850
:102E6000B0F5827F0DD1A068B0F5004F03D0A06807
:102E7000B0F5806F05D12068006820F0400021681F
:102E80000860A06AB0F5005F0ED100BF206800683E
:102E90004DF6FF710840216808602068006840F422
:102EA00000502168086000BF012084F85D0000BF69
:102EB000002084F85C0000BF0320BDE8F883FFE732
:102EC000206880683040B842B1D10020F5E72DE994
:102ED000F04104460E4617461D46DDF818803FE0D7
:102EE000681CE0B32DB1FDF733FBA0EB0800A8424E
:102EF00036D32068406820F0E000216848606068B0
:102F0000B0F5827F0DD1A068B0F5004F03D0A06866
:102F1000B0F5806F05D12068006820F0400021687E
:102F20000860A06AB0F5005F0ED100BF206800689D
:102F30004DF6FF710840216808602068006840F481
:102F400000502168086000BF012084F85D0000BFC8
:102F5000002084F85C0000BF0320BDE8F081FFE79B
:102F6000206880683040B842BAD10020F5E7704749
:102F700010B5FDF7F3FAFFF707F810BD10B5B8B0BC
:102F800000BF3248006840F0805030490860084671
:102F9000006800F08050019000BF00BF00BF2C48C7
:102FA000006820F4404040F4804029490860084609
:102FB000006800F44040019000BF00BF02202B9049
:102FC00001202E9010202F90002031902BA8FEF78A
:102FD0009DF918B1F8211FA000F07EFC0F2026906B
:102FE0000020279028904FF48050299000202A90AC
:102FF000002126A8FEF724F820B14FF4837115A014
:1030000000F06AFC4FF4507002900020139015906D
:10301000169002A8FDF754FB20B14FF488710DA063
:1030200000F05AFCFEF7E6F84FF47A71B0FBF1F4C9
:103030002046FEF78FFF0420FEF777FF002211469F
:10304000501EFDF7EBFA38B010BD000040380240CA
:10305000007000402E2E2F5372632F6D61696E2E0B
:10306000630000001448006840F4700012490860D2
:103070001248006840F001001049086000200F4924
:10308000083108600D4800680D4908400B49086088
:103090000C48091D0860081F006820F48020091FE3
:1030A0000860002005490C3108604FF000600249BB
:1030B000803908607047000088ED00E00038024069
:1030C000FFFFF6FE1030002410B50248FFF781F82C
:1030D00010BD0000E800002010B5002202682F4B50
:1030E00098420ED0B0F1804F0BD02D4B984208D0B3
:1030F0002C4B984205D02C4B984202D02B4B984237
:1031000001D1012300E000231BB122F070024B68C3
:103110001A43224B984220D0B0F1804F1DD0204B53
:1031200098421AD01F4B984217D01F4B984214D088
:103130001E4B984211D01E4B98420ED01D4B984208
:103140000BD01D4B984208D01C4B984205D01C4B0D
:10315000984202D01B4B984201D1012300E000238A
:103160001BB122F44072CB681A4322F080034C69F1
:1031700043EA040202608B68C3620B688362074BF8
:10318000984202D0094B984201D1012300E000236C
:103190000BB10B6903630123436110BD00000140C3
:1031A0000004004000080040000C00400004014002
:1031B0000040014000440140004801400018004028
:1031C000001C00400020004030B50C460021816802
:1031D00021F47F4142EA032525432943816030BD24
:1031E0000A460021816821F0700142F0070319436B
:1031F0008160704730B50B46144600210022026AF8
:10320000056A25F001050562816921F0F00141EAB6
:10321000041122F00A021A438161026230BD30B506
:103220000B46144600210022056A25F010050562B0
:103230008169026A21F4704141EA043122F0A0025E
:1032400042EA03128161026230BD90F8241001F05D
:10325000010139B10168496821F40031826A1143E2
:103260000268516090F8241001F0020139B1016840
:10327000496821F48031C26A11430268516090F8B4
:10328000241001F0040139B10168496821F480215A
:10329000026B11430268516090F8241001F008019C
:1032A00039B10168496821F40041426B1143026859
:1032B000516090F8241001F0100139B1016889685B
:1032C00021F48051826B11430268916090F82410C0
:1032D00001F0200139B10168896821F40051C26B05
:1032E00011430268916090F8241001F0400199B1F7
:1032F0000168496821F48011026C11430268516031
:10330000016CB1F5801F07D10168496821F4C00143
:10331000426C11430268516090F8241001F0800162
:1033200039B10168496821F40021826C11430268B7
:103330005160704738B5044600250020E066FDF76F
:1033400007F905462068006800F0080008280CD13D
:103350006FF07E402B4600224FF400110090204673
:1033600000F07BFA08B1032038BD202084F8690002
:1033700084F86A0000BF002084F8680000BF00BF26
:10338000F2E770B50546AC6B0020A4F85A00A4F82B
:1033900052002046FFF731F870BD0168096821F43A
:1033A0009071026811600168896821F0010102686A
:1033B0009160202180F86A10704710B5044620689B
:1033C000006820F0400021680860202084F869002F
:1033D0002046FFF782F9002010BD70B50446B4F80E
:1033E0005C6094F86A00222833D1A068B0F5805F51
:1033F0000AD1206940B9656D2068406A3040288054
:10340000606D801C606507E02068406AF1B208408A
:10341000626D511C61651070B4F85A00401E80B294
:10342000A4F85A0098B92068006820F490702168C8
:1034300008602068806820F00100216888602020F2
:1034400084F86A002046FFF747F9002070BD00208D
:10345000FCE72068806940F008002168886102204C
:10346000F4E700002DE9F047044600251026002768
:10347000A846A9462169A068084361690843E16933
:1034800040EA010520680068CD49084028432168CA
:1034900008602068406820F44050E16808432168D3
:1034A0004860216AA06940EA01052068806820F42C
:1034B000306028432168886000BFC2492068884284
:1034C00015D1C148006800F0030030B1012808D0D0
:1034D000022804D0032808D105E0012606E00226D0
:1034E00004E0042602E0082600E000BFC1E0B7497E
:1034F0002068884215D1B448006800F00C0030B153
:10350000042808D0082804D00C2808D105E000269B
:1035100006E0022604E0042602E0082600E000BFE0
:10352000A7E0AB492068884215D1A748006800F0A1
:10353000300030B1102808D0202804D0302808D11D
:1035400005E0002606E0022604E0042602E0082644
:1035500000E000BF8DE09F492068884215D19A485D
:10356000006800F0C00030B1402808D0802804D0A6
:10357000C02808D105E0002606E0022604E0042663
:1035800002E0082600E000BF73E09349206888420B
:1035900018D18D48006800F4407048B1B0F5807FC4
:1035A0000AD0B0F5007F05D0B0F5407F08D105E026
:1035B000002606E0022604E0042602E0082600E0D9
:1035C00000BF56E085492068884218D17E480068CF
:1035D00000F4406048B1B0F5806F0AD0B0F5006FDC
:1035E00005D0B0F5406F08D105E0012606E00226BF
:1035F00004E0042602E0082600E000BF39E0784934
:103600002068884218D17048006800F4405048B1E2
:10361000B0F5805F0AD0B0F5005F05D0B0F5405F2F
:1036200008D105E0002606E0022604E0042602E0B8
:10363000082600E000BF1CE06A492068884218D1D3
:103640006148006800F4404048B1B0F5804F0AD0AE
:10365000B0F5004F05D0B0F5404F08D105E0002689
:1036600006E0022604E0042602E0082600E000BF8F
:1036700000BF00BFE069B0F5004F52D1042E2BD03F
:1036800005DC4EB1012E12D0022E3BD11AE0082EDD
:103690002DD0102E36D136E0FDF7B2FD4000616826
:1036A00000EB5100B0FBF1F01FFA80F82EE0FDF7BF
:1036B000BDFD4000616800EB5100B0FBF1F01FFA66
:1036C00080F823E04849606801EB50006168B0FB76
:1036D000F1F01FFA80F819E0FDF7BEFD40006168C7
:1036E00000EB5100B0FBF1F01FFA80F80EE04FF450
:1036F0008031606801EB50006168B0FBF1F01FFAA7
:1037000080F803E000BF4FF0010900BF00BF4FF693
:10371000F07008EA0007C8F3420007432068C7605A
:103720004AE0042E2CD005DC4EB1012E12D0022E20
:103730003DD11AE0082E2ED0102E38D138E0FDF7FA
:103740005FFD616800EB5100B0FBF1F080B22168D1
:10375000C86030E0FDF76AFD616800EB5100B0FB26
:10376000F1F080B22168C86025E02049606801EB73
:1037700050006168B0FBF1F080B22168C8601AE0C7
:10378000FDF76AFD616800EB5100B0FBF1F080B21B
:103790002168C8600FE04FF40041606801EB500001
:1037A0006168B0FBF1F080B22168C86003E000BF3F
:1037B0004FF0010900BF00BF4846BDE8F087000098
:1037C000F369FFEF001001409038024000440040D0
:1037D00000480040004C00400050004000140140F0
:1037E00000780040007C00400048E8010024F4001C
:1037F000014691F8690021282DD1B1F8520068B92D
:103800000868006820F080000B681860086800688D
:1038100040F040000B681860002070478868B0F5E1
:10382000805F0BD1086948B9CA6C1088C0F30800E2
:103830000B689862C86C801CC86405E0CB6C581C8F
:10384000C86418780B689862B1F85200401EA1F85D
:1038500052000020E1E70220DFE72DE9F0410446B5
:103860000D4617469846069E21E0701CF8B12EB111
:10387000FCF76EFEA0EB0800B04218D32068006889
:1038800020F4D070216808602068806820F0010072
:1038900021688860202084F8690084F86A0000BFED
:1038A000002084F8680000BF0320BDE8F081206894
:1038B000C0692840A84201D1012000E00020B842A0
:1038C000D3D00020F1E7000010B50248FEF796FDC6
:1038D00010BD00009801002000BFFEE702E008C80C
:1038E000121F08C1002AFAD170477047002001E07A
:1038F00001C1121F002AFBD1704710B50446E168D0
:10390000880000F06FF8A06010BD00B503461846AF
:1039100000F022F838B91868401CD96890FBF1F221
:1039200001FB120018601968986850F8210000BD6A
:1039300030B504460D46204600F017F858B96068C7
:10394000401CE16890FBF1F201FB12006060D4E9D9
:10395000011040F8215030BD0146D1E900029042EB
:1039600001D1012070470020FCE701464868401C57
:10397000CA6890FBF2F302FB13000A68904201D17F
:10398000012070470020FCE700BF00BF00BF00BF60
:1039900000BFFCF7EBFDFFF7F1FAFEF78FFFFFF733
:1039A0006DF8FFF79FF8FFF73DF9FFF70FF9FFF705
:1039B000CBF8FFF763F9FEF72FFF0748FEF7D1FEBC
:1039C0000648FEF759FB80210548FCF7B7FD024881
:1039D000FEF784FE00BFFEE778020020E80000202A
:1039E00000040240F0B50B30154D20F00701002413
:1039F000144A0FE003688B420BD38B4205D95E1A41
:103A000043184768C3E9006700E04368136002C0D9
:103A100004E0021D10680028ECD12046002802D1E5
:103A2000286808B10020F0BD064A07481060074A20
:103A3000121A22F00702C0E9002401202860D7E70B
:103A40001C00002018000020BC050020B807002042
:103A5000000000000000000001020304060708093E
:103A60000000000001020304883A00080000002062
:103A700020000000DC380008A83A000820000020E0
:103A8000980B0000EC380008000000000000000067
:103A90000000000000000000000000000024F4000E
:083AA00000000000000000001E
:04000005080001F9F5
:00000001FF
