:020000040800F2
:10000000300D00200D02000815020008170200083C
:10001000190200081B0200081D0200080000000071
:100020000000000000000000000000000D2A000891
:100030002102000800000000552800080F2A0008CF
:1000400027020008270200082702000827020008EC
:1000500027020008270200082702000827020008DC
:1000600027020008270200082702000827020008CC
:1000700027020008270200082702000827020008BC
:1000800027020008270200082702000827020008AC
:100090002702000827020008270200088D02000836
:1000A00027020008892B0008270200082702000801
:1000B000270200082702000827020008270200087C
:1000C000270200082702000827020008270200086C
:1000D000270200082702000827020008270200085C
:1000E00079020008270200082702000827020008FA
:1000F000270200082702000827020008270200083C
:10010000270200082702000827020008270200082B
:10011000270200082702000827020008270200081B
:10012000270200082702000827020008270200080B
:1001300027020008270200082702000827020008FB
:1001400027020008270200082702000827020008EB
:1001500027020008270200082702000827020008DB
:1001600027020008270200082702000827020008CB
:1001700027020008270200082702000800000000EC
:1001800027020008270200082702000827020008AB
:10019000270200082702000827020008270200089B
:1001A000270200082702000827020008270200088B
:1001B000270200082702000827020008270200087B
:1001C000270200082702000800000000270200089C
:1001D000270200082702000827020008270200085B
:1001E000270200082702000827020008270200084B
:1001F0002702000827020008DFF80CD000F02AF8D8
:100200000048004799320008300D0020064880471A
:1002100006480047FEE7FEE7FEE7FEE7FEE7FEE7EB
:10022000FEE7FEE7FEE7FEE7252B0008F9010008E0
:1002300040EA01039B0703D009E008C9121F08C068
:10024000042AFAD203E011F8013B00F8013B521EE8
:10025000F9D27047064C074D06E0E06840F0010314
:1002600094E8070098471034AC42F6D3FFF7C8FF74
:1002700088330008A833000810B54FF4005000F090
:1002800019F84FF4004000F015F810BD10B58020AB
:1002900000F010F810BD31B5002400F02BF9044631
:1002A00000BF00F027F9001B00998842F9D338BD40
:1002B0007047000010B5044604480068204020B193
:1002C000024804602046FFF7F3FF10BD143C0140D4
:1002D000F8B502460B46002100250024002000BF8F
:1002E000E4E0012606FA01F51E6806EA0504AC42C0
:1002F00071D15E68022E02D05E68122E13D1CF0833
:1003000002F1200656F827004E07F70E0F26BE40D2
:10031000B0434F07FF0E1E69BE403043CF0802F1C5
:10032000200646F8270010684F000326BE40B04361
:100330001E7906F003064F00BE40304310605E6831
:10034000012E08D05E68022E05D05E68112E02D004
:100350005E68122E13D190684F000326BE40B04352
:100360004F00DE68BE4030439060506801268E40EA
:10037000B0431E79C6F300168E4030435060D068FB
:100380004F000326BE40B0434F009E68BE4030433E
:10039000D0605E6806F08056B6F1805FA8D100BFDD
:1003A000444E366846F48046424F3E603E463668CC
:1003B00006F48046009600BF00BF3F4E8F0856F8F7
:1003C00027008E07370F0F26BE40B0433B4EB24288
:1003D00002D100262EE068E0394EB24201D101265A
:1003E00028E0384EB24201D1022623E0364EB24216
:1003F00001D103261EE0354EB24201D1042619E098
:10040000334EB24201D1052614E0324EB24201D140
:1004100006260FE0304EB24201D107260AE02F4EE9
:10042000B24201D1082605E02D4EB24201D1092683
:1004300000E00A268F073F0FBE4030431E4E8F0854
:1004400046F82700274E3068A0435E6806F48036E1
:10045000B6F5803F00D12043224E3060361D306813
:10046000A0435E6806F40036B6F5003F00D1204395
:100470001C4E361D3060361D3068A0435E6806F4A1
:100480008016B6F5801F00D12043164E0836306026
:10049000361D3068A0435E6806F40016B6F5001FEE
:1004A00000D120430F4E0C363060491C1029FFF458
:1004B00018AFF8BD4438024008380140000002403F
:1004C0000004024000080240000C024000100240FC
:1004D0000014024000180240001C024000200240AC
:1004E00000240240003C01400AB1816101E00B049C
:1004F0008361704701480068704700002C000020AD
:1005000002480068401C0149086070472C00002028
:1005100010B5032000F092F8002000F005F800F07C
:1005200017F8002010BD000070B5044607480068A9
:100530004FF47A71B0FBF1F5284601F0B1F90022D1
:100540002146501E00F03CF8002070BD3000002015
:1005500010B5042000F072F8002211466FF00B0075
:1005600000F02EF8002211466FF00A0000F028F883
:10057000002211466FF0090000F022F80022114617
:10058000501F00F01DF800221146101F00F018F84F
:1005900000221146901E00F013F800221146501E52
:1005A00000F00EF810BD00BF00F01F0201219140C5
:1005B0004209920002F1E022C2F8001100BF704728
:1005C0002DE9F05F80460D461646002702F026F919
:1005D000074639462A46334601F00700C0F1070AAC
:1005E000BAF1040F02D94FF0040A01E0C0F1070A82
:1005F000D14600F1040ABAF1070F02D24FF0000A07
:1006000001E0A0F1030AD4464FF0010A0AFA09FA00
:10061000AAF1010A0AEA020A0AFA0CFA4FF0010BDF
:100620000BFA0CFBABF1010B0BEA030B4AEA0B04D0
:100630002146404602F0FAF8BDE8F09F00BF00F006
:100640000702064B19684FF6FF031940044B0B4392
:1006500043EA0221014B196000BF70470CED00E036
:100660000000FA0538B5002400BF2048006840F0BB
:1006700080501E4908600846006800F080500090D5
:1006800000BF00BF1A48006840F480301849086075
:10069000FFF730FF044607E0FFF72CFF001BB0F523
:1006A0007A7F01D9032038BD1148406800F48030BA
:1006B000B0F5803FF0D10E48006840F400300C499E
:1006C0000860FFF717FF044607E0FFF713FF001B62
:1006D000B0F57A7F01D90320E5E70548406800F4CA
:1006E0000030B0F5003FF0D10020DCE74038024098
:1006F000007000402DE9F84304460026002500273D
:10070000A846A946207800F0010088B100BFFE4845
:10071000006820F40000FC49086008460068616B2E
:100720000843F949086000BF606B08B94FF0010841
:10073000206800F40020B0F5002F13D1F248843077
:10074000006820F44010E16B0843EF4984310860F1
:10075000E06BB0F5801F01D14FF00108E06B08B9E4
:100760004FF00109206800F48010B0F5801F13D10C
:10077000E5488430006820F44000216C0843E249D9
:1007800084310860206CB0F5800F01D14FF0010872
:10079000206C08B94FF00109206800F08070B0F1BA
:1007A000807F01D14FF00108207800F02000202840
:1007B00070D100BFD4483830006840F08050D24932
:1007C000383108600846006800F08050009000BF93
:1007D00000BFCE48006840F48070CC490860FFF745
:1007E00089FE064607E0FFF785FE801B642802D9D4
:1007F0000320BDE8F883C548006800F48070002835
:10080000F1D0C1486830006800F4407585B3208E8F
:1008100000F44070A8422BD0BB486830006820F438
:100820004075B9486830006840F48030B649683196
:1008300008600846006820F48030086008460560BB
:10084000006800F0010098B1FFF754FE064608E08A
:10085000FFF750FE801B41F28831884201D9032006
:10086000C7E7A94868300068C0F340000028EFD00F
:1008700000BF208E00F44070B0F5407F0BD1A2483D
:10088000006820F4F810A24A216B114008439E49E9
:10089000086006E010E09C48006820F4F8109A49CF
:1008A0000860994868300068218EC1F30B01084345
:1008B00095496831086000BF207800F010001028CA
:1008C00010D100BF90488430006820F080708E49BD
:1008D0008431086008460068A16B08438A49843166
:1008E000086000BF208800F48040B0F5804F09D137
:1008F00085488830006820F44030616E08438249A2
:1009000088310860208800F40040B0F5004F09D11C
:100910007D488830006820F44020A16E08437A4961
:1009200088310860206800F48030B0F5803F09D13C
:1009300075488830006820F44010E16E0843724921
:1009400088310860206800F40030B0F5003F09D11C
:100950006D488830006820F44000216F08436A49E0
:1009600088310860207800F04000402809D16648AE
:100970008830006820F00300616C084362498831C8
:100980000860207800F08000802809D15E48883017
:10099000006820F00C00A16C08435B4988310860B6
:1009A000208800F48070B0F5807F09D156488830E7
:1009B000006820F03000E16C08435349883108603A
:1009C000208800F40070B0F5007F09D14E488830CF
:1009D000006820F0C000216D08434B498831086051
:1009E000208800F48060B0F5806F09D146488830D7
:1009F000006820F44070616D084343498831086005
:100A0000208800F40060B0F5006F09D13E488830BE
:100A1000006820F44060A16D08433B4988310860BC
:100A2000208800F48050B0F5805F09D136488830C6
:100A3000006820F44050E16D084333498831086074
:100A4000208800F40050B0F5005F09D12E488830AE
:100A5000006820F44040216E08432B49883108602B
:100A6000206800F48000B0F5800F09D12648883056
:100A7000006820F08060A16F084323498831086036
:100A8000206800F40010B0F5001F0FD11E48883018
:100A9000006820F00060E16F08431B49883108605E
:100AA000E06FB0F1006F01D14FF00109207800F044
:100AB0000800082801D14FF00109206800F48020C7
:100AC000B0F5802F09D110488830006820F04070C0
:100AD000616F08430C4988310860206800F4000009
:100AE000B0F5000F0AD108488830006820F0805027
:100AF000D4F880100843044988310860206800F069
:100B00008060B0F1806F05E008380240007000405E
:100B1000FFFCFF0F08D1CC48006820F00050D4F84B
:100B200084100843C8490860206800F00060B0F1F4
:100B3000006F0AD1C448001F006820F00070D4F88C
:100B400088100843C049091F0860206800F08050E1
:100B5000B0F1805F0AD1BC48001F006820F08060BF
:100B6000D4F88C100843B849091F0860B8F1010F88
:100B700003D02068B0F1007F7ED1B3489038006880
:100B800020F08060B04990390860FFF7B3FC06465A
:100B900006E0FFF7AFFC801B642801D9032028E69C
:100BA000A94890380068C0F3C0600028F1D12078CF
:100BB00000F00100B8B1606BA8B9A3480C38006818
:100BC000C0F30145A0480C380068C0F303676068B3
:100BD000800140EA054040EA0761207A41EA00705E
:100BE00099490C390860206800F40020B0F5002F06
:100BF00003D1E06BB0F5801F09D0206800F48010AD
:100C0000B0F5801F24D1206CB0F5800F20D18E4824
:100C10000C380068C0F301458B480C380068C0F3FD
:100C200002776068800140EA0541207B41EA00606C
:100C300040EA077084490C3908608348001F006847
:100C400020F01F00616A491E08437F49091F0860A0
:100C5000206800F08070B0F1807F17D17A480C389E
:100C60000068C0F3036578480C380068C0F3027769
:100C700060688101208A00E036E041EA004040EAF5
:100C8000056040EA077070490C390860206800F080
:100C90000070B0F1007F0DD160688101208A41EAC7
:100CA0000041207B41EA0061207A41EA00706649F8
:100CB0000C39086064489038006840F080606249F0
:100CC00090390860FFF716FC064606E0FFF712FCB5
:100CD000801B642801D903208BE55B4890380068AD
:100CE000C0F3C0600028F1D0B9F1010F7ED15648A1
:100CF0009038006820F08050534990390860FFF721
:100D0000F9FB064606E0FFF7F5FB801B642801D9D6
:100D100003206EE54C4890380068C0F3407000280E
:100D2000F1D1206800F40020B0F5002F01D1E06B74
:100D300038B1206800F48010B0F5801F22D1206CFB
:100D400000BB414808380068C0F301453E480838F8
:100D50000068C0F302776069800140EA0541207EA7
:100D600041EA006040EA0770374908390860081D09
:100D7000006820F4F851A06A401E41EA0020324980
:100D8000091F0860206800F40010B0F5001F19D199
:100D9000E06FB0F1006F15D12B4808380068C0F340
:100DA0000365294808380068C0F30277606981014B
:100DB000208C41EA004040EA056040EA0770224981
:100DC00008390860207800F00800082820D11E4863
:100DD00008380068C0F303651B4808380068C0F392
:100DE00001476069800140EA074000E02AE040EAEC
:100DF0000561207F41EA0070134908390860081D29
:100E0000006820F44030E16A08430F49091F086078
:100E10000D489038006840F080500B4990390860C8
:100E2000FFF768FB064606E0FFF764FB801B6428BB
:100E300001D90320DDE4044890380068C0F3407015
:100E40000028F1D00020D4E49038024070B5044668
:100E50000D4600260CB9012070BD5148006800F015
:100E60000F00A8420ED24E48006820F00F00284321
:100E70004B4908600846006800F00F00A84201D006
:100E80000120E9E7207800F00200022807D1454858
:100E9000006820F0F000A16808434249086020780B
:100EA00000F0010090B36068012807D13D48083880
:100EB0000068C0F34040A0B90120CDE76068022877
:100EC00007D1384808380068C0F3406048B90120AD
:100ED000C2E7344808380068C0F3400008B9012070
:100EE000BAE73048006820F00300616808432D49E4
:100EF0000860FFF7FFFA064609E0FFF7FBFA801BE0
:100F000041F28831884202D90320A5E707E025484D
:100F1000006800F00C006168B0EB810FEDD1204853
:100F2000006800F00F00A8420ED91D48006820F0AC
:100F30000F0028431A4908600846006800F00F00B7
:100F4000A84201D0012087E7207800F0040004289F
:100F500007D11448006820F4E050E16808431149C3
:100F60000860207800F00800082808D10D480068C3
:100F700020F46040216940EAC1000A49086000F09D
:100F80003DF808490968C1F30311074A515CC8409C
:100F9000064908600020FFF7C7FA00205CE7000060
:100FA000003C024008380240703300083000002046
:100FB00001480068704700003000002000B5FFF7CE
:100FC000F7FF04490968C1F38221034A515CC84014
:100FD00000BD0000083802408033000800B5FFF76C
:100FE000E7FF04490968C1F34231034A515CC84034
:100FF00000BD0000083802408033000830B50021F1
:101000000022002300201E4C246804F00C0424B1AC
:10101000042C04D0082C2ED103E01A482DE01A48E5
:101020002BE0174C241F246804F03F01144C241FAC
:10103000246804F4800454B1134CB4FBF1F4104D53
:101040002D1F2D68C5F3881504FB05F209E00D4C32
:10105000B4FBF1F40A4D2D1F2D68C5F3881504FB70
:1010600005F2074C241F2468C4F30144641C630088
:10107000B2FBF3F001E0034800BF00BF30BD000049
:10108000083802400024F40040787D01F8B5044699
:1010900000260CB90120F8BD207800F001000028DE
:1010A00071D0F848006800F00C0004280DD0F54815
:1010B000006800F00C00082813D1F248001F0068F7
:1010C00000F48000B0F5800F0BD1EE4808380068BE
:1010D000C0F34040002869D06068002866D1012034
:1010E000D9E700BF6068B0F5803F08D1E54808380F
:1010F000006840F48030E349083908602EE06068F9
:1011000068B9E0480838006820F48030DD490839C3
:1011100008600846006820F4802008601EE06068CF
:10112000B0F5A02F0DD1D7480838006840F48020D2
:10113000D449083908600846006840F480300860E7
:101140000CE0D0480838006820F48030CD490839D8
:1011500008600846006820F48020086000BF6068CE
:1011600090B1FFF7C7F9054606E0FFF7C3F9401B4A
:10117000642801D903208EE7C24808380068C0F30C
:1011800040400028F1D011E0FFF7B4F9054606E031
:10119000FFF7B0F9401B642801D903207BE7B94869
:1011A00008380068C0F340400028F1D1207800F0F2
:1011B0000200022869D1B348006800F00C0058B161
:1011C000B048006800F00C0008281CD1AD48001F92
:1011D000006800F48000B0B9AA4808380068C0F37D
:1011E000400020B1E068012801D0012053E7A54864
:1011F0000838006820F0F800216940EAC100A149E0
:101200000839086041E0E06828B39E480838006863
:1012100040F001009B4908390860FFF76BF905466B
:1012200006E0FFF767F9401B022801D9032032E7E7
:10123000944808380068C0F340000028F1D0914875
:101240000838006820F0F800216940EAC1008D49A3
:101250000839086019E08B480838006820F0010060
:10126000884908390860FFF745F9054606E0FFF7A9
:1012700041F9401B022801D903200CE781480838B6
:101280000068C0F340000028F1D1207800F0080089
:10129000082836D16069D0B17A486C30006840F0D7
:1012A000010078496C310860FFF724F9054606E033
:1012B000FFF720F9401B022801D90320EBE6714813
:1012C0006C300068C0F340000028F1D019E06D4890
:1012D0006C30006820F001006A496C310860FFF74B
:1012E00009F9054606E0FFF705F9401B022801D978
:1012F0000320D0E663486C300068C0F3400000284B
:10130000F1D1207800F00400042874D15D48383011
:10131000006800F0805080B900BF5A48383000683B
:1013200040F080505749383108600846006800F0A6
:101330008050009000BF00BF01265348006800F4B1
:101340008070B0B95048006840F480704E49086021
:10135000FFF7D0F8054606E0FFF7CCF8401B6428FD
:1013600001D9032097E64848006800F480700028FF
:10137000F2D000BFA068012808D142486830006858
:1013800040F001003F49683108602DE0A06868B96D
:101390003C486830006820F001003A496831086034
:1013A0000846006820F0040008601DE0A0680528D9
:1013B0000DD134486830006840F00400314968318C
:1013C00008600846006840F0010008600CE02D4805
:1013D0006830006820F001002A496831086008463A
:1013E000006820F00400086000BFA068A8B1FFF703
:1013F00081F8054609E02EE0FFF77CF8401B41F23A
:101400008831884201D9032045E61E4868300068CB
:10141000C0F340000028EFD013E0FFF76BF805465B
:1014200008E0FFF767F8401B41F28831884201D994
:10143000032030E6134868300068C0F340000028FD
:10144000EFD1012E07D10F483830006820F08050CE
:101450000C4938310860A069F0B30A48006800F010
:101460000C00082868D0A06902284DD1054808382A
:10147000006820F08070034908390860FFF73AF8E7
:1014800005460AE00838024000700040FFF732F8D5
:10149000401B022801D90320FDE529480068C0F35C
:1014A00040600028F2D1D4E907010843616A40EAAC
:1014B00081110122A06AC2EB500041EA00412C20B8
:1014C000005D41EA00613020005D41EA00701C4986
:1014D000091D0860081F00E030E0006840F08070DF
:1014E000091F0860FFF706F8054606E0FFF702F857
:1014F000401B022801D90320CDE511480068C0F344
:1015000040600028F2D019E00D48006820F080709B
:101510000B490860FEF7EEFF054606E0FEF7EAFF1E
:10152000401B022801D90320B5E505480068C0F337
:1015300040600028F2D101E00120ACE50020AAE5DE
:101540000038024070B504460CB9012070BD606AD5
:1015500000B900BF0021A16294F85D0028B9002005
:1015600084F85C00204600F053F8022084F85D0007
:101570002068006820F0400021680860E068B0F54D
:10158000E06F01D9002501E04FF48055E068B0F527
:10159000706F05D0E068B0F5E06F01D00021A16266
:1015A000206B40B9E068B0F5E06F02D902212163F9
:1015B00001E001212163D4E90101084321690843C5
:1015C00061690843218B01F400710843E169084314
:1015D000216A0843A16A0843216808600421A069C0
:1015E00001EA1040616A0843616B0843E1680843FF
:1015F0002843216848602068C06920F400602168A1
:10160000C86100202066012084F85D0000209DE76D
:1016100010B586B004463449206888421CD100BF0A
:101620003248006840F4805030490860084600683D
:1016300000F48050009000BF00BFE0200190022025
:10164000029000200390032004900520059001A93A
:101650002748FEF73DFE44E02649206888421FD116
:1016600000BF2248001F006840F400401F49091FC6
:1016700008600846006800F40040009000BF00BF0A
:101680004FF4E050019002200290002003900320CC
:1016900004900620059001A91748FEF719FE20E0E6
:1016A0001649206888421CD100BF1048006840F4E9
:1016B00000500E4908600846006800F40050009091
:1016C00000BF00BF4FF4E0400190022002900020D4
:1016D0000390032004900520059001A90848FEF717
:1016E000F7FD06B010BD0000003001404438024054
:1016F00000000240003C004000080240003401406D
:10170000001002402DE9F84304460D4617461E46D8
:101710004FF00008C14600BF94F85C00012802D1D8
:101720000220BDE8F883012084F85C0000BFFEF7CA
:10173000E1FE804694F85D00012802D04FF00209D6
:101740008FE005B117B94FF001098AE0032084F852
:101750005D0000202066A563A787E7872064A4F8C2
:101760004400A4F846002065E064A068B0F5004F8E
:1017700005D12068006840F4804021680860206836
:10178000006800F04000402805D02068006840F064
:10179000400021680860E068B0F5E06F1ED919E0EC
:1017A0002068806800F00200022807D1288821689C
:1017B000C860AD1CE08F401EE0870BE03EB1701C9E
:1017C00040B1FEF797FEA0EB0800B04202D34FF005
:1017D000030946E0E08F0028E2D128E024E02068F9
:1017E000806800F00200022812D1E08F012807D99A
:1017F00028882168C860AD1CE08F801EE08713E058
:1018000015F8010B21680873E08F401EE0870BE09C
:101810003EB1701C40B1FEF76DFEA0EB0800B04277
:1018200002D34FF003091CE0E08F0028D7D14246D5
:101830003146204601F00FF808B120202066A0684C
:1018400050B900BF002000902068C0680090206858
:101850008068009000BF00BF206E08B14FF0010902
:1018600000BF012084F85D0000BF002084F85C0008
:1018700000BF484655E7042808D14FF0E021096928
:1018800041F004014FF0E022116107E04FF0E02148
:10189000096921F004014FF0E0221161704770479F
:1018A00070B504462546681EB0F1807F01D3012043
:1018B0000FE0681E4FF0E02148610F214FF0FF302C
:1018C00000F0B4FF00204FF0E0218861072008619C
:1018D000002070BD10B5FFF7E2FF10BD70477047E4
:1018E00030B502460B4600BF92F83C00012801D1FA
:1018F000022030BD012082F83C0000BF1068416822
:10190000106884680F4D1068A84203D00E4D10680F
:10191000A84203D121F470015868014321F07001FD
:101920001868014324F080049868044310684160FB
:101930001068846000BF002082F83C0000BF00BF38
:10194000D7E70000000001400004014010B5044644
:101950000CB9012010BD94F83D0028B9002084F88E
:101960003C00204600F00CF8022084F83D00211DC8
:10197000206801F011F9012084F83D000020E9E71A
:1019800038B504460D492068884215D100BF0C487F
:10199000006840F001000A4908600846006800F04D
:1019A0000100009000BF00BF002211461920FEF781
:1019B00007FE1920FEF7F7FD38BD000000000140CA
:1019C000443802402DE9F04104460D46002600BF90
:1019D00094F83C00012802D10220BDE8F0810120EA
:1019E00084F83C0000BF022084F83D00206886682F
:1019F0004148064026F47F462068866028685028C3
:101A00003CD00CDC202861D004DC002854D0102805
:101A100066D156E030285ED0402861D142E060288F
:101A200036D070280ED0B0F5805F03D0B0F5005FDF
:101A300056D116E0206880682F497031084021682F
:101A400088604EE0D5E902136A68206801F01CF94D
:101A5000206886682848064046F077062068866039
:101A60003FE0D5E902136A68206801F00DF92068AB
:101A7000806840F480402168886032E0EA686968E4
:101A8000206801F017F95021206801F009F928E0D9
:101A9000EA686968206801F022F96021206801F095
:101AA000FFF81EE0EA686968206801F003F9402148
:101AB000206801F0F5F814E00021206801F0F0F84A
:101AC0000FE01021206801F0EBF80AE020212068E7
:101AD00001F0E6F805E03021206801F0E1F800E0CF
:101AE00000BF00BF012084F83D0000BF002084F843
:101AF0003C0000BF00BF70E788FFFEFF704710B5D5
:101B0000044620680069C0F34000D8B12068C0686E
:101B1000C0F34000B0B16FF00200216808610120FD
:101B200020772068806900F0030018B12046FFF795
:101B3000E5FF05E0204600F0BEF8204600F0BCF8C6
:101B40000020207720680069C0F38000D8B12068A9
:101B5000C068C0F38000B0B16FF004002168086174
:101B6000022020772068806900F4407018B1204678
:101B7000FFF7C4FF05E0204600F09DF8204600F086
:101B80009BF80020207720680069C0F3C000D8B11E
:101B90002068C068C0F3C000B0B16FF008002168D1
:101BA0000861042020772068C06900F0030018B1A4
:101BB0002046FFF7A3FF05E0204600F07CF8204612
:101BC00000F07AF80020207720680069C0F3001048
:101BD000D8B12068C068C0F30010B0B16FF0100039
:101BE00021680861082020772068C06900F44070EF
:101BF00018B12046FFF782FF05E0204600F05BF8B1
:101C0000204600F059F8002020772068006900F095
:101C1000010058B12068C06800F0010030B16FF0D9
:101C2000010021680861204600F048F8206800693A
:101C3000C0F3C01058B12068C068C0F3C01030B104
:101C40006FF08000216808612046FFF747FE20689A
:101C50000069C0F3002058B12068C068C0F3C0100C
:101C600030B16FF08000216808612046FFF736FE32
:101C700020680069C0F3801058B12068C068C0F3C4
:101C8000801030B16FF0400021680861204600F0FC
:101C900023F820680069C0F3401058B12068C0687C
:101CA000C0F3401030B16FF0200021680861204679
:101CB000FFF715FE10BD7047704700000549098801
:101CC000491C044A118011460988632901DB00215F
:101CD0001180704700000020704710B504460CB911
:101CE000012010BDA06900B100E000BF94F86900B8
:101CF00028B9002084F86800204600F02BF8242042
:101D000084F869002068006820F0010021680860FC
:101D1000204601F097F8012800D1E2E7606A10B18F
:101D2000204600F0F2FF2068406820F490402168CF
:101D300048602068806820F02A0021688860206858
:101D4000006840F0010021680860204601F052F868
:101D5000C7E7000010B586B00446344920688842C1
:101D60001DD100BF3248006840F48010304908603F
:101D70000846006800F48010009000BF00BF4FF4D8
:101D80004050019002200290012003900320049013
:101D90000820059001A92748FEF79AFA43E0264952
:101DA000206888421CD100BF2148006840F0804074
:101DB0001F4908600846006800F08040009000BF9E
:101DC00000BFC02001900220029001200390032058
:101DD00004900820059001A91848FEF779FA22E03E
:101DE0001749206888421ED100BF1148001D0068B5
:101DF00040F020000E49091D08600846006800F008
:101E00002000009000BF00BF4FF4844001900220EA
:101E1000029001200390032004900820059001A95E
:101E20000848FEF755FA06B010BD0000005000400B
:101E30004038024000040240007800400014024094
:101E400000140140001802402DE9F84F04460D46E9
:101E5000164699464FF0000A94F86A0020287AD175
:101E600005B116B90120BDE8F88F00BF94F86800ED
:101E7000012801D10220F6E7012084F8680000BFA4
:101E80000020583460612220A074FEF733FB8246A4
:101E900026806680583C00BFA068B0F5805F0AD1FC
:101EA000206920B940F2FF10A4F85C001CE0FF207C
:101EB000A4F85C0018E0A06848B9206918B9FF20B0
:101EC000A4F85C0010E07F20A4F85C000CE0A0689F
:101ED000B0F1805F08D1206918B97F20A4F85C00B8
:101EE00002E03F20A4F85C0000BFB4F85C8024E06E
:101EF000B4F85A00401EA4F85A005346002220218C
:101F00002046CDF8009001F063F908B10320AAE75C
:101F1000A068B0F5805F09D1206938B92F462068E4
:101F2000406A00EA08003880AD1C06E02068406A7C
:101F300008F0FF01084005F8010BB4F85A0000282A
:101F4000D6D1202084F86A0000BF002084F8680001
:101F500000BF88E7FFE7022085E72DE9F843044644
:101F60000D4616461F464FF0000994F869002028D8
:101F700054D105B116B90120BDE8F88300BF94F82B
:101F80006800012801D10220F6E7012084F86800EA
:101F900000BF00205034E06121206076FEF7AAFAED
:101FA000814626806680503C21E0B4F85200401EF5
:101FB000A4F852004B46002280212046009701F0F1
:101FC00007F908B10320D7E7A068B0F5805F0AD110
:101FD000206940B9A846B8F80000C0F3080021689D
:101FE0008862AD1C03E015F8010B21688862B4F823
:101FF00052000028D9D14B460022402120460097AC
:1020000001F0E6F808B10320B6E7202084F8690063
:1020100000BF002084F8680000BFADE70220ABE7F6
:1020200038B5044694F8920000F00F0040F08000AC
:102030000090204600F047F801231A4669462046E2
:10204000FFF760FB204600F001F838BD10B50446EC
:10205000B4F878100122606FFEF746FA10BD70B533
:102060000446204600F01CF8204600F022F80A2022
:10207000FEF711F905252A460121204600F02CF82B
:102080000A20FEF708F994F8930040F008052A4664
:102090000221204600F020F80A20FEF7FCF870BD6F
:1020A00010B50446B4F880100122E06FFEF71CFA68
:1020B00010BD10B50446B4F888100022D4F884008E
:1020C000FEF712FA10BD10B50446B4F878100022DD
:1020D000606FFEF709FA10BD37B582B005460C46B1
:1020E00004F01F00802141EA400040F040000190D0
:1020F0002846FFF7E8FF0A23012201A92846FFF737
:1021000001FB0A23012204A92846FFF7FBFA28460F
:10211000FFF79CFF05B030BD10B53E22254926488B
:10212000FEF786F82348C08F2349C887084621490F
:102130000A6C0264B1F84410A0F844101D48B0F8CD
:1021400046001D49A1F8460015221A4948311A488F
:102150004830FEF76DF8174890F85D00164981F891
:102160005D001448006E0866144848674020A1F8D6
:1021700078001248C8678015A1F880000F48C1F8A0
:1021800084004015A1F888000D48C1F88C0080201B
:10219000A1F890000C2081F89200052081F89300AE
:1021A000082105480167643001F059F80248FFF73B
:1021B00056FF10BD3C000020F80200200004024041
:1021C0000008024010B53E2229492A48FEF730F89F
:1021D0002748C08F2749C887084625490A6C0264EA
:1021E000B1F84410A0F844102148B0F84600214945
:1021F000A1F8460015221E4948311E484830FEF716
:1022000017F81B4890F85D001A4981F85D001848DE
:10221000006E0866184848674FF40050A1F878002F
:102220001648C8674FF40050A1F880001348C1F861
:1022300084008014A1F888001148C1F88C004FF484
:102240000040A1F890000F4890F8920081F89200A9
:102250000C4890F8930081F893000A48016F0548F4
:102260000167643000F0FBFF0248FFF7F8FE10BD85
:10227000040100209803002000140240000C0240DA
:1022800000100240F802002000B587B000BFA74848
:10229000006840F00400A54908600846006800F0A6
:1022A0000400019000BF00BF00BF0846006840F076
:1022B000200008600846006800F02000019000BF80
:1022C00000BF00BF0846006840F080000860084674
:1022D000006800F08000019000BF00BF00BF08460A
:1022E000006840F0010008600846006800F0010046
:1022F000019000BF00BF00BF0846006840F010001A
:1023000008600846006800F01000019000BF00BFA0
:1023100000BF0846006840F00200086008460068F8
:1023200000F00200019000BF00BF00BF0846006837
:1023300040F0080008600846006800F008000190BE
:1023400000BF00BF00BF0846006840F040000860C2
:102350000846006800F04000019000BF00BF002266
:102360004FF400517248FEF7BFF8002244F2C0312A
:102370007048FEF7B9F8002243F204016E48FEF7F8
:10238000B3F8002240216D48FEF7AEF800224FF46A
:1023900000416B48FEF7A8F84FF4005002906948DE
:1023A00003900020049002A96748FDF791FF3220B6
:1023B00002900220039000200490032005900B203F
:1023C000069002A96048FDF783FF062002900220D4
:1023D000039000200490032005900B20069002A992
:1023E0005748FDF775FF4FF400500290012003900D
:1023F00000200490059002A94D48FDF769FF4FF4B5
:1024000000400290514803900020049002A95048D7
:10241000FDF75EFF44F2C0300290012003900020DF
:102420000490059002A94348FDF752FF4FF4407015
:1024300002900220039000200490032005900720C2
:10244000069002A93C48FDF743FF43F204000290C6
:102450000120039000200490059002A93648FDF762
:1024600037FF402002900120039000200490059047
:1024700002A93248FDF72CFF802002900020039033
:10248000049002A92D48FDF723FF802002902F48D9
:1024900003900020049002A92B48FDF719FF4FF488
:1024A000E850029002200390002004900320059041
:1024B0000A20069002A92248FDF70AFF4FF4007097
:1024C000029000200390049002A91D48FDF700FF30
:1024D0004FF40040029001200390002004900590EA
:1024E00002A91748FDF7F4FE4FF420500290022095
:1024F000039000200490032005900B20069002A971
:102500000E48FDF7E5FE002201211720FEF758F8DE
:102510001720FEF748F8002201212820FEF750F886
:102520002820FEF740F807B000BD00003038024018
:102530000014024000040240000C02400018024057
:1025400000000240000011100008024000002110AD
:102550000010024010B51348134908604FF4827010
:1025600048600021104881604FF4E061C1600021A3
:10257000016141614FF4007181611821C161002145
:102580000162416281620721C162002101634163EE
:10259000FEF7D8FF20B14FF4A57104A000F04EFE65
:1025A00010BD0000003001403C0000202E2E2F53B3
:1025B00072632F6D61696E2E6300000010B51348C1
:1025C000134908604FF48270486000211048816010
:1025D0004FF4E061C1600021016141614FF400717D
:1025E00081611821C161002101624162816207217C
:1025F000C162002101634163FEF7A4FF20B14FF4E3
:10260000B27104A000F01AFE10BD0000003C0040B2
:10261000A00000202E2E2F5372632F6D61696E2E45
:102620006300000010B51348134908604FF482702E
:1026300048600021104881604FF4E061C1600021D2
:10264000016141614FF4007181611821C161002174
:102650000162416281620721C1620021016341631D
:10266000FEF770FF20B14FF4BF7104A000F0E6FD4B
:1026700010BD000000340140040100202E2E2F5315
:1026800072632F6D61696E2E6300000000B587B024
:102690001A481B49086040F2E7304860002118489A
:1026A000816040F2E731C1600021016141618161D7
:1026B000FFF74CF920B140F2931112A000F0BEFDDB
:1026C0004FF48050039003A90D48FFF77BF920B128
:1026D00040F299110BA000F0B1FD00200090019094
:1026E000029069460648FFF7FBF820B140F2A111BD
:1026F00004A000F0A3FD07B000BD000000000140F1
:10270000680100202E2E2F5372632F6D61696E2E8B
:102710006300000010B50F480F4908604FF4E13026
:10272000486000210C488160C16001610C21416159
:1027300000218161C16101620020074948620846A9
:10274000FFF7CBFA20B14FF4DB7104A000F076FD67
:1027500010BD000000500040A80100202E2E2F5375
:1027600072632F6D61696E2E6300000010B50F4813
:102770000F4908604FF4E130486000210C48816047
:10278000C16001610C21416100218161C16101626F
:102790000020074948620846FFF79FFA20B140F23F
:1027A000CB1104A000F04AFD10BD000000780040ED
:1027B000180200202E2E2F5372632F6D61696E2E2A
:1027C0006300000010B50F480F4908604FF4E13076
:1027D000486000210C488160C16001610C214161A9
:1027E00000218161C16101620020074948620846F9
:1027F000FFF773FA20B14FF4F07104A000F01EFD52
:1028000010BD000000140140880200202E2E2F531E
:1028100072632F6D61696E2E6300000002480068CC
:10282000C0F30220704700000CED00E010B5002856
:1028300007DA0A07140E054A00F00F031B1FD454D1
:1028400003E00A07130E024A135410BD18ED00E00E
:1028500000E400E07047F8B504460E4615463346DE
:1028600000224FF4C0512046009500F026F828B110
:10287000206E40F0200020660320F8BD3346002281
:1028800080212046009500F071F828B1206E40F0BC
:10289000200020660320F0E7334600224FF4C06199
:1028A0002046009500F009F828B1206E40F0200085
:1028B00020660320E1E70020DFE72DE9F843044626
:1028C0000E4617461D46DDF8208048E0B6F5C06F7D
:1028D00005D127B92068007B00909DF80000681C96
:1028E000E0B32DB1FDF706FEA0EB0800A84236D3F9
:1028F0002068406820F0E000216848606068B0F51A
:10290000827F0DD1A068B0F5004F03D0A068B0F56C
:10291000806F05D12068006820F0400021680860C1
:10292000A06AB0F5005F0ED100BF206800684DF6C8
:10293000FF710840216808602068006840F400507A
:102940002168086000BF012084F85D0000BF0020FE
:1029500084F85C0000BF0320BDE8F883FFE720682F
:1029600080683040B842B1D10020F5E72DE9F04150
:1029700004460E4617461D46DDF818803FE0681CE9
:10298000E0B32DB1FDF7B6FDA0EB0800A84236D3A9
:102990002068406820F0E000216848606068B0F579
:1029A000827F0DD1A068B0F5004F03D0A068B0F5CC
:1029B000806F05D12068006820F040002168086021
:1029C000A06AB0F5005F0ED100BF206800684DF628
:1029D000FF710840216808602068006840F40050DA
:1029E0002168086000BF012084F85D0000BF00205E
:1029F00084F85C0000BF0320BDE8F081FFE7206899
:102A000080683040B842BAD10020F5E7704710B571
:102A1000FDF776FDFEF75EFF10BD000010B5B8B003
:102A200000BF3A48006840F08050384908600846C6
:102A3000006800F08050019000BF00BF00BF344824
:102A4000006840F44040324908600846006800F4DD
:102A50004040019000BF00BF02202B9001202E902B
:102A600010202F900220319000212BA8C161082155
:102A70000162C821416202218162C162FEF706FB48
:102A800020B140F2071123A000F0D8FBFDF7EAFDCA
:102A900020B14FF487711FA000F0D0FB0F202690CB
:102AA00002202790002028904FF4A05029902A90CF
:102AB000062126A8FEF7CAF920B14FF48E7115A0A1
:102AC00000F0BCFB4FF4E0500290002017901890EB
:102AD000199002A8FDF70EFE20B14FF493710DA0DE
:102AE00000F0ACFBFEF764FA4FF47A71B0FBF1F43E
:102AF0002046FEF7D5FE0420FEF7BDFE002211465B
:102B0000501EFDF75DFD38B010BD0000403802409A
:102B1000007000402E2E2F5372632F6D61696E2E50
:102B2000630000001448006840F470001249086017
:102B30001248006840F001001049086000200F4969
:102B4000083108600D4800680D4908400B490860CD
:102B50000C48091D0860081F006820F48020091F28
:102B60000860002005490C3108604FF00060024900
:102B7000803908607047000088ED00E000380240AE
:102B8000FFFFF6FE1030002410B50248FEF7B7FF35
:102B900010BD00006801002010B5002202682F4B14
:102BA00098420ED0B0F1804F0BD02D4B984208D0F8
:102BB0002C4B984205D02C4B984202D02B4B98427C
:102BC00001D1012300E000231BB122F070024B6809
:102BD0001A43224B984220D0B0F1804F1DD0204B99
:102BE00098421AD01F4B984217D01F4B984214D0CE
:102BF0001E4B984211D01E4B98420ED01D4B98424E
:102C00000BD01D4B984208D01C4B984205D01C4B52
:102C1000984202D01B4B984201D1012300E00023CF
:102C20001BB122F44072CB681A4322F080034C6936
:102C300043EA040202608B68C3620B688362074B3D
:102C4000984202D0094B984201D1012300E00023B1
:102C50000BB10B6903630123436110BD0000014008
:102C60000004004000080040000C00400004014047
:102C7000004001400044014000480140001800406D
:102C8000001C00400020004030B50C460021816847
:102C900021F47F4142EA032525432943816030BD69
:102CA0000A460021816821F0700142F007031943B0
:102CB0008160704730B50B46144600210022026A3D
:102CC000056A25F001050562816921F0F00141EAFC
:102CD000041122F00A021A438161026230BD30B54C
:102CE0000B46144600210022056A25F010050562F6
:102CF0008169026A21F4704141EA043122F0A002A4
:102D000042EA03128161026230BD90F8241001F0A2
:102D1000010139B10168496821F40031826A114327
:102D20000268516090F8241001F0020139B1016885
:102D3000496821F48031C26A11430268516090F8F9
:102D4000241001F0040139B10168496821F480219F
:102D5000026B11430268516090F8241001F00801E1
:102D600039B10168496821F40041426B114302689E
:102D7000516090F8241001F0100139B101688968A0
:102D800021F48051826B11430268916090F8241005
:102D900001F0200139B10168896821F40051C26B4A
:102DA00011430268916090F8241001F0400199B13C
:102DB0000168496821F48011026C11430268516076
:102DC000016CB1F5801F07D10168496821F4C00189
:102DD000426C11430268516090F8241001F08001A8
:102DE00039B10168496821F40021826C11430268FD
:102DF0005160704738B5044600250020E066FDF7B5
:102E000079FB05462068006800F0080008280CD10E
:102E10006FF07E402B4600224FF4001100902046B8
:102E200000F0D6F908B1032038BD202084F86900ED
:102E300084F86A0000BF002084F8680000BF00BF6B
:102E4000F2E700002DE9F047044600251026002790
:102E5000A846A9462169A068084361690843E16959
:102E600040EA010520680068CD49084028432168F0
:102E700008602068406820F44050E16808432168F9
:102E80004860216AA06940EA01052068806820F452
:102E9000306028432168886000BFC24920688842AA
:102EA00015D1C148006800F0030030B1012808D0F6
:102EB000022804D0032808D105E0012606E00226F6
:102EC00004E0042602E0082600E000BFC1E0B749A4
:102ED0002068884215D1B448006800F00C0030B179
:102EE000042808D0082804D00C2808D105E00026C2
:102EF00006E0022604E0042602E0082600E000BF07
:102F0000A7E0AB492068884215D1A748006800F0C7
:102F1000300030B1102808D0202804D0302808D143
:102F200005E0002606E0022604E0042602E008266A
:102F300000E000BF8DE09F492068884215D19A4883
:102F4000006800F0C00030B1402808D0802804D0CC
:102F5000C02808D105E0002606E0022604E0042689
:102F600002E0082600E000BF73E093492068884231
:102F700018D18D48006800F4407048B1B0F5807FEA
:102F80000AD0B0F5007F05D0B0F5407F08D105E04C
:102F9000002606E0022604E0042602E0082600E0FF
:102FA00000BF56E085492068884218D17E480068F5
:102FB00000F4406048B1B0F5806F0AD0B0F5006F02
:102FC00005D0B0F5406F08D105E0012606E00226E5
:102FD00004E0042602E0082600E000BF39E078495A
:102FE0002068884218D17048006800F4405048B109
:102FF000B0F5805F0AD0B0F5005F05D0B0F5405F56
:1030000008D105E0002606E0022604E0042602E0DE
:10301000082600E000BF1CE06A492068884218D1F9
:103020006148006800F4404048B1B0F5804F0AD0D4
:10303000B0F5004F05D0B0F5404F08D105E00026AF
:1030400006E0022604E0042602E0082600E000BFB5
:1030500000BF00BFE069B0F5004F52D1042E2BD065
:1030600005DC4EB1012E12D0022E3BD11AE0082E03
:103070002DD0102E36D136E0FDF7A0FF400061685C
:1030800000EB5100B0FBF1F01FFA80F82EE0FDF7E5
:10309000A5FF4000616800EB5100B0FBF1F01FFAA2
:1030A00080F823E04849606801EB50006168B0FB9C
:1030B000F1F01FFA80F819E0FDF7A0FF4000616809
:1030C00000EB5100B0FBF1F01FFA80F80EE04FF476
:1030D0008031606801EB50006168B0FBF1F01FFACD
:1030E00080F803E000BF4FF0010900BF00BF4FF6BA
:1030F000F07008EA0007C8F3420007432068C76081
:103100004AE0042E2CD005DC4EB1012E12D0022E46
:103110003DD11AE0082E2ED0102E38D138E0FDF720
:103120004DFF616800EB5100B0FBF1F080B2216807
:10313000C86030E0FDF752FF616800EB5100B0FB62
:10314000F1F080B22168C86025E02049606801EB99
:1031500050006168B0FBF1F080B22168C8601AE0ED
:10316000FDF74CFF616800EB5100B0FBF1F080B25D
:103170002168C8600FE04FF40041606801EB500027
:103180006168B0FBF1F080B22168C86003E000BF65
:103190004FF0010900BF00BF4846BDE8F0870000BE
:1031A000F369FFEF001001409038024000440040F6
:1031B00000480040004C0040005000400014014016
:1031C00000780040007C00400048E8010024F40042
:1031D0002DE9F04104460D4617469846069E21E02B
:1031E000701CF8B12EB1FDF785F9A0EB0800B042D4
:1031F00018D32068006820F4D07021680860206827
:10320000806820F0010021688860202084F869002F
:1032100084F86A0000BF002084F8680000BF032023
:10322000BDE8F0812068C0692840A84201D1012092
:1032300000E00020B842D3D00020F1E700BFFEE755
:1032400002E008C8121F08C1002AFAD1704770476F
:10325000002001E001C1121F002AFBD1704710B508
:103260000446E068401CE060E168880000F04AF82D
:10327000A060204600F001F810BD0022026042600C
:10328000002104E00022836843F82120491CC26821
:103290008A42F7DC70470000FDF73AF9FFF7BEFB02
:1032A000FEF7F2FFFFF78EFAFFF788F9FFF7BAF99A
:1032B000FFF750F9FFF75AFAFFF72CFAFFF7E6F994
:1032C000FEF72AFFFEF77EFF0948FEF7A9FE094830
:1032D000FEF7A6FE0BE00A23012207490748FEF786
:1032E0003CFE0A23032206490448FEF7ADFDF2E73F
:1032F000F802002098030020080000208802002027
:1033000009000020F0B50B30154D20F00701002416
:10331000144A0FE003688B420BD38B4205D95E1A27
:1033200043184768C3E9006700E04368136002C0C0
:1033300004E0021D10680028ECD12046002802D1CC
:10334000286808B10020F0BD064A07481060074A07
:10335000121A22F00702C0E9002401202860D7E7F2
:1033600038000020340000203407002030090020FD
:103370000000000000000000010203040607080925
:103380000000000001020304A83300080000002030
:103390003C00000040320008E43300083C000020FC
:1033A000F40C000050320008000000000000000093
:1033B000010000000000000000000000000000000C
:1033C00000000000000000000000000000000000FD
:1033D00000000000000000000024F40000000000D5
:0433E00000000000E9
:04000005080001F9F5
:00000001FF
